{
  "address": "0x1275D096B9DBf2347bD2a131Fb6BDaB0B4882487",
  "abi": [
    {
      "inputs": [
        {
          "internalType": "contract IERC20",
          "name": "wethToken_",
          "type": "address"
        }
      ],
      "stateMutability": "nonpayable",
      "type": "constructor"
    },
    {
      "anonymous": false,
      "inputs": [
        {
          "indexed": true,
          "internalType": "address",
          "name": "_owner",
          "type": "address"
        },
        {
          "indexed": true,
          "internalType": "address",
          "name": "_operator",
          "type": "address"
        },
        {
          "indexed": false,
          "internalType": "bool",
          "name": "_approved",
          "type": "bool"
        }
      ],
      "name": "ApprovalForAll",
      "type": "event"
    },
    {
      "anonymous": false,
      "inputs": [
        {
          "indexed": true,
          "internalType": "address",
          "name": "masterContract",
          "type": "address"
        },
        {
          "indexed": false,
          "internalType": "bytes",
          "name": "data",
          "type": "bytes"
        },
        {
          "indexed": true,
          "internalType": "address",
          "name": "cloneAddress",
          "type": "address"
        }
      ],
      "name": "LogDeploy",
      "type": "event"
    },
    {
      "anonymous": false,
      "inputs": [
        {
          "indexed": true,
          "internalType": "address",
          "name": "_operator",
          "type": "address"
        },
        {
          "indexed": true,
          "internalType": "address",
          "name": "_from",
          "type": "address"
        },
        {
          "indexed": true,
          "internalType": "address",
          "name": "_to",
          "type": "address"
        },
        {
          "indexed": false,
          "internalType": "uint256[]",
          "name": "_ids",
          "type": "uint256[]"
        },
        {
          "indexed": false,
          "internalType": "uint256[]",
          "name": "_values",
          "type": "uint256[]"
        }
      ],
      "name": "TransferBatch",
      "type": "event"
    },
    {
      "anonymous": false,
      "inputs": [
        {
          "indexed": true,
          "internalType": "address",
          "name": "_operator",
          "type": "address"
        },
        {
          "indexed": true,
          "internalType": "address",
          "name": "_from",
          "type": "address"
        },
        {
          "indexed": true,
          "internalType": "address",
          "name": "_to",
          "type": "address"
        },
        {
          "indexed": false,
          "internalType": "uint256",
          "name": "_id",
          "type": "uint256"
        },
        {
          "indexed": false,
          "internalType": "uint256",
          "name": "_value",
          "type": "uint256"
        }
      ],
      "name": "TransferSingle",
      "type": "event"
    },
    {
      "anonymous": false,
      "inputs": [
        {
          "indexed": false,
          "internalType": "string",
          "name": "_value",
          "type": "string"
        },
        {
          "indexed": true,
          "internalType": "uint256",
          "name": "_id",
          "type": "uint256"
        }
      ],
      "name": "URI",
      "type": "event"
    },
    {
      "inputs": [],
      "name": "DOMAIN_SEPARATOR",
      "outputs": [
        {
          "internalType": "bytes32",
          "name": "",
          "type": "bytes32"
        }
      ],
      "stateMutability": "view",
      "type": "function"
    },
    {
      "inputs": [
        {
          "internalType": "uint256",
          "name": "",
          "type": "uint256"
        }
      ],
      "name": "assets",
      "outputs": [
        {
          "internalType": "uint96",
          "name": "standard",
          "type": "uint96"
        },
        {
          "internalType": "address",
          "name": "contractAddress",
          "type": "address"
        },
        {
          "internalType": "contract IStrategy",
          "name": "strategy",
          "type": "address"
        },
        {
          "internalType": "uint256",
          "name": "tokenId",
          "type": "uint256"
        }
      ],
      "stateMutability": "view",
      "type": "function"
    },
    {
      "inputs": [
        {
          "internalType": "address",
          "name": "owner",
          "type": "address"
        },
        {
          "internalType": "uint256",
          "name": "assetId",
          "type": "uint256"
        }
      ],
      "name": "balanceOf",
      "outputs": [
        {
          "internalType": "uint256",
          "name": "",
          "type": "uint256"
        }
      ],
      "stateMutability": "view",
      "type": "function"
    },
    {
      "inputs": [
        {
          "internalType": "address[]",
          "name": "owners",
          "type": "address[]"
        },
        {
          "internalType": "uint256[]",
          "name": "ids_",
          "type": "uint256[]"
        }
      ],
      "name": "balanceOfBatch",
      "outputs": [
        {
          "internalType": "uint256[]",
          "name": "balances",
          "type": "uint256[]"
        }
      ],
      "stateMutability": "view",
      "type": "function"
    },
    {
      "inputs": [
        {
          "internalType": "bytes[]",
          "name": "calls",
          "type": "bytes[]"
        },
        {
          "internalType": "bool",
          "name": "revertOnFail",
          "type": "bool"
        }
      ],
      "name": "batch",
      "outputs": [],
      "stateMutability": "payable",
      "type": "function"
    },
    {
      "inputs": [
        {
          "internalType": "address",
          "name": "from",
          "type": "address"
        },
        {
          "internalType": "address",
          "name": "to",
          "type": "address"
        },
        {
          "internalType": "uint256[]",
          "name": "assetIds_",
          "type": "uint256[]"
        },
        {
          "internalType": "uint256[]",
          "name": "shares_",
          "type": "uint256[]"
        }
      ],
      "name": "batchTransfer",
      "outputs": [],
      "stateMutability": "nonpayable",
      "type": "function"
    },
    {
      "inputs": [
        {
          "internalType": "address",
          "name": "masterContract",
          "type": "address"
        },
        {
          "internalType": "bytes",
          "name": "data",
          "type": "bytes"
        },
        {
          "internalType": "bool",
          "name": "useCreate2",
          "type": "bool"
        }
      ],
      "name": "deploy",
      "outputs": [
        {
          "internalType": "address",
          "name": "cloneAddress",
          "type": "address"
        }
      ],
      "stateMutability": "payable",
      "type": "function"
    },
    {
      "inputs": [
        {
          "internalType": "uint96",
          "name": "standard",
          "type": "uint96"
        },
        {
          "internalType": "address",
          "name": "contractAddress",
          "type": "address"
        },
        {
          "internalType": "contract IStrategy",
          "name": "strategy",
          "type": "address"
        },
        {
          "internalType": "uint256",
          "name": "tokenId",
          "type": "uint256"
        },
        {
          "internalType": "address",
          "name": "from",
          "type": "address"
        },
        {
          "internalType": "address",
          "name": "to",
          "type": "address"
        },
        {
          "internalType": "uint256",
          "name": "amount",
          "type": "uint256"
        },
        {
          "internalType": "uint256",
          "name": "share",
          "type": "uint256"
        }
      ],
      "name": "deposit",
      "outputs": [
        {
          "internalType": "uint256",
          "name": "amountOut",
          "type": "uint256"
        },
        {
          "internalType": "uint256",
          "name": "shareOut",
          "type": "uint256"
        }
      ],
      "stateMutability": "nonpayable",
      "type": "function"
    },
    {
      "inputs": [
        {
          "internalType": "uint256",
          "name": "assetId",
          "type": "uint256"
        },
        {
          "internalType": "address",
          "name": "from",
          "type": "address"
        },
        {
          "internalType": "address",
          "name": "to",
          "type": "address"
        },
        {
          "internalType": "uint256",
          "name": "amount",
          "type": "uint256"
        },
        {
          "internalType": "uint256",
          "name": "share",
          "type": "uint256"
        }
      ],
      "name": "depositAsset",
      "outputs": [
        {
          "internalType": "uint256",
          "name": "amountOut",
          "type": "uint256"
        },
        {
          "internalType": "uint256",
          "name": "shareOut",
          "type": "uint256"
        }
      ],
      "stateMutability": "nonpayable",
      "type": "function"
    },
    {
      "inputs": [
        {
          "internalType": "contract IStrategy",
          "name": "strategy",
          "type": "address"
        },
        {
          "internalType": "address",
          "name": "to",
          "type": "address"
        }
      ],
      "name": "depositETH",
      "outputs": [
        {
          "internalType": "uint256",
          "name": "amountOut",
          "type": "uint256"
        },
        {
          "internalType": "uint256",
          "name": "shareOut",
          "type": "uint256"
        }
      ],
      "stateMutability": "payable",
      "type": "function"
    },
    {
      "inputs": [
        {
          "internalType": "uint256",
          "name": "assetId",
          "type": "uint256"
        },
        {
          "internalType": "address",
          "name": "to",
          "type": "address"
        }
      ],
      "name": "depositETHAsset",
      "outputs": [
        {
          "internalType": "uint256",
          "name": "amountOut",
          "type": "uint256"
        },
        {
          "internalType": "uint256",
          "name": "shareOut",
          "type": "uint256"
        }
      ],
      "stateMutability": "payable",
      "type": "function"
    },
    {
      "inputs": [
        {
          "internalType": "uint96",
          "name": "",
          "type": "uint96"
        },
        {
          "internalType": "address",
          "name": "",
          "type": "address"
        },
        {
          "internalType": "contract IStrategy",
          "name": "",
          "type": "address"
        },
        {
          "internalType": "uint256",
          "name": "",
          "type": "uint256"
        }
      ],
      "name": "ids",
      "outputs": [
        {
          "internalType": "uint256",
          "name": "",
          "type": "uint256"
        }
      ],
      "stateMutability": "view",
      "type": "function"
    },
    {
      "inputs": [
        {
          "internalType": "address",
          "name": "",
          "type": "address"
        },
        {
          "internalType": "address",
          "name": "",
          "type": "address"
        }
      ],
      "name": "isApprovedForAll",
      "outputs": [
        {
          "internalType": "bool",
          "name": "",
          "type": "bool"
        }
      ],
      "stateMutability": "view",
      "type": "function"
    },
    {
      "inputs": [
        {
          "internalType": "address",
          "name": "",
          "type": "address"
        }
      ],
      "name": "masterContractOf",
      "outputs": [
        {
          "internalType": "address",
          "name": "",
          "type": "address"
        }
      ],
      "stateMutability": "view",
      "type": "function"
    },
    {
      "inputs": [
        {
          "internalType": "address",
          "name": "",
          "type": "address"
        }
      ],
      "name": "nonces",
      "outputs": [
        {
          "internalType": "uint256",
          "name": "",
          "type": "uint256"
        }
      ],
      "stateMutability": "view",
      "type": "function"
    },
    {
      "inputs": [
        {
          "internalType": "address",
          "name": "",
          "type": "address"
        },
        {
          "internalType": "address",
          "name": "",
          "type": "address"
        },
        {
          "internalType": "uint256[]",
          "name": "",
          "type": "uint256[]"
        },
        {
          "internalType": "uint256[]",
          "name": "",
          "type": "uint256[]"
        },
        {
          "internalType": "bytes",
          "name": "",
          "type": "bytes"
        }
      ],
      "name": "onERC1155BatchReceived",
      "outputs": [
        {
          "internalType": "bytes4",
          "name": "",
          "type": "bytes4"
        }
      ],
      "stateMutability": "nonpayable",
      "type": "function"
    },
    {
      "inputs": [
        {
          "internalType": "address",
          "name": "",
          "type": "address"
        },
        {
          "internalType": "address",
          "name": "",
          "type": "address"
        },
        {
          "internalType": "uint256",
          "name": "",
          "type": "uint256"
        },
        {
          "internalType": "uint256",
          "name": "",
          "type": "uint256"
        },
        {
          "internalType": "bytes",
          "name": "",
          "type": "bytes"
        }
      ],
      "name": "onERC1155Received",
      "outputs": [
        {
          "internalType": "bytes4",
          "name": "",
          "type": "bytes4"
        }
      ],
      "stateMutability": "nonpayable",
      "type": "function"
    },
    {
      "inputs": [
        {
          "internalType": "contract IERC20",
          "name": "token",
          "type": "address"
        },
        {
          "internalType": "address",
          "name": "from",
          "type": "address"
        },
        {
          "internalType": "address",
          "name": "to",
          "type": "address"
        },
        {
          "internalType": "uint256",
          "name": "amount",
          "type": "uint256"
        },
        {
          "internalType": "uint256",
          "name": "deadline",
          "type": "uint256"
        },
        {
          "internalType": "uint8",
          "name": "v",
          "type": "uint8"
        },
        {
          "internalType": "bytes32",
          "name": "r",
          "type": "bytes32"
        },
        {
          "internalType": "bytes32",
          "name": "s",
          "type": "bytes32"
        }
      ],
      "name": "permitToken",
      "outputs": [],
      "stateMutability": "nonpayable",
      "type": "function"
    },
    {
      "inputs": [
        {
          "internalType": "uint96",
          "name": "standard",
          "type": "uint96"
        },
        {
          "internalType": "address",
          "name": "contractAddress",
          "type": "address"
        },
        {
          "internalType": "contract IStrategy",
          "name": "strategy",
          "type": "address"
        },
        {
          "internalType": "uint256",
          "name": "tokenId",
          "type": "uint256"
        }
      ],
      "name": "registerAsset",
      "outputs": [
        {
          "internalType": "uint256",
          "name": "assetId",
          "type": "uint256"
        }
      ],
      "stateMutability": "nonpayable",
      "type": "function"
    },
    {
      "inputs": [
        {
          "internalType": "address",
          "name": "from",
          "type": "address"
        },
        {
          "internalType": "address",
          "name": "to",
          "type": "address"
        },
        {
          "internalType": "uint256[]",
          "name": "assetIds_",
          "type": "uint256[]"
        },
        {
          "internalType": "uint256[]",
          "name": "shares_",
          "type": "uint256[]"
        },
        {
          "internalType": "bytes",
          "name": "data",
          "type": "bytes"
        }
      ],
      "name": "safeBatchTransferFrom",
      "outputs": [],
      "stateMutability": "nonpayable",
      "type": "function"
    },
    {
      "inputs": [
        {
          "internalType": "address",
          "name": "from",
          "type": "address"
        },
        {
          "internalType": "address",
          "name": "to",
          "type": "address"
        },
        {
          "internalType": "uint256",
          "name": "assetId",
          "type": "uint256"
        },
        {
          "internalType": "uint256",
          "name": "share",
          "type": "uint256"
        },
        {
          "internalType": "bytes",
          "name": "data",
          "type": "bytes"
        }
      ],
      "name": "safeTransferFrom",
      "outputs": [],
      "stateMutability": "nonpayable",
      "type": "function"
    },
    {
      "inputs": [
        {
          "internalType": "address",
          "name": "operator",
          "type": "address"
        },
        {
          "internalType": "bool",
          "name": "approved",
          "type": "bool"
        }
      ],
      "name": "setApprovalForAll",
      "outputs": [],
      "stateMutability": "nonpayable",
      "type": "function"
    },
    {
      "inputs": [
        {
          "internalType": "address",
          "name": "user",
          "type": "address"
        },
        {
          "internalType": "address",
          "name": "operator",
          "type": "address"
        },
        {
          "internalType": "bool",
          "name": "approved",
          "type": "bool"
        },
        {
          "internalType": "uint8",
          "name": "v",
          "type": "uint8"
        },
        {
          "internalType": "bytes32",
          "name": "r",
          "type": "bytes32"
        },
        {
          "internalType": "bytes32",
          "name": "s",
          "type": "bytes32"
        }
      ],
      "name": "setApprovalForAllWithPermit",
      "outputs": [],
      "stateMutability": "nonpayable",
      "type": "function"
    },
    {
      "inputs": [
        {
          "internalType": "uint256",
          "name": "",
          "type": "uint256"
        },
        {
          "internalType": "address",
          "name": "",
          "type": "address"
        }
      ],
      "name": "shares",
      "outputs": [
        {
          "internalType": "uint256",
          "name": "",
          "type": "uint256"
        }
      ],
      "stateMutability": "view",
      "type": "function"
    },
    {
      "inputs": [
        {
          "internalType": "bytes4",
          "name": "interfaceID",
          "type": "bytes4"
        }
      ],
      "name": "supportsInterface",
      "outputs": [
        {
          "internalType": "bool",
          "name": "",
          "type": "bool"
        }
      ],
      "stateMutability": "pure",
      "type": "function"
    },
    {
      "inputs": [
        {
          "internalType": "uint256",
          "name": "assetId",
          "type": "uint256"
        },
        {
          "internalType": "uint256",
          "name": "share",
          "type": "uint256"
        },
        {
          "internalType": "bool",
          "name": "roundUp",
          "type": "bool"
        }
      ],
      "name": "toAmount",
      "outputs": [
        {
          "internalType": "uint256",
          "name": "amount",
          "type": "uint256"
        }
      ],
      "stateMutability": "view",
      "type": "function"
    },
    {
      "inputs": [
        {
          "internalType": "uint256",
          "name": "assetId",
          "type": "uint256"
        },
        {
          "internalType": "uint256",
          "name": "amount",
          "type": "uint256"
        },
        {
          "internalType": "bool",
          "name": "roundUp",
          "type": "bool"
        }
      ],
      "name": "toShare",
      "outputs": [
        {
          "internalType": "uint256",
          "name": "share",
          "type": "uint256"
        }
      ],
      "stateMutability": "view",
      "type": "function"
    },
    {
      "inputs": [
        {
          "internalType": "uint256",
          "name": "",
          "type": "uint256"
        }
      ],
      "name": "totalShares",
      "outputs": [
        {
          "internalType": "uint256",
          "name": "",
          "type": "uint256"
        }
      ],
      "stateMutability": "view",
      "type": "function"
    },
    {
      "inputs": [
        {
          "internalType": "uint256",
          "name": "assetId",
          "type": "uint256"
        },
        {
          "internalType": "address",
          "name": "from",
          "type": "address"
        },
        {
          "internalType": "address",
          "name": "to",
          "type": "address"
        },
        {
          "internalType": "uint256",
          "name": "share",
          "type": "uint256"
        }
      ],
      "name": "transfer",
      "outputs": [],
      "stateMutability": "nonpayable",
      "type": "function"
    },
    {
      "inputs": [
        {
          "internalType": "uint256",
          "name": "assetId",
          "type": "uint256"
        },
        {
          "internalType": "address",
          "name": "from",
          "type": "address"
        },
        {
          "internalType": "address[]",
          "name": "tos",
          "type": "address[]"
        },
        {
          "internalType": "uint256[]",
          "name": "share",
          "type": "uint256[]"
        }
      ],
      "name": "transferMultiple",
      "outputs": [],
      "stateMutability": "nonpayable",
      "type": "function"
    },
    {
      "inputs": [
        {
          "internalType": "uint256",
          "name": "assetId",
          "type": "uint256"
        }
      ],
      "name": "uri",
      "outputs": [
        {
          "internalType": "string",
          "name": "",
          "type": "string"
        }
      ],
      "stateMutability": "view",
      "type": "function"
    },
    {
      "inputs": [
        {
          "internalType": "uint256",
          "name": "assetId",
          "type": "uint256"
        },
        {
          "internalType": "address",
          "name": "from",
          "type": "address"
        },
        {
          "internalType": "address",
          "name": "to",
          "type": "address"
        },
        {
          "internalType": "uint256",
          "name": "amount",
          "type": "uint256"
        },
        {
          "internalType": "uint256",
          "name": "share",
          "type": "uint256"
        }
      ],
      "name": "withdraw",
      "outputs": [
        {
          "internalType": "uint256",
          "name": "amountOut",
          "type": "uint256"
        },
        {
          "internalType": "uint256",
          "name": "shareOut",
          "type": "uint256"
        }
      ],
      "stateMutability": "nonpayable",
      "type": "function"
    },
    {
      "inputs": [
        {
          "internalType": "uint256",
          "name": "assetId",
          "type": "uint256"
        },
        {
          "internalType": "address",
          "name": "from",
          "type": "address"
        },
        {
          "internalType": "address",
          "name": "to",
          "type": "address"
        },
        {
          "internalType": "uint256",
          "name": "amount",
          "type": "uint256"
        },
        {
          "internalType": "uint256",
          "name": "share",
          "type": "uint256"
        }
      ],
      "name": "withdrawETH",
      "outputs": [
        {
          "internalType": "uint256",
          "name": "amountOut",
          "type": "uint256"
        },
        {
          "internalType": "uint256",
          "name": "shareOut",
          "type": "uint256"
        }
      ],
      "stateMutability": "nonpayable",
      "type": "function"
    },
    {
      "stateMutability": "payable",
      "type": "receive"
    }
  ],
  "transactionHash": "0x70c7270a1bf6f8fd54ff3ed68045ef11480edfcc8e27e821152899b33ed268b5",
  "args": [
    "0xc02aaa39b223fe8d0a0e5c4f27ead9083c756cc2"
  ],
  "solcInputHash": "ec6f48b5310331160a898c6b7e297fc2",
  "bytecode": "0x60e06040523480156200001157600080fd5b50604051620048e4380380620048e48339810160408190526200003491620001a8565b4660a0819052620000458162000152565b6080908152606092831b6001600160601b031990811660c05260408051928301815260008084526020840181815291840181815295840181815260028054600181018255925293517f405787fa12a823e0f2b7631cc41b3ba8828b3321ca811111fa75cd3aa3bb5ace600390920291820180549351939094166001600160601b0391821617166c010000000000000000000000006001600160a01b03938416021790925593517f405787fa12a823e0f2b7631cc41b3ba8828b3321ca811111fa75cd3aa3bb5acf820180546001600160a01b0319169190951617909355517f405787fa12a823e0f2b7631cc41b3ba8828b3321ca811111fa75cd3aa3bb5ad09092019190915550620001f7565b60007f47e79534a245952e8b16893a336b85a3d9ea9fa8c573f3d803afb92a7946921882306040516020016200018b93929190620001d8565b604051602081830303815290604052805190602001209050919050565b600060208284031215620001ba578081fd5b81516001600160a01b0381168114620001d1578182fd5b9392505050565b92835260208301919091526001600160a01b0316604082015260600190565b60805160a05160c05160601c6146a4620002406000398061073e5280610884528061091d5280610f985280611122528061144d525080612f31525080612f6652506146a46000f3fe6080604052600436106101f15760003560e01c80638d2e63b81161010d578063cf35bdd0116100a0578063e95d084a1161006f578063e95d084a146105b5578063e985e9c5146105d5578063f23a6e61146105f5578063f242432a14610615578063f49580b414610635576101f8565b8063cf35bdd014610532578063d2423b5114610562578063daf210b114610575578063e56d034314610595576101f8565b80639f1b8f59116100dc5780639f1b8f59146104a5578063a22cb465146104c5578063bafe4f14146104e5578063bc197c8114610505576101f8565b80638d2e63b8146104255780638eb22cdd146104455780638faa6eba146104655780639a9af97a14610485576101f8565b806336cd52a611610185578063734029bf11610154578063734029bf146103b25780637c516e94146103c55780637ecebe00146103e557806382481d4914610405576101f8565b806336cd52a614610325578063396bf2fe14610345578063442c1599146103655780634e1273f414610385576101f8565b806313f2dad0116101c157806313f2dad0146102ae5780631f54245b146102ce5780632eb2c2d6146102ee5780633644e51514610310576101f8565b8062fdd58e146101fd57806301ffc9a714610233578063070af5e3146102605780630e89341c14610281576101f8565b366101f857005b600080fd5b34801561020957600080fd5b5061021d6102183660046137f4565b610655565b60405161022a9190613fd6565b60405180910390f35b34801561023f57600080fd5b5061025361024e3660046138f7565b61067f565b60405161022a9190613fcb565b61027361026e366004613a8d565b6106d3565b60405161022a929190614500565b34801561028d57600080fd5b506102a161029c366004613a5d565b610998565b60405161022a9190614074565b3480156102ba57600080fd5b5061021d6102c9366004613a5d565b610a29565b6102e16102dc36600461378f565b610a3b565b60405161022a9190613de0565b3480156102fa57600080fd5b5061030e6103093660046135d4565b610bf7565b005b34801561031c57600080fd5b5061021d610ce1565b34801561033157600080fd5b5061030e610340366004613ab1565b610cf0565b34801561035157600080fd5b50610273610360366004613af8565b610e88565b34801561037157600080fd5b5061021d610380366004613b8e565b6112c8565b34801561039157600080fd5b506103a56103a036600461381f565b61135d565b60405161022a9190613f87565b6102736103c03660046139b1565b611440565b3480156103d157600080fd5b5061030e6103e036600461392f565b611486565b3480156103f157600080fd5b5061021d6104003660046134d3565b6114fa565b34801561041157600080fd5b5061021d610420366004613a8d565b61150c565b34801561043157600080fd5b50610273610440366004613af8565b611529565b34801561045157600080fd5b5061021d610460366004613b8e565b61182f565b34801561047157600080fd5b5061030e61048036600461368e565b61185c565b34801561049157600080fd5b506102736104a0366004613af8565b611a55565b3480156104b157600080fd5b5061030e6104c0366004613b49565b611dea565b3480156104d157600080fd5b5061030e6104e0366004613762565b612036565b3480156104f157600080fd5b506102e16105003660046134d3565b612101565b34801561051157600080fd5b506105256105203660046135d4565b61211c565b60405161022a919061404b565b34801561053e57600080fd5b5061055261054d366004613a5d565b612130565b60405161022a949392919061450e565b61030e610570366004613887565b61217f565b34801561058157600080fd5b5061030e610590366004613543565b612242565b3480156105a157600080fd5b5061021d6105b0366004613bf3565b6124b2565b3480156105c157600080fd5b5061021d6105d0366004613bf3565b612813565b3480156105e157600080fd5b506102536105f036600461350b565b61283f565b34801561060157600080fd5b506105256106103660046136fb565b61285f565b34801561062157600080fd5b5061030e6106303660046136fb565b612871565b34801561064157600080fd5b50610273610650366004613c23565b612953565b60008181526003602090815260408083206001600160a01b03861684529091529020545b92915050565b60006301ffc9a760e01b6001600160e01b0319831614806106b05750636cdb3d1360e11b6001600160e01b03198316145b806106cb57506303a24d0760e21b6001600160e01b03198316145b90505b919050565b6000806001600160a01b0383166107055760405162461bcd60e51b81526004016106fc906140d6565b60405180910390fd5b60006002858154811061071457fe5b6000918252602090912060039091020180549091506001600160601b0316158015610773575080547f00000000000000000000000000000000000000000000000000000000000000006001600160a01b03908116600160601b90920416145b61078f5760405162461bcd60e51b81526004016106fc906144bd565b600085815260046020908152604080832054815160808101835285546001600160601b03811682526001600160a01b03600160601b9091048116948201949094526001860154909316918301919091526002840154606083015234929161080291906107fa9061297f565b846000612a9c565b60008881526003602090815260408083206001600160a01b038b1684529091529020549091506108329082612b07565b60008881526003602090815260408083206001600160a01b038b16845282528083209390935589825260049052205461086b9082612b07565b60046000898152602001908152602001600020819055507f00000000000000000000000000000000000000000000000000000000000000006001600160a01b031663d0e30db0836040518263ffffffff1660e01b81526004016000604051808303818588803b1580156108dd57600080fd5b505af11580156108f1573d6000803e3d6000fd5b5050505060018401546001600160a01b0316159050610946576001830154610946906001600160a01b037f00000000000000000000000000000000000000000000000000000000000000008116911684612b2a565b856001600160a01b031660006001600160a01b0316336001600160a01b031660008051602061460f8339815191528a85604051610984929190614500565b60405180910390a490969095509350505050565b60606000600283815481106109a957fe5b6000918252602090912060039091020154600160601b90046001600160a01b03169050610a226109d882612c20565b6109ea836001600160a01b0316612cdb565b6109fc846001600160a01b0316612d22565b604051602001610a0e93929190613d42565b604051602081830303815290604052612ddb565b9392505050565b60046020526000908152604090205481565b60006001600160a01b038516610a635760405162461bcd60e51b81526004016106fc90614348565b606085901b8215610ad55760008585604051610a80929190613cef565b60405180910390209050604051733d602d80600a3d3981f3363d3d373d3d3d363d7360601b81528260148201526e5af43d82803e903d91602b57fd5bf360881b6028820152816037826000f593505050610b1a565b604051733d602d80600a3d3981f3363d3d373d3d3d363d7360601b81528160148201526e5af43d82803e903d91602b57fd5bf360881b60288201526037816000f09250505b6001600160a01b038281166000818152602081905260409081902080546001600160a01b031916938a16939093179092559051631377d1f560e21b8152634ddf47d4903490610b6f9089908990600401614060565b6000604051808303818588803b158015610b8857600080fd5b505af1158015610b9c573d6000803e3d6000fd5b5050505050816001600160a01b0316866001600160a01b03167fd62166f3c2149208e51788b1401cc356bf5da1fc6c7886a32e18570f57d88b3b8787604051610be6929190614060565b60405180910390a350949350505050565b610c05888888888888612242565b610c17876001600160a01b0316612f26565b15610cd75760405163bc197c8160e01b81526001600160a01b0388169063bc197c8190610c569033908c908b908b908b908b908b908b90600401613df4565b602060405180830381600087803b158015610c7057600080fd5b505af1158015610c84573d6000803e3d6000fd5b505050506040513d601f19601f82011682018060405250810190610ca89190613913565b6001600160e01b03191663bc197c8160e01b14610cd75760405162461bcd60e51b81526004016106fc906142ae565b5050505050505050565b6000610ceb612f2c565b905090565b826001600160a01b0381163314801590610d2e57506001600160a01b038116600090815260056020908152604080832033845290915290205460ff16155b15610d9e57336000908152602081905260409020546001600160a01b03168015801590610d8057506001600160a01b0380821660009081526005602090815260408083209386168352929052205460ff165b610d9c5760405162461bcd60e51b81526004016106fc9061413d565b505b6001600160a01b038316610dc45760405162461bcd60e51b81526004016106fc90614280565b60008581526003602090815260408083206001600160a01b0388168452909152902054610df19083612f8c565b60008681526003602090815260408083206001600160a01b038981168552925280832093909355851681522054610e289083612b07565b60008681526003602090815260408083206001600160a01b0380891680865291909352928190209390935591519091861690339060008051602061460f83398151915290610e79908a908890614500565b60405180910390a45050505050565b600080856001600160a01b0381163314801590610ec957506001600160a01b038116600090815260056020908152604080832033845290915290205460ff16155b15610f3957336000908152602081905260409020546001600160a01b03168015801590610f1b57506001600160a01b0380821660009081526005602090815260408083209386168352929052205460ff165b610f375760405162461bcd60e51b81526004016106fc9061413d565b505b6001600160a01b038616610f5f5760405162461bcd60e51b81526004016106fc90614280565b600060028981548110610f6e57fe5b6000918252602090912060039091020180549091506001600160601b0316158015610fcd575080547f00000000000000000000000000000000000000000000000000000000000000006001600160a01b03908116600160601b90920416145b610fe95760405162461bcd60e51b81526004016106fc906144bd565b6040805160808101825282546001600160601b03811682526001600160a01b03600160601b90910481166020830152600184015416918101919091526002820154606082015260009061103b9061297f565b9050856110655760008a81526004602052604090205461105e9082896001612a9c565b9550611084565b60008a8152600460205260408120546110819183908990612faf565b96505b60008a81526003602090815260408083206001600160a01b038d1684529091529020546110b19087612f8c565b60008b81526003602090815260408083206001600160a01b038e1684528252808320939093558c82526004905220546110ea9087612f8c565b60008b81526004602052604090205560018201546001600160a01b031661120b57604051632e1a7d4d60e01b81526001600160a01b037f00000000000000000000000000000000000000000000000000000000000000001690632e1a7d4d90611157908a90600401613fd6565b600060405180830381600087803b15801561117157600080fd5b505af1158015611185573d6000803e3d6000fd5b505050506000886001600160a01b0316886040516111a290613ddd565b60006040518083038185875af1925050503d80600081146111df576040519150601f19603f3d011682016040523d82523d6000602084013e6111e4565b606091505b50509050806112055760405162461bcd60e51b81526004016106fc906143b4565b50611272565b6001820154604051631b08c5a960e11b81526001600160a01b03909116906336118b529061123f908a908c906004016144e9565b600060405180830381600087803b15801561125957600080fd5b505af115801561126d573d6000803e3d6000fd5b505050505b60006001600160a01b0316896001600160a01b0316336001600160a01b031660008051602061460f8339815191528d8a6040516112b0929190614500565b60405180910390a45094989397509295505050505050565b60008381526004602052604081205460028054611355929161134e91889081106112ee57fe5b600091825260209182902060408051608081018252600390930290910180546001600160601b03811684526001600160a01b03600160601b909104811694840194909452600181015490931690820152600290910154606082015261297f565b8585612faf565b949350505050565b606083806001600160401b038111801561137657600080fd5b506040519080825280602002602001820160405280156113a0578160200160208202803683370190505b50915060005b8181101561143657600360008686848181106113be57fe5b90506020020135815260200190815260200160002060008888848181106113e157fe5b90506020020160208101906113f691906134d3565b6001600160a01b03166001600160a01b031681526020019081526020016000205483828151811061142357fe5b60209081029190910101526001016113a6565b5050949350505050565b60008061147a61147460007f00000000000000000000000000000000000000000000000000000000000000008760006124b2565b846106d3565b915091505b9250929050565b60405163d505accf60e01b81526001600160a01b0389169063d505accf906114be908a908a908a908a908a908a908a90600401613f14565b600060405180830381600087803b1580156114d857600080fd5b505af11580156114ec573d6000803e3d6000fd5b505050505050505050505050565b60066020526000908152604090205481565b600360209081526000928352604080842090915290825290205481565b600080856001600160a01b038116331480159061156a57506001600160a01b038116600090815260056020908152604080832033845290915290205460ff16155b156115da57336000908152602081905260409020546001600160a01b031680158015906115bc57506001600160a01b0380821660009081526005602090815260408083209386168352929052205460ff165b6115d85760405162461bcd60e51b81526004016106fc9061413d565b505b6001600160a01b0386166116005760405162461bcd60e51b81526004016106fc90614280565b60006002898154811061160f57fe5b6000918252602080832060408051608081018252600390940290910180546001600160601b03811685526001600160a01b03600160601b9091048116938501939093526001810154909216908301526002810154606083015292506116739061297f565b90508561169d5760008a8152600460205260409020546116969082896001612a9c565b95506116bc565b60008a8152600460205260408120546116b99183908990612faf565b96505b60008a81526003602090815260408083206001600160a01b038d1684529091529020546116e99087612f8c565b60008b81526003602090815260408083206001600160a01b038e1684528252808320939093558c82526004905220546117229087612f8c565b60008b81526004602052604090205560018201546001600160a01b03166117fd5781546001600160601b031661177457815461176f90600160601b90046001600160a01b03168989612b2a565b6117f8565b81546001600160601b0316600214156117f85781546002830154604051637921219560e11b8152600160601b9092046001600160a01b03169163f242432a916117c59130918d918d90600401613e9f565b600060405180830381600087803b1580156117df57600080fd5b505af11580156117f3573d6000803e3d6000fd5b505050505b611272565b6001820154604051627b8a6760e11b81526001600160a01b039091169062f714ce9061123f908a908c906004016144e9565b60008381526004602052604081205460028054611355929161185591889081106112ee57fe5b8585612a9c565b6001600160a01b0385166118825760405162461bcd60e51b81526004016106fc906141db565b6001600160a01b0386811660009081526020819052604090205416156118ba5760405162461bcd60e51b81526004016106fc906142da565b6001600160a01b0386166118e05760405162461bcd60e51b81526004016106fc9061416d565b6001600160a01b038616600090815260066020908152604080832080546001810190915590516119599261193e927ff7169c3866cb82146af82c4f7463af3a570ae6b4dcc70a39aa080c964fb285eb928c928c928c92909101613fdf565b60405160208183030381529060405280519060200120612ff7565b9050600060018286868660405160008152602001604052604051611980949392919061402d565b6020604051602081039080840390855afa1580156119a2573d6000803e3d6000fd5b505050602060405103519050876001600160a01b0316816001600160a01b0316146119df5760405162461bcd60e51b81526004016106fc90614249565b6001600160a01b038881166000818152600560209081526040808320948c168084529490915290819020805460ff19168a1515179055517f17307eab39ab6107e8899845ad3d59bd9653f200f220920489ca2b5937696c3190611a43908a90613fcb565b60405180910390a35050505050505050565b600080856001600160a01b0381163314801590611a9657506001600160a01b038116600090815260056020908152604080832033845290915290205460ff16155b15611b0657336000908152602081905260409020546001600160a01b03168015801590611ae857506001600160a01b0380821660009081526005602090815260408083209386168352929052205460ff165b611b045760405162461bcd60e51b81526004016106fc9061413d565b505b6001600160a01b038616611b2c5760405162461bcd60e51b81526004016106fc90614280565b600060028981548110611b3b57fe5b6000918252602080832060408051608081018252600390940290910180546001600160601b03811685526001600160a01b03600160601b909104811693850193909352600181015490921690830152600281015460608301529250611b9f9061297f565b905080611bec5781546001600160601b0316611bec578154611bd090600160601b90046001600160a01b0316612f26565b611bec5760405162461bcd60e51b81526004016106fc90614457565b85611c145760008a815260046020526040812054611c0d9183908a90612a9c565b9550611c33565b60008a815260046020526040902054611c309082886001612faf565b96505b60008a81526003602090815260408083206001600160a01b038c168452909152902054611c609087612b07565b60008b81526003602090815260408083206001600160a01b038d1684528252808320939093558c8252600490522054611c999087612b07565b60008b81526004602052604090205581546001600160601b0316611d04576001820154611cff908a906001600160a01b031615611ce35760018401546001600160a01b0316611ce5565b305b8454600160601b90046001600160a01b031691908a61304c565b611dac565b81546001600160601b031660021415611dac57815460018301546001600160a01b03600160601b90920482169163f242432a918c911615611d525760018501546001600160a01b0316611d54565b305b85600201548b6040518563ffffffff1660e01b8152600401611d799493929190613e9f565b600060405180830381600087803b158015611d9357600080fd5b505af1158015611da7573d6000803e3d6000fd5b505050505b876001600160a01b031660006001600160a01b0316336001600160a01b031660008051602061460f8339815191528d8a6040516112b0929190614500565b846001600160a01b0381163314801590611e2857506001600160a01b038116600090815260056020908152604080832033845290915290205460ff16155b15611e9857336000908152602081905260409020546001600160a01b03168015801590611e7a57506001600160a01b0380821660009081526005602090815260408083209386168352929052205460ff165b611e965760405162461bcd60e51b81526004016106fc9061413d565b505b600085858281611ea457fe5b9050602002016020810190611eb991906134d3565b6001600160a01b03161415611ee05760405162461bcd60e51b81526004016106fc9061437d565b600084815b81811015611fd6576000888883818110611efb57fe5b9050602002016020810190611f1091906134d3565b90506000878784818110611f2057fe5b60008f81526003602090815260408083206001600160a01b0389168452825290912054910292909201359250611f5891905082612b07565b60008d81526003602090815260408083206001600160a01b0387168452909152902055611f858582612b07565b9450816001600160a01b03168b6001600160a01b0316336001600160a01b031660008051602061460f8339815191528f85604051611fc4929190614500565b60405180910390a45050600101611ee5565b5060008981526003602090815260408083206001600160a01b038c1684529091529020546120049083612f8c565b6000998a52600360209081526040808c206001600160a01b03909b168c52999052979098209690965550505050505050565b6001600160a01b03821661205c5760405162461bcd60e51b81526004016106fc906141db565b336000908152602081905260409020546001600160a01b0316156120925760405162461bcd60e51b81526004016106fc906142da565b3360008181526005602090815260408083206001600160a01b038716808552925291829020805460ff191685151517905590519091907f17307eab39ab6107e8899845ad3d59bd9653f200f220920489ca2b5937696c31906120f5908590613fcb565b60405180910390a35050565b6000602081905290815260409020546001600160a01b031681565b63bc197c8160e01b98975050505050505050565b6002818154811061213d57fe5b60009182526020909120600390910201805460018201546002909201546001600160601b0382169350600160601b9091046001600160a01b0390811692169084565b60005b8281101561223c57600060603086868581811061219b57fe5b90506020028101906121ad919061453e565b6040516121bb929190613cef565b600060405180830381855af49150503d80600081146121f6576040519150601f19603f3d011682016040523d82523d6000602084013e6121fb565b606091505b50915091508115801561220b5750835b15612232576122198161313d565b60405162461bcd60e51b81526004016106fc9190614074565b5050600101612182565b50505050565b856001600160a01b038116331480159061228057506001600160a01b038116600090815260056020908152604080832033845290915290205460ff16155b156122f057336000908152602081905260409020546001600160a01b031680158015906122d257506001600160a01b0380821660009081526005602090815260408083209386168352929052205460ff165b6122ee5760405162461bcd60e51b81526004016106fc9061413d565b505b6001600160a01b0386166123165760405162461bcd60e51b81526004016106fc90614280565b8360005b8181101561244c57600087878381811061233057fe5b905060200201359050600086868481811061234757fe5b905060200201359050612399816003600085815260200190815260200160002060008e6001600160a01b03166001600160a01b0316815260200190815260200160002054612f8c90919063ffffffff16565b6003600084815260200190815260200160002060008d6001600160a01b03166001600160a01b031681526020019081526020016000208190555061241c816003600085815260200190815260200160002060008d6001600160a01b03166001600160a01b0316815260200190815260200160002054612b0790919063ffffffff16565b60009283526003602090815260408085206001600160a01b038e168652909152909220919091555060010161231a565b50866001600160a01b0316886001600160a01b0316336001600160a01b03167f4a39dc06d4c0dbc64b70af90fd698a233a518aa5d07e595d983b8c0526c8f7fb898989896040516124a09493929190613f55565b60405180910390a45050505050505050565b6001600160601b03841660009081526001602090815260408083206001600160a01b03808816855290835281842090861684528252808320848452909152902054806113555781158061250d57506001600160601b03851615155b6125295760405162461bcd60e51b81526004016106fc90614420565b6001600160a01b03831615806126c75750826001600160a01b0316635a3b7e426040518163ffffffff1660e01b815260040160206040518083038186803b15801561257357600080fd5b505afa158015612587573d6000803e3d6000fd5b505050506040513d601f19601f820116820180604052508101906125ab9190613bd7565b6001600160601b0316856001600160601b031614801561264c5750826001600160a01b031663f6b4dfb46040518163ffffffff1660e01b815260040160206040518083038186803b1580156125ff57600080fd5b505afa158015612613573d6000803e3d6000fd5b505050506040513d601f19601f8201168201806040525081019061263791906134ef565b6001600160a01b0316846001600160a01b0316145b80156126c75750826001600160a01b03166317d70f7c6040518163ffffffff1660e01b815260040160206040518083038186803b15801561268c57600080fd5b505afa1580156126a0573d6000803e3d6000fd5b505050506040513d601f19601f820116820180604052508101906126c49190613a75565b82145b6126e35760405162461bcd60e51b81526004016106fc906141a4565b5060028054604080516080810182526001600160601b038089168083526001600160a01b03808a1660208086018281528b8416878901818152606089018d81526001808d018e5560009d8e52995160038d027f405787fa12a823e0f2b7631cc41b3ba8828b3321ca811111fa75cd3aa3bb5ace8101805496518a16600160601b02928c166bffffffffffffffffffffffff1990971696909617909a1617909355517f405787fa12a823e0f2b7631cc41b3ba8828b3321ca811111fa75cd3aa3bb5acf88018054919096166001600160a01b031990911617909455517f405787fa12a823e0f2b7631cc41b3ba8828b3321ca811111fa75cd3aa3bb5ad09095019490945591875292825283862090865281528285209185529081528184208585529052909120819055949350505050565b600160209081526000948552604080862082529385528385208152918452828420909152825290205481565b600560209081526000928352604080842090915290825290205460ff1681565b63f23a6e6160e01b9695505050505050565b61287d84878786610cf0565b61288f856001600160a01b0316612f26565b1561294b5760405163f23a6e6160e01b81526001600160a01b0386169063f23a6e61906128ca9033908a908990899089908990600401613e58565b602060405180830381600087803b1580156128e457600080fd5b505af11580156128f8573d6000803e3d6000fd5b505050506040513d601f19601f8201168201806040525081019061291c9190613913565b6001600160e01b03191663f23a6e6160e01b1461294b5760405162461bcd60e51b81526004016106fc906142ae565b505050505050565b60008061296e6129658b8b8b8b6124b2565b87878787611a55565b915091509850989650505050505050565b60408101516000906001600160a01b0316612a5f5781516001600160601b03166129c25760208201516129bb906001600160a01b03163061319d565b90506106ce565b81516001600160601b031660021415612a5a5781602001516001600160a01b031662fdd58e3084606001516040518363ffffffff1660e01b8152600401612a0a929190613ed7565b60206040518083038186803b158015612a2257600080fd5b505afa158015612a36573d6000803e3d6000fd5b505050506040513d601f19601f820116820180604052508101906129bb9190613a75565b6106ce565b81604001516001600160a01b031663ce845d1d6040518163ffffffff1660e01b815260040160206040518083038186803b158015612a2257600080fd5b6000612aa9846001612b07565b9350612ab9856305f5e100612b07565b945083612ac68487613287565b81612acd57fe5b049050818015612aee57508285612ae48387613287565b81612aeb57fe5b04105b1561135557612afe816001612b07565b95945050505050565b818101818110156106795760405162461bcd60e51b81526004016106fc90614212565b60006060846001600160a01b031663a9059cbb60e01b8585604051602401612b53929190613ed7565b60408051601f198184030181529181526020820180516001600160e01b03166001600160e01b0319909416939093179092529051612b919190613cff565b6000604051808303816000865af19150503d8060008114612bce576040519150601f19603f3d011682016040523d82523d6000602084013e612bd3565b606091505b5091509150818015612bfd575080511580612bfd575080806020019051810190612bfd91906138db565b612c195760405162461bcd60e51b81526004016106fc90614106565b5050505050565b60408051600481526024810182526020810180516001600160e01b03166306fdde0360e01b179052905160609160009183916001600160a01b03861691612c679190613cff565b600060405180830381855afa9150503d8060008114612ca2576040519150601f19603f3d011682016040523d82523d6000602084013e612ca7565b606091505b509150915081612cd257604051806040016040528060038152602001623f3f3f60e81b815250611355565b611355816132be565b60408051600481526024810182526020810180516001600160e01b03166395d89b4160e01b179052905160609160009183916001600160a01b03861691612c679190613cff565b60408051600481526024810182526020810180516001600160e01b031663313ce56760e01b179052905160009182916060916001600160a01b03861691612d699190613cff565b600060405180830381855afa9150503d8060008114612da4576040519150601f19603f3d011682016040523d82523d6000602084013e612da9565b606091505b5091509150818015612dbc575080516020145b612dc7576012611355565b808060200190518101906113559190613bbb565b6060815160001415612dfc57506040805160208101909152600081526106ce565b606060405180606001604052806040815260200161462f60409139905060006003845160020181612e2957fe5b0460040290506060816020016001600160401b0381118015612e4a57600080fd5b506040519080825280601f01601f191660200182016040528015612e75576020820181803683370190505b509050818152600183018586518101602084015b81831015612ee1576003830192508251603f8160121c168501518253600182019150603f81600c1c168501518253600182019150603f8160061c168501518253600182019150603f8116850151825350600101612e89565b600389510660018114612efb5760028114612f0c57612f18565b613d3d60f01b600119830152612f18565b603d60f81b6000198301525b509398975050505050505050565b3b151590565b6000467f00000000000000000000000000000000000000000000000000000000000000008114612f6457612f5f8161341c565b612f86565b7f00000000000000000000000000000000000000000000000000000000000000005b91505090565b808203828111156106795760405162461bcd60e51b81526004016106fc906140a7565b6000612fbc846001612b07565b9350612fcc856305f5e100612b07565b945084612fd98486613287565b81612fe057fe5b049050818015612aee57508284612ae48388613287565b600060405180604001604052806002815260200161190160f01b81525061301c612f2c565b8360405160200161302f93929190613d1b565b604051602081830303815290604052805190602001209050919050565b60006060856001600160a01b03166323b872dd60e01b86868660405160240161307793929190613ef0565b60408051601f198184030181529181526020820180516001600160e01b03166001600160e01b03199094169390931790925290516130b59190613cff565b6000604051808303816000865af19150503d80600081146130f2576040519150601f19603f3d011682016040523d82523d6000602084013e6130f7565b606091505b509150915081801561312157508051158061312157508080602001905181019061312191906138db565b61294b5760405162461bcd60e51b81526004016106fc906143eb565b6060604482511015613183575060408051808201909152601d81527f5472616e73616374696f6e2072657665727465642073696c656e746c7900000060208201526106ce565b600482019150818060200190518101906106cb91906139c3565b6000806060846001600160a01b03166370a0823160e01b856040516024016131c59190613de0565b60408051601f198184030181529181526020820180516001600160e01b03166001600160e01b03199094169390931790925290516132039190613cff565b600060405180830381855afa9150503d806000811461323e576040519150601f19603f3d011682016040523d82523d6000602084013e613243565b606091505b509150915081801561325757506020815110155b6132735760405162461bcd60e51b81526004016106fc90614311565b80806020019051810190612afe9190613a75565b60008115806132a25750508082028282828161329f57fe5b04145b6106795760405162461bcd60e51b81526004016106fc90614486565b606060408251106132dd57818060200190518101906129bb91906139c3565b8151602014156133fc5760005b60208160ff161080156133195750828160ff168151811061330757fe5b01602001516001600160f81b03191615155b15613326576001016132ea565b60608160ff166001600160401b038111801561334157600080fd5b506040519080825280601f01601f19166020018201604052801561336c576020820181803683370190505b509050600091505b60208260ff161080156133a35750838260ff168151811061339157fe5b01602001516001600160f81b03191615155b156133f357838260ff16815181106133b757fe5b602001015160f81c60f81b818360ff16815181106133d157fe5b60200101906001600160f81b031916908160001a905350600190910190613374565b91506106ce9050565b506040805180820190915260038152623f3f3f60e81b60208201526106ce565b60007f47e79534a245952e8b16893a336b85a3d9ea9fa8c573f3d803afb92a79469218823060405160200161302f9392919061400e565b60008083601f840112613464578182fd5b5081356001600160401b0381111561347a578182fd5b602083019150836020808302850101111561147f57600080fd5b60008083601f8401126134a5578182fd5b5081356001600160401b038111156134bb578182fd5b60208301915083602082850101111561147f57600080fd5b6000602082840312156134e4578081fd5b8135610a22816145ae565b600060208284031215613500578081fd5b8151610a22816145ae565b6000806040838503121561351d578081fd5b8235613528816145ae565b91506020830135613538816145ae565b809150509250929050565b6000806000806000806080878903121561355b578182fd5b8635613566816145ae565b95506020870135613576816145ae565b945060408701356001600160401b0380821115613591578384fd5b61359d8a838b01613453565b909650945060608901359150808211156135b5578384fd5b506135c289828a01613453565b979a9699509497509295939492505050565b60008060008060008060008060a0898b0312156135ef578182fd5b88356135fa816145ae565b9750602089013561360a816145ae565b965060408901356001600160401b0380821115613625578384fd5b6136318c838d01613453565b909850965060608b0135915080821115613649578384fd5b6136558c838d01613453565b909650945060808b013591508082111561366d578384fd5b5061367a8b828c01613494565b999c989b5096995094979396929594505050565b60008060008060008060c087890312156136a6578182fd5b86356136b1816145ae565b955060208701356136c1816145ae565b945060408701356136d1816145c6565b935060608701356136e1816145ea565b9598949750929560808101359460a0909101359350915050565b60008060008060008060a08789031215613713578384fd5b863561371e816145ae565b9550602087013561372e816145ae565b9450604087013593506060870135925060808701356001600160401b03811115613756578283fd5b6135c289828a01613494565b60008060408385031215613774578182fd5b823561377f816145ae565b91506020830135613538816145c6565b600080600080606085870312156137a4578182fd5b84356137af816145ae565b935060208501356001600160401b038111156137c9578283fd5b6137d587828801613494565b90945092505060408501356137e9816145c6565b939692955090935050565b60008060408385031215613806578182fd5b8235613811816145ae565b946020939093013593505050565b60008060008060408587031215613834578182fd5b84356001600160401b038082111561384a578384fd5b61385688838901613453565b9096509450602087013591508082111561386e578384fd5b5061387b87828801613453565b95989497509550505050565b60008060006040848603121561389b578081fd5b83356001600160401b038111156138b0578182fd5b6138bc86828701613453565b90945092505060208401356138d0816145c6565b809150509250925092565b6000602082840312156138ec578081fd5b8151610a22816145c6565b600060208284031215613908578081fd5b8135610a22816145d4565b600060208284031215613924578081fd5b8151610a22816145d4565b600080600080600080600080610100898b03121561394b578182fd5b8835613956816145ae565b97506020890135613966816145ae565b96506040890135613976816145ae565b9550606089013594506080890135935060a0890135613994816145ea565b979a969950949793969295929450505060c08201359160e0013590565b6000806040838503121561351d578182fd5b6000602082840312156139d4578081fd5b81516001600160401b03808211156139ea578283fd5b818401915084601f8301126139fd578283fd5b815181811115613a0b578384fd5b604051601f8201601f191681016020018381118282101715613a2b578586fd5b604052818152838201602001871015613a42578485fd5b613a53826020830160208701614582565b9695505050505050565b600060208284031215613a6e578081fd5b5035919050565b600060208284031215613a86578081fd5b5051919050565b60008060408385031215613a9f578182fd5b823591506020830135613538816145ae565b60008060008060808587031215613ac6578182fd5b843593506020850135613ad8816145ae565b92506040850135613ae8816145ae565b9396929550929360600135925050565b600080600080600060a08688031215613b0f578283fd5b853594506020860135613b21816145ae565b93506040860135613b31816145ae565b94979396509394606081013594506080013592915050565b60008060008060008060808789031215613b61578384fd5b863595506020870135613b73816145ae565b945060408701356001600160401b0380821115613591578586fd5b600080600060608486031215613ba2578081fd5b833592506020840135915060408401356138d0816145c6565b600060208284031215613bcc578081fd5b8151610a22816145ea565b600060208284031215613be8578081fd5b8151610a22816145f9565b60008060008060808587031215613c08578182fd5b8435613c13816145f9565b93506020850135613ad8816145ae565b600080600080600080600080610100898b031215613c3f578182fd5b8835613c4a816145f9565b97506020890135613c5a816145ae565b96506040890135613c6a816145ae565b9550606089013594506080890135613c81816145ae565b935060a0890135613994816145ae565b81835260006001600160fb1b03831115613ca9578081fd5b6020830280836020870137939093016020019283525090919050565b60008284528282602086013780602084860101526020601f19601f85011685010190509392505050565b6000828483379101908152919050565b60008251613d11818460208701614582565b9190910192915050565b60008451613d2d818460208901614582565b91909101928352506020820152604001919050565b693d913730b6b2911d101160b11b81528351600090613d6881600a850160208901614582565b6d1116101139bcb6b137b6111d101160911b600a918401918201528451613d96816018840160208901614582565b6e0111610113232b1b4b6b0b639911d1608d1b6018929091019182015260f89390931b6001600160f81b03191660278401525050607d60f81b602882015260290192915050565b90565b6001600160a01b0391909116815260200190565b6001600160a01b0389811682528816602082015260a060408201819052600090613e21908301888a613c91565b8281036060840152613e34818789613c91565b90508281036080840152613e49818587613cc5565b9b9a5050505050505050505050565b6001600160a01b03878116825286166020820152604081018590526060810184905260a060808201819052600090613e939083018486613cc5565b98975050505050505050565b6001600160a01b0394851681529290931660208301526040820152606081019190915260a06080820181905260009082015260c00190565b6001600160a01b03929092168252602082015260400190565b6001600160a01b039384168152919092166020820152604081019190915260600190565b6001600160a01b0397881681529590961660208601526040850193909352606084019190915260ff16608083015260a082015260c081019190915260e00190565b600060408252613f69604083018688613c91565b8281036020840152613f7c818587613c91565b979650505050505050565b6020808252825182820181905260009190848201906040850190845b81811015613fbf57835183529284019291840191600101613fa3565b50909695505050505050565b901515815260200190565b90815260200190565b9485526001600160a01b0393841660208601529190921660408401529015156060830152608082015260a00190565b92835260208301919091526001600160a01b0316604082015260600190565b93845260ff9290921660208401526040830152606082015260800190565b6001600160e01b031991909116815260200190565b600060208252611355602083018486613cc5565b6000602082528251806020840152614093816040850160208701614582565b601f01601f19169190910160400192915050565b602080825260159082015274426f72696e674d6174683a20556e646572666c6f7760581b604082015260600190565b602080825260169082015275165a595b19109bde0e8809dd1bc9c81b9bdd081cd95d60521b604082015260600190565b6020808252601c908201527f426f72696e6745524332303a205472616e73666572206661696c656400000000604082015260600190565b602080825260169082015275165a595b19109bde0e88139bdd08185c1c1c9bdd995960521b604082015260600190565b6020808252601a908201527f5969656c64426f783a20557365722063616e6e6f742062652030000000000000604082015260600190565b6020808252601b908201527f5969656c64426f783a205374726174656779206d69736d617463680000000000604082015260600190565b6020808252601a908201527f5969656c64426f783a206f70657261746f72206e6f7420736574000000000000604082015260600190565b60208082526018908201527f426f72696e674d6174683a20416464204f766572666c6f770000000000000000604082015260600190565b6020808252601b908201527f5969656c64426f783a20496e76616c6964205369676e61747572650000000000604082015260600190565b602080825260149082015273165a595b19109bde0e881d1bc81b9bdd081cd95d60621b604082015260600190565b60208082526012908201527157726f6e672072657475726e2076616c756560701b604082015260600190565b60208082526017908201527f5969656c64426f783a207573657220697320636c6f6e65000000000000000000604082015260600190565b6020808252601d908201527f426f72696e6745524332303a2042616c616e63654f66206661696c6564000000604082015260600190565b6020808252818101527f426f72696e67466163746f72793a204e6f206d6173746572436f6e7472616374604082015260600190565b60208082526018908201527f5969656c64426f783a20746f735b305d206e6f74207365740000000000000000604082015260600190565b6020808252601d908201527f5969656c64426f783a20455448207472616e73666572206661696c6564000000604082015260600190565b6020808252818101527f426f72696e6745524332303a205472616e7366657246726f6d206661696c6564604082015260600190565b6020808252601e908201527f5969656c64426f783a204e6f20746f6b656e496420666f722045524332300000604082015260600190565b6020808252601590820152742cb4b2b6322137bc1d102737ba1030903a37b5b2b760591b604082015260600190565b60208082526018908201527f426f72696e674d6174683a204d756c204f766572666c6f770000000000000000604082015260600190565b6020808252601290820152710b2d2cad8c884def07440dcdee840ae8aa8960731b604082015260600190565b9182526001600160a01b0316602082015260400190565b918252602082015260400190565b6001600160601b039490941684526001600160a01b03928316602085015291166040830152606082015260800190565b6000808335601e19843603018112614554578283fd5b8301803591506001600160401b0382111561456d578283fd5b60200191503681900382131561147f57600080fd5b60005b8381101561459d578181015183820152602001614585565b8381111561223c5750506000910152565b6001600160a01b03811681146145c357600080fd5b50565b80151581146145c357600080fd5b6001600160e01b0319811681146145c357600080fd5b60ff811681146145c357600080fd5b6001600160601b03811681146145c357600080fdfec3d58168c5ae7397731d063d5bbf3d657854427343f4c083240f7aacaa2d0f624142434445464748494a4b4c4d4e4f505152535455565758595a6162636465666768696a6b6c6d6e6f707172737475767778797a303132333435363738392b2fa2646970667358221220881b214bd416b2c07adf451cd2b98804a7ce6258bfe610a9abfc98fa99987de064736f6c634300060c0033",
  "devdoc": {
    "author": "BoringCrypto, Keno",
    "kind": "dev",
    "methods": {
      "batch(bytes[],bool)": {
        "params": {
          "calls": "An array of inputs for each call.",
          "revertOnFail": "If True then reverts after a failed call and stops doing further calls."
        }
      },
      "deploy(address,bytes,bool)": {
        "params": {
          "data": "Additional abi encoded calldata that is passed to the new clone via `IMasterContract.init`.",
          "masterContract": "The address of the contract to clone.",
          "useCreate2": "Creates the clone by using the CREATE2 opcode, in this case `data` will be used as salt."
        },
        "returns": {
          "cloneAddress": "Address of the created clone contract."
        }
      },
      "depositAsset(uint256,address,address,uint256,uint256)": {
        "params": {
          "amount": "Token amount in native representation to deposit.",
          "assetId": "The id of the asset.",
          "from": "which account to pull the tokens.",
          "share": "Token amount represented in shares to deposit. Takes precedence over `amount`.",
          "to": "which account to push the tokens."
        },
        "returns": {
          "amountOut": "The amount deposited.",
          "shareOut": "The deposited amount repesented in shares."
        }
      },
      "toAmount(uint256,uint256,bool)": {
        "details": "Helper function represent shares back into the `token` amount.",
        "params": {
          "assetId": "The id of the asset.",
          "roundUp": "If the result should be rounded up.",
          "share": "The amount of shares."
        },
        "returns": {
          "amount": "The share amount back into native representation."
        }
      },
      "toShare(uint256,uint256,bool)": {
        "details": "Helper function to represent an `amount` of `token` in shares.",
        "params": {
          "amount": "The `token` amount.",
          "assetId": "The id of the asset.",
          "roundUp": "If the result `share` should be rounded up."
        },
        "returns": {
          "share": "The token amount represented in shares."
        }
      },
      "transfer(uint256,address,address,uint256)": {
        "params": {
          "assetId": "The id of the asset.",
          "from": "which user to pull the tokens.",
          "share": "The amount of `token` in shares.",
          "to": "which user to push the tokens."
        }
      },
      "transferMultiple(uint256,address,address[],uint256[])": {
        "params": {
          "assetId": "The id of the asset.",
          "from": "which user to pull the tokens.",
          "share": "The amount of `token` in shares for each receiver in `tos`.",
          "tos": "The receivers of the tokens."
        }
      },
      "withdraw(uint256,address,address,uint256,uint256)": {
        "params": {
          "amount": "of tokens. Either one of `amount` or `share` needs to be supplied.",
          "assetId": "The id of the asset.",
          "from": "which user to pull the tokens.",
          "share": "Like above, but `share` takes precedence over `amount`.",
          "to": "which user to push the tokens."
        }
      }
    },
    "title": "YieldBox",
    "version": 1
  },
  "userdoc": {
    "kind": "user",
    "methods": {
      "batch(bytes[],bool)": {
        "notice": "Allows batched call to self (this contract)."
      },
      "deploy(address,bytes,bool)": {
        "notice": "Deploys a given master Contract as a clone. Any ETH transferred with this call is forwarded to the new clone. Emits `LogDeploy`."
      },
      "depositAsset(uint256,address,address,uint256,uint256)": {
        "notice": "Deposit an amount of `token` represented in either `amount` or `share`."
      },
      "masterContractOf(address)": {
        "notice": "Mapping from clone contracts to their masterContract."
      },
      "nonces(address)": {
        "notice": "user nonces for masterContract approvals"
      },
      "permitToken(address,address,address,uint256,uint256,uint8,bytes32,bytes32)": {
        "notice": "Call wrapper that performs `ERC20.permit` on `token`. Lookup `IERC20.permit`."
      },
      "safeTransferFrom(address,address,uint256,uint256,bytes)": {
        "notice": "The following safeTransfer functions are purely here to be EIP-1155 compliant. Using these in your protocol is NOT recommended as it opens up many attack vectors, such as reentrancy issues and denial of service?"
      },
      "transfer(uint256,address,address,uint256)": {
        "notice": "Transfer shares from a user account to another one."
      },
      "transferMultiple(uint256,address,address[],uint256[])": {
        "notice": "Transfer shares from a user account to multiple other ones."
      },
      "withdraw(uint256,address,address,uint256,uint256)": {
        "notice": "Withdraws an amount of `token` from a user account."
      }
    },
    "notice": "The YieldBox is a vault for tokens. The stored tokens can assigned to strategies. Yield from this will go to the token depositors. Any funds transfered directly onto the YieldBox will be lost, use the deposit function instead.",
    "version": 1
  },
  "storageLayout": {
    "storage": [
      {
        "astId": 130,
        "contract": "contracts/YieldBox.sol:YieldBox",
        "label": "masterContractOf",
        "offset": 0,
        "slot": "0",
        "type": "t_mapping(t_address,t_address)"
      },
      {
        "astId": 1628,
        "contract": "contracts/YieldBox.sol:YieldBox",
        "label": "ids",
        "offset": 0,
        "slot": "1",
        "type": "t_mapping(t_uint96,t_mapping(t_address,t_mapping(t_contract(IStrategy)3710,t_mapping(t_uint256,t_uint256))))"
      },
      {
        "astId": 1631,
        "contract": "contracts/YieldBox.sol:YieldBox",
        "label": "assets",
        "offset": 0,
        "slot": "2",
        "type": "t_array(t_struct(Asset)1546_storage)dyn_storage"
      },
      {
        "astId": 1637,
        "contract": "contracts/YieldBox.sol:YieldBox",
        "label": "shares",
        "offset": 0,
        "slot": "3",
        "type": "t_mapping(t_uint256,t_mapping(t_address,t_uint256))"
      },
      {
        "astId": 1641,
        "contract": "contracts/YieldBox.sol:YieldBox",
        "label": "totalShares",
        "offset": 0,
        "slot": "4",
        "type": "t_mapping(t_uint256,t_uint256)"
      },
      {
        "astId": 1647,
        "contract": "contracts/YieldBox.sol:YieldBox",
        "label": "isApprovedForAll",
        "offset": 0,
        "slot": "5",
        "type": "t_mapping(t_address,t_mapping(t_address,t_bool))"
      },
      {
        "astId": 3297,
        "contract": "contracts/YieldBox.sol:YieldBox",
        "label": "nonces",
        "offset": 0,
        "slot": "6",
        "type": "t_mapping(t_address,t_uint256)"
      }
    ],
    "types": {
      "t_address": {
        "encoding": "inplace",
        "label": "address",
        "numberOfBytes": "20"
      },
      "t_array(t_struct(Asset)1546_storage)dyn_storage": {
        "base": "t_struct(Asset)1546_storage",
        "encoding": "dynamic_array",
        "label": "struct Asset[]",
        "numberOfBytes": "32"
      },
      "t_bool": {
        "encoding": "inplace",
        "label": "bool",
        "numberOfBytes": "1"
      },
      "t_contract(IStrategy)3710": {
        "encoding": "inplace",
        "label": "contract IStrategy",
        "numberOfBytes": "20"
      },
      "t_mapping(t_address,t_address)": {
        "encoding": "mapping",
        "key": "t_address",
        "label": "mapping(address => address)",
        "numberOfBytes": "32",
        "value": "t_address"
      },
      "t_mapping(t_address,t_bool)": {
        "encoding": "mapping",
        "key": "t_address",
        "label": "mapping(address => bool)",
        "numberOfBytes": "32",
        "value": "t_bool"
      },
      "t_mapping(t_address,t_mapping(t_address,t_bool))": {
        "encoding": "mapping",
        "key": "t_address",
        "label": "mapping(address => mapping(address => bool))",
        "numberOfBytes": "32",
        "value": "t_mapping(t_address,t_bool)"
      },
      "t_mapping(t_address,t_mapping(t_contract(IStrategy)3710,t_mapping(t_uint256,t_uint256)))": {
        "encoding": "mapping",
        "key": "t_address",
        "label": "mapping(address => mapping(contract IStrategy => mapping(uint256 => uint256)))",
        "numberOfBytes": "32",
        "value": "t_mapping(t_contract(IStrategy)3710,t_mapping(t_uint256,t_uint256))"
      },
      "t_mapping(t_address,t_uint256)": {
        "encoding": "mapping",
        "key": "t_address",
        "label": "mapping(address => uint256)",
        "numberOfBytes": "32",
        "value": "t_uint256"
      },
      "t_mapping(t_contract(IStrategy)3710,t_mapping(t_uint256,t_uint256))": {
        "encoding": "mapping",
        "key": "t_contract(IStrategy)3710",
        "label": "mapping(contract IStrategy => mapping(uint256 => uint256))",
        "numberOfBytes": "32",
        "value": "t_mapping(t_uint256,t_uint256)"
      },
      "t_mapping(t_uint256,t_mapping(t_address,t_uint256))": {
        "encoding": "mapping",
        "key": "t_uint256",
        "label": "mapping(uint256 => mapping(address => uint256))",
        "numberOfBytes": "32",
        "value": "t_mapping(t_address,t_uint256)"
      },
      "t_mapping(t_uint256,t_uint256)": {
        "encoding": "mapping",
        "key": "t_uint256",
        "label": "mapping(uint256 => uint256)",
        "numberOfBytes": "32",
        "value": "t_uint256"
      },
      "t_mapping(t_uint96,t_mapping(t_address,t_mapping(t_contract(IStrategy)3710,t_mapping(t_uint256,t_uint256))))": {
        "encoding": "mapping",
        "key": "t_uint96",
        "label": "mapping(uint96 => mapping(address => mapping(contract IStrategy => mapping(uint256 => uint256))))",
        "numberOfBytes": "32",
        "value": "t_mapping(t_address,t_mapping(t_contract(IStrategy)3710,t_mapping(t_uint256,t_uint256)))"
      },
      "t_struct(Asset)1546_storage": {
        "encoding": "inplace",
        "label": "struct Asset",
        "members": [
          {
            "astId": 1539,
            "contract": "contracts/YieldBox.sol:YieldBox",
            "label": "standard",
            "offset": 0,
            "slot": "0",
            "type": "t_uint96"
          },
          {
            "astId": 1541,
            "contract": "contracts/YieldBox.sol:YieldBox",
            "label": "contractAddress",
            "offset": 12,
            "slot": "0",
            "type": "t_address"
          },
          {
            "astId": 1543,
            "contract": "contracts/YieldBox.sol:YieldBox",
            "label": "strategy",
            "offset": 0,
            "slot": "1",
            "type": "t_contract(IStrategy)3710"
          },
          {
            "astId": 1545,
            "contract": "contracts/YieldBox.sol:YieldBox",
            "label": "tokenId",
            "offset": 0,
            "slot": "2",
            "type": "t_uint256"
          }
        ],
        "numberOfBytes": "96"
      },
      "t_uint256": {
        "encoding": "inplace",
        "label": "uint256",
        "numberOfBytes": "32"
      },
      "t_uint96": {
        "encoding": "inplace",
        "label": "uint96",
        "numberOfBytes": "12"
      }
    }
  }
}