{
  "address": "0x1275D096B9DBf2347bD2a131Fb6BDaB0B4882487",
  "abi": [
    {
      "inputs": [
        {
          "internalType": "contract IERC20",
          "name": "wethToken_",
          "type": "address"
        }
      ],
      "stateMutability": "nonpayable",
      "type": "constructor"
    },
    {
      "anonymous": false,
      "inputs": [
        {
          "indexed": true,
          "internalType": "address",
          "name": "_owner",
          "type": "address"
        },
        {
          "indexed": true,
          "internalType": "address",
          "name": "_operator",
          "type": "address"
        },
        {
          "indexed": false,
          "internalType": "bool",
          "name": "_approved",
          "type": "bool"
        }
      ],
      "name": "ApprovalForAll",
      "type": "event"
    },
    {
      "anonymous": false,
      "inputs": [
        {
          "indexed": true,
          "internalType": "address",
          "name": "masterContract",
          "type": "address"
        },
        {
          "indexed": false,
          "internalType": "bytes",
          "name": "data",
          "type": "bytes"
        },
        {
          "indexed": true,
          "internalType": "address",
          "name": "cloneAddress",
          "type": "address"
        }
      ],
      "name": "LogDeploy",
      "type": "event"
    },
    {
      "anonymous": false,
      "inputs": [
        {
          "indexed": true,
          "internalType": "address",
          "name": "_operator",
          "type": "address"
        },
        {
          "indexed": true,
          "internalType": "address",
          "name": "_from",
          "type": "address"
        },
        {
          "indexed": true,
          "internalType": "address",
          "name": "_to",
          "type": "address"
        },
        {
          "indexed": false,
          "internalType": "uint256[]",
          "name": "_ids",
          "type": "uint256[]"
        },
        {
          "indexed": false,
          "internalType": "uint256[]",
          "name": "_values",
          "type": "uint256[]"
        }
      ],
      "name": "TransferBatch",
      "type": "event"
    },
    {
      "anonymous": false,
      "inputs": [
        {
          "indexed": true,
          "internalType": "address",
          "name": "_operator",
          "type": "address"
        },
        {
          "indexed": true,
          "internalType": "address",
          "name": "_from",
          "type": "address"
        },
        {
          "indexed": true,
          "internalType": "address",
          "name": "_to",
          "type": "address"
        },
        {
          "indexed": false,
          "internalType": "uint256",
          "name": "_id",
          "type": "uint256"
        },
        {
          "indexed": false,
          "internalType": "uint256",
          "name": "_value",
          "type": "uint256"
        }
      ],
      "name": "TransferSingle",
      "type": "event"
    },
    {
      "anonymous": false,
      "inputs": [
        {
          "indexed": false,
          "internalType": "string",
          "name": "_value",
          "type": "string"
        },
        {
          "indexed": true,
          "internalType": "uint256",
          "name": "_id",
          "type": "uint256"
        }
      ],
      "name": "URI",
      "type": "event"
    },
    {
      "inputs": [],
      "name": "DOMAIN_SEPARATOR",
      "outputs": [
        {
          "internalType": "bytes32",
          "name": "",
          "type": "bytes32"
        }
      ],
      "stateMutability": "view",
      "type": "function"
    },
    {
      "inputs": [
        {
          "internalType": "uint256",
          "name": "",
          "type": "uint256"
        }
      ],
      "name": "assets",
      "outputs": [
        {
          "internalType": "uint96",
          "name": "standard",
          "type": "uint96"
        },
        {
          "internalType": "address",
          "name": "contractAddress",
          "type": "address"
        },
        {
          "internalType": "contract IStrategy",
          "name": "strategy",
          "type": "address"
        },
        {
          "internalType": "uint256",
          "name": "tokenId",
          "type": "uint256"
        }
      ],
      "stateMutability": "view",
      "type": "function"
    },
    {
      "inputs": [
        {
          "internalType": "address",
          "name": "owner",
          "type": "address"
        },
        {
          "internalType": "uint256",
          "name": "assetId",
          "type": "uint256"
        }
      ],
      "name": "balanceOf",
      "outputs": [
        {
          "internalType": "uint256",
          "name": "",
          "type": "uint256"
        }
      ],
      "stateMutability": "view",
      "type": "function"
    },
    {
      "inputs": [
        {
          "internalType": "address[]",
          "name": "owners",
          "type": "address[]"
        },
        {
          "internalType": "uint256[]",
          "name": "ids_",
          "type": "uint256[]"
        }
      ],
      "name": "balanceOfBatch",
      "outputs": [
        {
          "internalType": "uint256[]",
          "name": "balances",
          "type": "uint256[]"
        }
      ],
      "stateMutability": "view",
      "type": "function"
    },
    {
      "inputs": [
        {
          "internalType": "bytes[]",
          "name": "calls",
          "type": "bytes[]"
        },
        {
          "internalType": "bool",
          "name": "revertOnFail",
          "type": "bool"
        }
      ],
      "name": "batch",
      "outputs": [],
      "stateMutability": "payable",
      "type": "function"
    },
    {
      "inputs": [
        {
          "internalType": "address",
          "name": "from",
          "type": "address"
        },
        {
          "internalType": "address",
          "name": "to",
          "type": "address"
        },
        {
          "internalType": "uint256[]",
          "name": "assetIds_",
          "type": "uint256[]"
        },
        {
          "internalType": "uint256[]",
          "name": "shares_",
          "type": "uint256[]"
        }
      ],
      "name": "batchTransfer",
      "outputs": [],
      "stateMutability": "nonpayable",
      "type": "function"
    },
    {
      "inputs": [
        {
          "internalType": "address",
          "name": "masterContract",
          "type": "address"
        },
        {
          "internalType": "bytes",
          "name": "data",
          "type": "bytes"
        },
        {
          "internalType": "bool",
          "name": "useCreate2",
          "type": "bool"
        }
      ],
      "name": "deploy",
      "outputs": [
        {
          "internalType": "address",
          "name": "cloneAddress",
          "type": "address"
        }
      ],
      "stateMutability": "payable",
      "type": "function"
    },
    {
      "inputs": [
        {
          "internalType": "uint256",
          "name": "assetId",
          "type": "uint256"
        },
        {
          "internalType": "address",
          "name": "from",
          "type": "address"
        },
        {
          "internalType": "address",
          "name": "to",
          "type": "address"
        },
        {
          "internalType": "uint256",
          "name": "amount",
          "type": "uint256"
        },
        {
          "internalType": "uint256",
          "name": "share",
          "type": "uint256"
        }
      ],
      "name": "deposit",
      "outputs": [
        {
          "internalType": "uint256",
          "name": "amountOut",
          "type": "uint256"
        },
        {
          "internalType": "uint256",
          "name": "shareOut",
          "type": "uint256"
        }
      ],
      "stateMutability": "nonpayable",
      "type": "function"
    },
    {
      "inputs": [
        {
          "internalType": "uint256",
          "name": "assetId",
          "type": "uint256"
        },
        {
          "internalType": "address",
          "name": "to",
          "type": "address"
        }
      ],
      "name": "depositETH",
      "outputs": [
        {
          "internalType": "uint256",
          "name": "amountOut",
          "type": "uint256"
        },
        {
          "internalType": "uint256",
          "name": "shareOut",
          "type": "uint256"
        }
      ],
      "stateMutability": "payable",
      "type": "function"
    },
    {
      "inputs": [
        {
          "internalType": "uint96",
          "name": "",
          "type": "uint96"
        },
        {
          "internalType": "address",
          "name": "",
          "type": "address"
        },
        {
          "internalType": "contract IStrategy",
          "name": "",
          "type": "address"
        },
        {
          "internalType": "uint256",
          "name": "",
          "type": "uint256"
        }
      ],
      "name": "ids",
      "outputs": [
        {
          "internalType": "uint256",
          "name": "",
          "type": "uint256"
        }
      ],
      "stateMutability": "view",
      "type": "function"
    },
    {
      "inputs": [
        {
          "internalType": "address",
          "name": "",
          "type": "address"
        },
        {
          "internalType": "address",
          "name": "",
          "type": "address"
        }
      ],
      "name": "isApprovedForAll",
      "outputs": [
        {
          "internalType": "bool",
          "name": "",
          "type": "bool"
        }
      ],
      "stateMutability": "view",
      "type": "function"
    },
    {
      "inputs": [
        {
          "internalType": "address",
          "name": "",
          "type": "address"
        }
      ],
      "name": "masterContractOf",
      "outputs": [
        {
          "internalType": "address",
          "name": "",
          "type": "address"
        }
      ],
      "stateMutability": "view",
      "type": "function"
    },
    {
      "inputs": [
        {
          "internalType": "address",
          "name": "",
          "type": "address"
        }
      ],
      "name": "nonces",
      "outputs": [
        {
          "internalType": "uint256",
          "name": "",
          "type": "uint256"
        }
      ],
      "stateMutability": "view",
      "type": "function"
    },
    {
      "inputs": [
        {
          "internalType": "address",
          "name": "",
          "type": "address"
        },
        {
          "internalType": "address",
          "name": "",
          "type": "address"
        },
        {
          "internalType": "uint256[]",
          "name": "",
          "type": "uint256[]"
        },
        {
          "internalType": "uint256[]",
          "name": "",
          "type": "uint256[]"
        },
        {
          "internalType": "bytes",
          "name": "",
          "type": "bytes"
        }
      ],
      "name": "onERC1155BatchReceived",
      "outputs": [
        {
          "internalType": "bytes4",
          "name": "",
          "type": "bytes4"
        }
      ],
      "stateMutability": "nonpayable",
      "type": "function"
    },
    {
      "inputs": [
        {
          "internalType": "address",
          "name": "",
          "type": "address"
        },
        {
          "internalType": "address",
          "name": "",
          "type": "address"
        },
        {
          "internalType": "uint256",
          "name": "",
          "type": "uint256"
        },
        {
          "internalType": "uint256",
          "name": "",
          "type": "uint256"
        },
        {
          "internalType": "bytes",
          "name": "",
          "type": "bytes"
        }
      ],
      "name": "onERC1155Received",
      "outputs": [
        {
          "internalType": "bytes4",
          "name": "",
          "type": "bytes4"
        }
      ],
      "stateMutability": "nonpayable",
      "type": "function"
    },
    {
      "inputs": [
        {
          "internalType": "contract IERC20",
          "name": "token",
          "type": "address"
        },
        {
          "internalType": "address",
          "name": "from",
          "type": "address"
        },
        {
          "internalType": "address",
          "name": "to",
          "type": "address"
        },
        {
          "internalType": "uint256",
          "name": "amount",
          "type": "uint256"
        },
        {
          "internalType": "uint256",
          "name": "deadline",
          "type": "uint256"
        },
        {
          "internalType": "uint8",
          "name": "v",
          "type": "uint8"
        },
        {
          "internalType": "bytes32",
          "name": "r",
          "type": "bytes32"
        },
        {
          "internalType": "bytes32",
          "name": "s",
          "type": "bytes32"
        }
      ],
      "name": "permitToken",
      "outputs": [],
      "stateMutability": "nonpayable",
      "type": "function"
    },
    {
      "inputs": [
        {
          "internalType": "uint96",
          "name": "standard",
          "type": "uint96"
        },
        {
          "internalType": "address",
          "name": "contractAddress",
          "type": "address"
        },
        {
          "internalType": "contract IStrategy",
          "name": "strategy",
          "type": "address"
        },
        {
          "internalType": "uint256",
          "name": "tokenId",
          "type": "uint256"
        }
      ],
      "name": "registerAsset",
      "outputs": [
        {
          "internalType": "uint256",
          "name": "assetId",
          "type": "uint256"
        }
      ],
      "stateMutability": "nonpayable",
      "type": "function"
    },
    {
      "inputs": [
        {
          "internalType": "address",
          "name": "from",
          "type": "address"
        },
        {
          "internalType": "address",
          "name": "to",
          "type": "address"
        },
        {
          "internalType": "uint256[]",
          "name": "assetIds_",
          "type": "uint256[]"
        },
        {
          "internalType": "uint256[]",
          "name": "shares_",
          "type": "uint256[]"
        },
        {
          "internalType": "bytes",
          "name": "data",
          "type": "bytes"
        }
      ],
      "name": "safeBatchTransferFrom",
      "outputs": [],
      "stateMutability": "nonpayable",
      "type": "function"
    },
    {
      "inputs": [
        {
          "internalType": "address",
          "name": "from",
          "type": "address"
        },
        {
          "internalType": "address",
          "name": "to",
          "type": "address"
        },
        {
          "internalType": "uint256",
          "name": "assetId",
          "type": "uint256"
        },
        {
          "internalType": "uint256",
          "name": "share",
          "type": "uint256"
        },
        {
          "internalType": "bytes",
          "name": "data",
          "type": "bytes"
        }
      ],
      "name": "safeTransferFrom",
      "outputs": [],
      "stateMutability": "nonpayable",
      "type": "function"
    },
    {
      "inputs": [
        {
          "internalType": "address",
          "name": "operator",
          "type": "address"
        },
        {
          "internalType": "bool",
          "name": "approved",
          "type": "bool"
        }
      ],
      "name": "setApprovalForAll",
      "outputs": [],
      "stateMutability": "nonpayable",
      "type": "function"
    },
    {
      "inputs": [
        {
          "internalType": "address",
          "name": "user",
          "type": "address"
        },
        {
          "internalType": "address",
          "name": "operator",
          "type": "address"
        },
        {
          "internalType": "bool",
          "name": "approved",
          "type": "bool"
        },
        {
          "internalType": "uint8",
          "name": "v",
          "type": "uint8"
        },
        {
          "internalType": "bytes32",
          "name": "r",
          "type": "bytes32"
        },
        {
          "internalType": "bytes32",
          "name": "s",
          "type": "bytes32"
        }
      ],
      "name": "setApprovalForAllWithPermit",
      "outputs": [],
      "stateMutability": "nonpayable",
      "type": "function"
    },
    {
      "inputs": [
        {
          "internalType": "uint256",
          "name": "",
          "type": "uint256"
        },
        {
          "internalType": "address",
          "name": "",
          "type": "address"
        }
      ],
      "name": "shares",
      "outputs": [
        {
          "internalType": "uint256",
          "name": "",
          "type": "uint256"
        }
      ],
      "stateMutability": "view",
      "type": "function"
    },
    {
      "inputs": [
        {
          "internalType": "bytes4",
          "name": "interfaceID",
          "type": "bytes4"
        }
      ],
      "name": "supportsInterface",
      "outputs": [
        {
          "internalType": "bool",
          "name": "",
          "type": "bool"
        }
      ],
      "stateMutability": "pure",
      "type": "function"
    },
    {
      "inputs": [
        {
          "internalType": "uint256",
          "name": "assetId",
          "type": "uint256"
        },
        {
          "internalType": "uint256",
          "name": "share",
          "type": "uint256"
        },
        {
          "internalType": "bool",
          "name": "roundUp",
          "type": "bool"
        }
      ],
      "name": "toAmount",
      "outputs": [
        {
          "internalType": "uint256",
          "name": "amount",
          "type": "uint256"
        }
      ],
      "stateMutability": "nonpayable",
      "type": "function"
    },
    {
      "inputs": [
        {
          "internalType": "uint256",
          "name": "assetId",
          "type": "uint256"
        },
        {
          "internalType": "uint256",
          "name": "amount",
          "type": "uint256"
        },
        {
          "internalType": "bool",
          "name": "roundUp",
          "type": "bool"
        }
      ],
      "name": "toShare",
      "outputs": [
        {
          "internalType": "uint256",
          "name": "share",
          "type": "uint256"
        }
      ],
      "stateMutability": "nonpayable",
      "type": "function"
    },
    {
      "inputs": [
        {
          "internalType": "uint256",
          "name": "",
          "type": "uint256"
        }
      ],
      "name": "totalShares",
      "outputs": [
        {
          "internalType": "uint256",
          "name": "",
          "type": "uint256"
        }
      ],
      "stateMutability": "view",
      "type": "function"
    },
    {
      "inputs": [
        {
          "internalType": "uint256",
          "name": "assetId",
          "type": "uint256"
        },
        {
          "internalType": "address",
          "name": "from",
          "type": "address"
        },
        {
          "internalType": "address",
          "name": "to",
          "type": "address"
        },
        {
          "internalType": "uint256",
          "name": "share",
          "type": "uint256"
        }
      ],
      "name": "transfer",
      "outputs": [],
      "stateMutability": "nonpayable",
      "type": "function"
    },
    {
      "inputs": [
        {
          "internalType": "uint256",
          "name": "assetId",
          "type": "uint256"
        },
        {
          "internalType": "address",
          "name": "from",
          "type": "address"
        },
        {
          "internalType": "address[]",
          "name": "tos",
          "type": "address[]"
        },
        {
          "internalType": "uint256[]",
          "name": "share",
          "type": "uint256[]"
        }
      ],
      "name": "transferMultiple",
      "outputs": [],
      "stateMutability": "nonpayable",
      "type": "function"
    },
    {
      "inputs": [
        {
          "internalType": "uint256",
          "name": "assetId",
          "type": "uint256"
        }
      ],
      "name": "uri",
      "outputs": [
        {
          "internalType": "string",
          "name": "",
          "type": "string"
        }
      ],
      "stateMutability": "view",
      "type": "function"
    },
    {
      "inputs": [
        {
          "internalType": "uint256",
          "name": "assetId",
          "type": "uint256"
        },
        {
          "internalType": "address",
          "name": "from",
          "type": "address"
        },
        {
          "internalType": "address",
          "name": "to",
          "type": "address"
        },
        {
          "internalType": "uint256",
          "name": "amount",
          "type": "uint256"
        },
        {
          "internalType": "uint256",
          "name": "share",
          "type": "uint256"
        }
      ],
      "name": "withdraw",
      "outputs": [
        {
          "internalType": "uint256",
          "name": "amountOut",
          "type": "uint256"
        },
        {
          "internalType": "uint256",
          "name": "shareOut",
          "type": "uint256"
        }
      ],
      "stateMutability": "nonpayable",
      "type": "function"
    },
    {
      "inputs": [
        {
          "internalType": "uint256",
          "name": "assetId",
          "type": "uint256"
        },
        {
          "internalType": "address",
          "name": "from",
          "type": "address"
        },
        {
          "internalType": "address",
          "name": "to",
          "type": "address"
        },
        {
          "internalType": "uint256",
          "name": "amount",
          "type": "uint256"
        },
        {
          "internalType": "uint256",
          "name": "share",
          "type": "uint256"
        }
      ],
      "name": "withdrawETH",
      "outputs": [
        {
          "internalType": "uint256",
          "name": "amountOut",
          "type": "uint256"
        },
        {
          "internalType": "uint256",
          "name": "shareOut",
          "type": "uint256"
        }
      ],
      "stateMutability": "nonpayable",
      "type": "function"
    }
  ],
  "transactionHash": "0x6426aef6c72ad94dd0330dd9e67266575355d5bf682dcd0d897016c722ac7561",
  "args": [
    "0xc02aaa39b223fe8d0a0e5c4f27ead9083c756cc2"
  ],
  "solcInputHash": "27eda7b42a05311b93a7299f3ac605ed",
  "bytecode": "0x60e06040523480156200001157600080fd5b50604051620047fb380380620047fb8339810160408190526200003491620001a8565b4660a0819052620000458162000152565b6080908152606092831b6001600160601b031990811660c05260408051928301815260008084526020840181815291840181815295840181815260028054600181018255925293517f405787fa12a823e0f2b7631cc41b3ba8828b3321ca811111fa75cd3aa3bb5ace600390920291820180549351939094166001600160601b0391821617166c010000000000000000000000006001600160a01b03938416021790925593517f405787fa12a823e0f2b7631cc41b3ba8828b3321ca811111fa75cd3aa3bb5acf820180546001600160a01b0319169190951617909355517f405787fa12a823e0f2b7631cc41b3ba8828b3321ca811111fa75cd3aa3bb5ad09092019190915550620001f7565b60007f47e79534a245952e8b16893a336b85a3d9ea9fa8c573f3d803afb92a7946921882306040516020016200018b93929190620001d8565b604051602081830303815290604052805190602001209050919050565b600060208284031215620001ba578081fd5b81516001600160a01b0381168114620001d1578182fd5b9392505050565b92835260208301919091526001600160a01b0316604082015260600190565b60805160a05160c05160601c6145c06200023b6000398061106652806111af5280611558528061165552806116ee525080612ee2525080612f1752506145c06000f3fe6080604052600436106101d75760003560e01c806382481d4911610102578063cf35bdd011610095578063e95d084a11610064578063e95d084a14610581578063e985e9c5146105a1578063f23a6e61146105c1578063f242432a146105e1576101d7565b8063cf35bdd0146104fe578063d2423b511461052e578063daf210b114610541578063e56d034314610561576101d7565b80639f1b8f59116100d15780639f1b8f5914610471578063a22cb46514610491578063bafe4f14146104b1578063bc197c81146104d1576101d7565b806382481d49146103f15780638d2e63b8146104115780638eb22cdd146104315780638faa6eba14610451576101d7565b80633644e5151161017a5780634e1273f4116101495780634e1273f41461037157806356150edf1461039e5780637c516e94146103b15780637ecebe00146103d1576101d7565b80633644e515146102fc57806336cd52a614610311578063396bf2fe14610331578063442c159914610351576101d7565b806313f2dad0116101b657806313f2dad01461026c5780631f54245b1461028c5780631f8f6170146102ac5780632eb2c2d6146102da576101d7565b8062fdd58e146101dc57806301ffc9a7146102125780630e89341c1461023f575b600080fd5b3480156101e857600080fd5b506101fc6101f7366004613790565b610601565b6040516102099190613ef2565b60405180910390f35b34801561021e57600080fd5b5061023261022d366004613893565b61062b565b6040516102099190613ee7565b34801561024b57600080fd5b5061025f61025a3660046139e7565b61067f565b6040516102099190613f90565b34801561027857600080fd5b506101fc6102873660046139e7565b610710565b61029f61029a36600461372b565b610722565b6040516102099190613cfc565b3480156102b857600080fd5b506102cc6102c7366004613a82565b6108e7565b60405161020992919061441c565b3480156102e657600080fd5b506102fa6102f5366004613570565b610c88565b005b34801561030857600080fd5b506101fc610d6c565b34801561031d57600080fd5b506102fa61032c366004613a3b565b610d7b565b34801561033d57600080fd5b506102cc61034c366004613a82565b610f13565b34801561035d57600080fd5b506101fc61036c366004613b18565b61133b565b34801561037d57600080fd5b5061039161038c3660046137bb565b6113d0565b6040516102099190613ea3565b6102cc6103ac366004613a17565b6114b3565b3480156103bd57600080fd5b506102fa6103cc3660046138cb565b611767565b3480156103dd57600080fd5b506101fc6103ec36600461346f565b6117db565b3480156103fd57600080fd5b506101fc61040c366004613a17565b6117ed565b34801561041d57600080fd5b506102cc61042c366004613a82565b61180a565b34801561043d57600080fd5b506101fc61044c366004613b18565b611b10565b34801561045d57600080fd5b506102fa61046c36600461362a565b611b3d565b34801561047d57600080fd5b506102fa61048c366004613ad3565b611d36565b34801561049d57600080fd5b506102fa6104ac3660046136fe565b611f82565b3480156104bd57600080fd5b5061029f6104cc36600461346f565b61204d565b3480156104dd57600080fd5b506104f16104ec366004613570565b612068565b6040516102099190613f67565b34801561050a57600080fd5b5061051e6105193660046139e7565b612095565b604051610209949392919061442a565b6102fa61053c366004613823565b6120e4565b34801561054d57600080fd5b506102fa61055c3660046134df565b6121a7565b34801561056d57600080fd5b506101fc61057c366004613b7d565b612417565b34801561058d57600080fd5b506101fc61059c366004613b7d565b612784565b3480156105ad57600080fd5b506102326105bc3660046134a7565b6127b0565b3480156105cd57600080fd5b506104f16105dc366004613697565b6127d0565b3480156105ed57600080fd5b506102fa6105fc366004613697565b6127fb565b60008181526003602090815260408083206001600160a01b03861684529091529020545b92915050565b60006301ffc9a760e01b6001600160e01b03198316148061065c5750636cdb3d1360e11b6001600160e01b03198316145b8061067757506303a24d0760e21b6001600160e01b03198316145b90505b919050565b606060006002838154811061069057fe5b6000918252602090912060039091020154600160601b90046001600160a01b031690506107096106bf826128d7565b6106d1836001600160a01b0316612992565b6106e3846001600160a01b03166129d9565b6040516020016106f593929190613c5e565b604051602081830303815290604052612a92565b9392505050565b60046020526000908152604090205481565b60006001600160a01b0385166107535760405162461bcd60e51b815260040161074a90614264565b60405180910390fd5b606085901b82156107c55760008585604051610770929190613c0b565b60405180910390209050604051733d602d80600a3d3981f3363d3d373d3d3d363d7360601b81528260148201526e5af43d82803e903d91602b57fd5bf360881b6028820152816037826000f59350505061080a565b604051733d602d80600a3d3981f3363d3d373d3d3d363d7360601b81528160148201526e5af43d82803e903d91602b57fd5bf360881b60288201526037816000f09250505b6001600160a01b038281166000818152602081905260409081902080546001600160a01b031916938a16939093179092559051631377d1f560e21b8152634ddf47d490349061085f9089908990600401613f7c565b6000604051808303818588803b15801561087857600080fd5b505af115801561088c573d6000803e3d6000fd5b5050505050816001600160a01b0316866001600160a01b03167fd62166f3c2149208e51788b1401cc356bf5da1fc6c7886a32e18570f57d88b3b87876040516108d6929190613f7c565b60405180910390a350949350505050565b600080856001600160a01b038116331480159061092857506001600160a01b038116600090815260056020908152604080832033845290915290205460ff16155b1561099857336000908152602081905260409020546001600160a01b0316801580159061097a57506001600160a01b0380821660009081526005602090815260408083209386168352929052205460ff165b6109965760405162461bcd60e51b815260040161074a90614059565b505b6001600160a01b0386166109be5760405162461bcd60e51b815260040161074a9061419c565b6109c66133c1565b600289815481106109d357fe5b6000918252602080832060408051608081018252600390940290910180546001600160601b03811685526001600160a01b03600160601b9091048116938501939093526001810154909216908301526002015460608201529150610a3682612bdd565b905080610a7e5781516001600160601b0316610a7e57610a6282602001516001600160a01b0316612d10565b610a7e5760405162461bcd60e51b815260040161074a90614373565b85610aa65760008a815260046020526040812054610a9f9183908a90612d16565b9550610ac5565b60008a815260046020526040902054610ac29082886001612d81565b96505b60008a81526003602090815260408083206001600160a01b038c168452909152902054610af29087612dc9565b60008b81526003602090815260408083206001600160a01b038d1684528252808320939093558c8252600490522054610b2b9087612dc9565b60008b81526004602052604090205581516001600160601b0316610b89576040820151610b84908a906001600160a01b031615610b6c578360400151610b6e565b305b60208501516001600160a01b031691908a612dec565b610c32565b81516001600160601b031660021415610c325781602001516001600160a01b031663f242432a8a60006001600160a01b031685604001516001600160a01b031614610bd8578460400151610bda565b305b85606001518b6040518563ffffffff1660e01b8152600401610bff9493929190613ddf565b600060405180830381600087803b158015610c1957600080fd5b505af1158015610c2d573d6000803e3d6000fd5b505050505b876001600160a01b031660006001600160a01b0316336001600160a01b031660008051602061452b8339815191528d8a604051610c7092919061441c565b60405180910390a45094989397509295505050505050565b610c968888888888886121a7565b610ca8876001600160a01b0316612d10565b15610d625760405163bc197c8160e01b808252906001600160a01b0389169063bc197c8190610ce99033908d908c908c908c908c908c908c90600401613d10565b602060405180830381600087803b158015610d0357600080fd5b505af1158015610d17573d6000803e3d6000fd5b505050506040513d601f19601f82011682018060405250810190610d3b91906138af565b6001600160e01b03191614610d625760405162461bcd60e51b815260040161074a906141ca565b5050505050505050565b6000610d76612edd565b905090565b826001600160a01b0381163314801590610db957506001600160a01b038116600090815260056020908152604080832033845290915290205460ff16155b15610e2957336000908152602081905260409020546001600160a01b03168015801590610e0b57506001600160a01b0380821660009081526005602090815260408083209386168352929052205460ff165b610e275760405162461bcd60e51b815260040161074a90614059565b505b6001600160a01b038316610e4f5760405162461bcd60e51b815260040161074a9061419c565b60008581526003602090815260408083206001600160a01b0388168452909152902054610e7c9083612f3d565b60008681526003602090815260408083206001600160a01b038981168552925280832093909355851681522054610eb39083612dc9565b60008681526003602090815260408083206001600160a01b0380891680865291909352928190209390935591519091861690339060008051602061452b83398151915290610f04908a90889061441c565b60405180910390a45050505050565b600080856001600160a01b0381163314801590610f5457506001600160a01b038116600090815260056020908152604080832033845290915290205460ff16155b15610fc457336000908152602081905260409020546001600160a01b03168015801590610fa657506001600160a01b0380821660009081526005602090815260408083209386168352929052205460ff165b610fc25760405162461bcd60e51b815260040161074a90614059565b505b6001600160a01b038616610fea5760405162461bcd60e51b815260040161074a9061419c565b610ff26133c1565b60028981548110610fff57fe5b600091825260209182902060408051608081018252600390930290910180546001600160601b0381168085526001600160a01b03600160601b90920482169585019590955260018201541691830191909152600201546060820152915015801561109e57507f00000000000000000000000000000000000000000000000000000000000000006001600160a01b031681602001516001600160a01b0316145b6110ba5760405162461bcd60e51b815260040161074a906143d9565b60006110c582612bdd565b9050856110ef5760008a8152600460205260409020546110e89082896001612d16565b955061110e565b60008a81526004602052604081205461110b9183908990612d81565b96505b60008a81526003602090815260408083206001600160a01b038d16845290915290205461113b9087612f3d565b60008b81526003602090815260408083206001600160a01b038e1684528252808320939093558c82526004905220546111749087612f3d565b60008b81526004602052604090819020919091558201516001600160a01b031661129857604051632e1a7d4d60e01b81526001600160a01b037f00000000000000000000000000000000000000000000000000000000000000001690632e1a7d4d906111e4908a90600401613ef2565b600060405180830381600087803b1580156111fe57600080fd5b505af1158015611212573d6000803e3d6000fd5b505050506000886001600160a01b03168860405161122f90613cf9565b60006040518083038185875af1925050503d806000811461126c576040519150601f19603f3d011682016040523d82523d6000602084013e611271565b606091505b50509050806112925760405162461bcd60e51b815260040161074a906142d0565b506112fd565b81604001516001600160a01b03166336118b52888a6040518363ffffffff1660e01b81526004016112ca929190614405565b600060405180830381600087803b1580156112e457600080fd5b505af11580156112f8573d6000803e3d6000fd5b505050505b60006001600160a01b0316896001600160a01b0316336001600160a01b031660008051602061452b8339815191528d8a604051610c7092919061441c565b600083815260046020526040812054600280546113c892916113c1918890811061136157fe5b600091825260209182902060408051608081018252600390930290910180546001600160601b03811684526001600160a01b03600160601b9091048116948401949094526001810154909316908201526002909101546060820152612bdd565b8585612d81565b949350505050565b606083806001600160401b03811180156113e957600080fd5b50604051908082528060200260200182016040528015611413578160200160208202803683370190505b50915060005b818110156114a9576003600086868481811061143157fe5b905060200201358152602001908152602001600020600088888481811061145457fe5b9050602002016020810190611469919061346f565b6001600160a01b03166001600160a01b031681526020019081526020016000205483828151811061149657fe5b6020908102919091010152600101611419565b5050949350505050565b6000806001600160a01b0383166114dc5760405162461bcd60e51b815260040161074a90613ff2565b6114e46133c1565b600285815481106114f157fe5b600091825260209182902060408051608081018252600390930290910180546001600160601b0381168085526001600160a01b03600160601b90920482169585019590955260018201541691830191909152600201546060820152915015801561159057507f00000000000000000000000000000000000000000000000000000000000000006001600160a01b031681602001516001600160a01b0316145b6115ac5760405162461bcd60e51b815260040161074a906143d9565b6000858152600460205260408120543491906115d3906115cb85612bdd565b846000612d16565b60008881526003602090815260408083206001600160a01b038b1684529091529020549091506116039082612dc9565b60008881526003602090815260408083206001600160a01b038b16845282528083209390935589825260049052205461163c9082612dc9565b60046000898152602001908152602001600020819055507f00000000000000000000000000000000000000000000000000000000000000006001600160a01b031663d0e30db0836040518263ffffffff1660e01b81526004016000604051808303818588803b1580156116ae57600080fd5b505af11580156116c2573d6000803e3d6000fd5b5050505060408401516001600160a01b0316159050611715576040830151611715906001600160a01b037f0000000000000000000000000000000000000000000000000000000000000000169084612f60565b856001600160a01b031660006001600160a01b0316336001600160a01b031660008051602061452b8339815191528a8560405161175392919061441c565b60405180910390a490969095509350505050565b60405163d505accf60e01b81526001600160a01b0389169063d505accf9061179f908a908a908a908a908a908a908a90600401613e17565b600060405180830381600087803b1580156117b957600080fd5b505af11580156117cd573d6000803e3d6000fd5b505050505050505050505050565b60066020526000908152604090205481565b600360209081526000928352604080842090915290825290205481565b600080856001600160a01b038116331480159061184b57506001600160a01b038116600090815260056020908152604080832033845290915290205460ff16155b156118bb57336000908152602081905260409020546001600160a01b0316801580159061189d57506001600160a01b0380821660009081526005602090815260408083209386168352929052205460ff165b6118b95760405162461bcd60e51b815260040161074a90614059565b505b6001600160a01b0386166118e15760405162461bcd60e51b815260040161074a9061419c565b6118e96133c1565b600289815481106118f657fe5b6000918252602080832060408051608081018252600390940290910180546001600160601b03811685526001600160a01b03600160601b909104811693850193909352600181015490921690830152600201546060820152915061195982612bdd565b9050856119835760008a81526004602052604090205461197c9082896001612d16565b95506119a2565b60008a81526004602052604081205461199f9183908990612d81565b96505b60008a81526003602090815260408083206001600160a01b038d1684529091529020546119cf9087612f3d565b60008b81526003602090815260408083206001600160a01b038e1684528252808320939093558c8252600490522054611a089087612f3d565b60008b81526004602052604090819020919091558201516001600160a01b0316611adf5781516001600160601b0316611a59576020820151611a54906001600160a01b03168989612f60565b611ada565b81516001600160601b031660021415611ada5760208201516060830151604051637921219560e11b81526001600160a01b039092169163f242432a91611aa79130918d918d90600401613ddf565b600060405180830381600087803b158015611ac157600080fd5b505af1158015611ad5573d6000803e3d6000fd5b505050505b6112fd565b81604001516001600160a01b031662f714ce888a6040518363ffffffff1660e01b81526004016112ca929190614405565b600083815260046020526040812054600280546113c89291611b36918890811061136157fe5b8585612d16565b6001600160a01b038516611b635760405162461bcd60e51b815260040161074a906140f7565b6001600160a01b038681166000908152602081905260409020541615611b9b5760405162461bcd60e51b815260040161074a906141f6565b6001600160a01b038616611bc15760405162461bcd60e51b815260040161074a90614089565b6001600160a01b03861660009081526006602090815260408083208054600181019091559051611c3a92611c1f927ff7169c3866cb82146af82c4f7463af3a570ae6b4dcc70a39aa080c964fb285eb928c928c928c92909101613efb565b60405160208183030381529060405280519060200120613056565b9050600060018286868660405160008152602001604052604051611c619493929190613f49565b6020604051602081039080840390855afa158015611c83573d6000803e3d6000fd5b505050602060405103519050876001600160a01b0316816001600160a01b031614611cc05760405162461bcd60e51b815260040161074a90614165565b6001600160a01b038881166000818152600560209081526040808320948c168084529490915290819020805460ff19168a1515179055517f17307eab39ab6107e8899845ad3d59bd9653f200f220920489ca2b5937696c3190611d24908a90613ee7565b60405180910390a35050505050505050565b846001600160a01b0381163314801590611d7457506001600160a01b038116600090815260056020908152604080832033845290915290205460ff16155b15611de457336000908152602081905260409020546001600160a01b03168015801590611dc657506001600160a01b0380821660009081526005602090815260408083209386168352929052205460ff165b611de25760405162461bcd60e51b815260040161074a90614059565b505b600085858281611df057fe5b9050602002016020810190611e05919061346f565b6001600160a01b03161415611e2c5760405162461bcd60e51b815260040161074a90614299565b600084815b81811015611f22576000888883818110611e4757fe5b9050602002016020810190611e5c919061346f565b90506000878784818110611e6c57fe5b60008f81526003602090815260408083206001600160a01b0389168452825290912054910292909201359250611ea491905082612dc9565b60008d81526003602090815260408083206001600160a01b0387168452909152902055611ed18582612dc9565b9450816001600160a01b03168b6001600160a01b0316336001600160a01b031660008051602061452b8339815191528f85604051611f1092919061441c565b60405180910390a45050600101611e31565b5060008981526003602090815260408083206001600160a01b038c168452909152902054611f509083612f3d565b6000998a52600360209081526040808c206001600160a01b03909b168c52999052979098209690965550505050505050565b6001600160a01b038216611fa85760405162461bcd60e51b815260040161074a906140f7565b336000908152602081905260409020546001600160a01b031615611fde5760405162461bcd60e51b815260040161074a906141f6565b3360008181526005602090815260408083206001600160a01b038716808552925291829020805460ff191685151517905590519091907f17307eab39ab6107e8899845ad3d59bd9653f200f220920489ca2b5937696c3190612041908590613ee7565b60405180910390a35050565b6000602081905290815260409020546001600160a01b031681565b7fbc197c819b3e337a6f9652dd10becd7eef83032af3b9d958d3d42f669414662198975050505050505050565b600281815481106120a257fe5b60009182526020909120600390910201805460018201546002909201546001600160601b0382169350600160601b9091046001600160a01b0390811692169084565b60005b828110156121a157600060603086868581811061210057fe5b9050602002810190612112919061445a565b604051612120929190613c0b565b600060405180830381855af49150503d806000811461215b576040519150601f19603f3d011682016040523d82523d6000602084013e612160565b606091505b5091509150811580156121705750835b156121975761217e816130ab565b60405162461bcd60e51b815260040161074a9190613f90565b50506001016120e7565b50505050565b856001600160a01b03811633148015906121e557506001600160a01b038116600090815260056020908152604080832033845290915290205460ff16155b1561225557336000908152602081905260409020546001600160a01b0316801580159061223757506001600160a01b0380821660009081526005602090815260408083209386168352929052205460ff165b6122535760405162461bcd60e51b815260040161074a90614059565b505b6001600160a01b03861661227b5760405162461bcd60e51b815260040161074a9061419c565b8360005b818110156123b157600087878381811061229557fe5b90506020020135905060008686848181106122ac57fe5b9050602002013590506122fe816003600085815260200190815260200160002060008e6001600160a01b03166001600160a01b0316815260200190815260200160002054612f3d90919063ffffffff16565b6003600084815260200190815260200160002060008d6001600160a01b03166001600160a01b0316815260200190815260200160002081905550612381816003600085815260200190815260200160002060008d6001600160a01b03166001600160a01b0316815260200190815260200160002054612dc990919063ffffffff16565b60009283526003602090815260408085206001600160a01b038e168652909152909220919091555060010161227f565b50866001600160a01b0316886001600160a01b0316336001600160a01b03167f4a39dc06d4c0dbc64b70af90fd698a233a518aa5d07e595d983b8c0526c8f7fb898989896040516124059493929190613e71565b60405180910390a45050505050505050565b600081158061242e57506001600160601b03851615155b61244a5760405162461bcd60e51b815260040161074a9061433c565b6001600160a01b03831615806125e85750826001600160a01b0316635a3b7e426040518163ffffffff1660e01b815260040160206040518083038186803b15801561249457600080fd5b505afa1580156124a8573d6000803e3d6000fd5b505050506040513d601f19601f820116820180604052508101906124cc9190613b61565b6001600160601b0316856001600160601b031614801561256d5750826001600160a01b031663f6b4dfb46040518163ffffffff1660e01b815260040160206040518083038186803b15801561252057600080fd5b505afa158015612534573d6000803e3d6000fd5b505050506040513d601f19601f82011682018060405250810190612558919061348b565b6001600160a01b0316846001600160a01b0316145b80156125e85750826001600160a01b03166317d70f7c6040518163ffffffff1660e01b815260040160206040518083038186803b1580156125ad57600080fd5b505afa1580156125c1573d6000803e3d6000fd5b505050506040513d601f19601f820116820180604052508101906125e591906139ff565b82145b6126045760405162461bcd60e51b815260040161074a906140c0565b506001600160601b03841660009081526001602090815260408083206001600160a01b03808816855290835281842090861684528252808320848452909152902054806113c85750604080516080810182526001600160601b038087168083526001600160a01b038088166020808601828152898416878901818152606089018b8152600280546001818101835560008381529c5160039092027f405787fa12a823e0f2b7631cc41b3ba8828b3321ca811111fa75cd3aa3bb5ace8101805498518c16600160601b02938e166bffffffffffffffffffffffff1990991698909817909c169190911790955591517f405787fa12a823e0f2b7631cc41b3ba8828b3321ca811111fa75cd3aa3bb5acf8a018054919098166001600160a01b03199091161790965594517f405787fa12a823e0f2b7631cc41b3ba8828b3321ca811111fa75cd3aa3bb5ad09097019690965592549386529182528585209085528152848420928452918252838320858452909152919020819055949350505050565b600160209081526000948552604080862082529385528385208152918452828420909152825290205481565b600560209081526000928352604080842090915290825290205460ff1681565b7ff23a6e612e1ff4830e658fe43f4e3cb4a5f8170bd5d9e69fb5d7a7fa9e4fdf979695505050505050565b61280784878786610d7b565b612819856001600160a01b0316612d10565b156128cf5760405163f23a6e6160e01b808252906001600160a01b0387169063f23a6e61906128569033908b908a908a908a908a90600401613d74565b602060405180830381600087803b15801561287057600080fd5b505af1158015612884573d6000803e3d6000fd5b505050506040513d601f19601f820116820180604052508101906128a891906138af565b6001600160e01b031916146128cf5760405162461bcd60e51b815260040161074a906141ca565b505050505050565b60408051600481526024810182526020810180516001600160e01b03166306fdde0360e01b179052905160609160009183916001600160a01b0386169161291e9190613c1b565b600060405180830381855afa9150503d8060008114612959576040519150601f19603f3d011682016040523d82523d6000602084013e61295e565b606091505b50915091508161298957604051806040016040528060038152602001623f3f3f60e81b8152506113c8565b6113c88161310b565b60408051600481526024810182526020810180516001600160e01b03166395d89b4160e01b179052905160609160009183916001600160a01b0386169161291e9190613c1b565b60408051600481526024810182526020810180516001600160e01b031663313ce56760e01b179052905160009182916060916001600160a01b03861691612a209190613c1b565b600060405180830381855afa9150503d8060008114612a5b576040519150601f19603f3d011682016040523d82523d6000602084013e612a60565b606091505b5091509150818015612a73575080516020145b612a7e5760126113c8565b808060200190518101906113c89190613b45565b6060815160001415612ab3575060408051602081019091526000815261067a565b606060405180606001604052806040815260200161454b60409139905060006003845160020181612ae057fe5b0460040290506060816020016001600160401b0381118015612b0157600080fd5b506040519080825280601f01601f191660200182016040528015612b2c576020820181803683370190505b509050818152600183018586518101602084015b81831015612b98576003830192508251603f8160121c168501518253600182019150603f81600c1c168501518253600182019150603f8160061c168501518253600182019150603f8116850151825350600101612b40565b600389510660018114612bb25760028114612bc357612bcf565b613d3d60f01b600119830152612bcf565b603d60f81b6000198301525b509398975050505050505050565b60408101516000906001600160a01b0316612cbd5781516001600160601b0316612c20576020820151612c19906001600160a01b031630613269565b905061067a565b81516001600160601b031660021415612cb85781602001516001600160a01b031662fdd58e3084606001516040518363ffffffff1660e01b8152600401612c68929190613e58565b60206040518083038186803b158015612c8057600080fd5b505afa158015612c94573d6000803e3d6000fd5b505050506040513d601f19601f82011682018060405250810190612c1991906139ff565b61067a565b81604001516001600160a01b031663ce845d1d6040518163ffffffff1660e01b8152600401602060405180830381600087803b158015612cfc57600080fd5b505af1158015612c94573d6000803e3d6000fd5b3b151590565b6000612d23846001612dc9565b9350612d33856305f5e100612dc9565b945083612d408487613353565b81612d4757fe5b049050818015612d6857508285612d5e8387613353565b81612d6557fe5b04105b156113c857612d78816001612dc9565b95945050505050565b6000612d8e846001612dc9565b9350612d9e856305f5e100612dc9565b945083612dab8487613353565b81612db257fe5b049050818015612d6857508284612d5e8388613353565b818101818110156106255760405162461bcd60e51b815260040161074a9061412e565b60006060856001600160a01b03166323b872dd60e01b868686604051602401612e1793929190613dbb565b60408051601f198184030181529181526020820180516001600160e01b03166001600160e01b0319909416939093179092529051612e559190613c1b565b6000604051808303816000865af19150503d8060008114612e92576040519150601f19603f3d011682016040523d82523d6000602084013e612e97565b606091505b5091509150818015612ec1575080511580612ec1575080806020019051810190612ec19190613877565b6128cf5760405162461bcd60e51b815260040161074a90614307565b6000467f00000000000000000000000000000000000000000000000000000000000000008114612f1557612f108161338a565b612f37565b7f00000000000000000000000000000000000000000000000000000000000000005b91505090565b808203828111156106255760405162461bcd60e51b815260040161074a90613fc3565b60006060846001600160a01b031663a9059cbb60e01b8585604051602401612f89929190613e58565b60408051601f198184030181529181526020820180516001600160e01b03166001600160e01b0319909416939093179092529051612fc79190613c1b565b6000604051808303816000865af19150503d8060008114613004576040519150601f19603f3d011682016040523d82523d6000602084013e613009565b606091505b50915091508180156130335750805115806130335750808060200190518101906130339190613877565b61304f5760405162461bcd60e51b815260040161074a90614022565b5050505050565b600060405180604001604052806002815260200161190160f01b81525061307b612edd565b8360405160200161308e93929190613c37565b604051602081830303815290604052805190602001209050919050565b60606044825110156130f1575060408051808201909152601d81527f5472616e73616374696f6e2072657665727465642073696c656e746c79000000602082015261067a565b60048201915081806020019051810190610677919061394d565b6060604082511061312a5781806020019051810190612c19919061394d565b8151602014156132495760005b60208160ff161080156131665750828160ff168151811061315457fe5b01602001516001600160f81b03191615155b1561317357600101613137565b60608160ff166001600160401b038111801561318e57600080fd5b506040519080825280601f01601f1916602001820160405280156131b9576020820181803683370190505b509050600091505b60208260ff161080156131f05750838260ff16815181106131de57fe5b01602001516001600160f81b03191615155b1561324057838260ff168151811061320457fe5b602001015160f81c60f81b818360ff168151811061321e57fe5b60200101906001600160f81b031916908160001a9053506001909101906131c1565b915061067a9050565b506040805180820190915260038152623f3f3f60e81b602082015261067a565b6000806060846001600160a01b03166370a0823160e01b856040516024016132919190613cfc565b60408051601f198184030181529181526020820180516001600160e01b03166001600160e01b03199094169390931790925290516132cf9190613c1b565b600060405180830381855afa9150503d806000811461330a576040519150601f19603f3d011682016040523d82523d6000602084013e61330f565b606091505b509150915081801561332357506020815110155b61333f5760405162461bcd60e51b815260040161074a9061422d565b80806020019051810190612d7891906139ff565b600081158061336e5750508082028282828161336b57fe5b04145b6106255760405162461bcd60e51b815260040161074a906143a2565b60007f47e79534a245952e8b16893a336b85a3d9ea9fa8c573f3d803afb92a79469218823060405160200161308e93929190613f2a565b60408051608081018252600080825260208201819052918101829052606081019190915290565b60008083601f8401126133f9578182fd5b5081356001600160401b0381111561340f578182fd5b602083019150836020808302850101111561342957600080fd5b9250929050565b60008083601f840112613441578182fd5b5081356001600160401b03811115613457578182fd5b60208301915083602082850101111561342957600080fd5b600060208284031215613480578081fd5b8135610709816144ca565b60006020828403121561349c578081fd5b8151610709816144ca565b600080604083850312156134b9578081fd5b82356134c4816144ca565b915060208301356134d4816144ca565b809150509250929050565b600080600080600080608087890312156134f7578182fd5b8635613502816144ca565b95506020870135613512816144ca565b945060408701356001600160401b038082111561352d578384fd5b6135398a838b016133e8565b90965094506060890135915080821115613551578384fd5b5061355e89828a016133e8565b979a9699509497509295939492505050565b60008060008060008060008060a0898b03121561358b578182fd5b8835613596816144ca565b975060208901356135a6816144ca565b965060408901356001600160401b03808211156135c1578384fd5b6135cd8c838d016133e8565b909850965060608b01359150808211156135e5578384fd5b6135f18c838d016133e8565b909650945060808b0135915080821115613609578384fd5b506136168b828c01613430565b999c989b5096995094979396929594505050565b60008060008060008060c08789031215613642578182fd5b863561364d816144ca565b9550602087013561365d816144ca565b9450604087013561366d816144e2565b9350606087013561367d81614506565b9598949750929560808101359460a0909101359350915050565b60008060008060008060a087890312156136af578384fd5b86356136ba816144ca565b955060208701356136ca816144ca565b9450604087013593506060870135925060808701356001600160401b038111156136f2578283fd5b61355e89828a01613430565b60008060408385031215613710578182fd5b823561371b816144ca565b915060208301356134d4816144e2565b60008060008060608587031215613740578182fd5b843561374b816144ca565b935060208501356001600160401b03811115613765578283fd5b61377187828801613430565b9094509250506040850135613785816144e2565b939692955090935050565b600080604083850312156137a2578182fd5b82356137ad816144ca565b946020939093013593505050565b600080600080604085870312156137d0578182fd5b84356001600160401b03808211156137e6578384fd5b6137f2888389016133e8565b9096509450602087013591508082111561380a578384fd5b50613817878288016133e8565b95989497509550505050565b600080600060408486031215613837578081fd5b83356001600160401b0381111561384c578182fd5b613858868287016133e8565b909450925050602084013561386c816144e2565b809150509250925092565b600060208284031215613888578081fd5b8151610709816144e2565b6000602082840312156138a4578081fd5b8135610709816144f0565b6000602082840312156138c0578081fd5b8151610709816144f0565b600080600080600080600080610100898b0312156138e7578182fd5b88356138f2816144ca565b97506020890135613902816144ca565b96506040890135613912816144ca565b9550606089013594506080890135935060a089013561393081614506565b979a969950949793969295929450505060c08201359160e0013590565b60006020828403121561395e578081fd5b81516001600160401b0380821115613974578283fd5b818401915084601f830112613987578283fd5b815181811115613995578384fd5b604051601f8201601f1916810160200183811182821017156139b5578586fd5b6040528181528382016020018710156139cc578485fd5b6139dd82602083016020870161449e565b9695505050505050565b6000602082840312156139f8578081fd5b5035919050565b600060208284031215613a10578081fd5b5051919050565b60008060408385031215613a29578182fd5b8235915060208301356134d4816144ca565b60008060008060808587031215613a50578182fd5b843593506020850135613a62816144ca565b92506040850135613a72816144ca565b9396929550929360600135925050565b600080600080600060a08688031215613a99578283fd5b853594506020860135613aab816144ca565b93506040860135613abb816144ca565b94979396509394606081013594506080013592915050565b60008060008060008060808789031215613aeb578384fd5b863595506020870135613afd816144ca565b945060408701356001600160401b038082111561352d578586fd5b600080600060608486031215613b2c578081fd5b8335925060208401359150604084013561386c816144e2565b600060208284031215613b56578081fd5b815161070981614506565b600060208284031215613b72578081fd5b815161070981614515565b60008060008060808587031215613b92578182fd5b8435613b9d81614515565b93506020850135613a62816144ca565b81835260006001600160fb1b03831115613bc5578081fd5b6020830280836020870137939093016020019283525090919050565b60008284528282602086013780602084860101526020601f19601f85011685010190509392505050565b6000828483379101908152919050565b60008251613c2d81846020870161449e565b9190910192915050565b60008451613c4981846020890161449e565b91909101928352506020820152604001919050565b693d913730b6b2911d101160b11b81528351600090613c8481600a85016020890161449e565b6d1116101139bcb6b137b6111d101160911b600a918401918201528451613cb281601884016020890161449e565b6e0111610113232b1b4b6b0b639911d1608d1b6018929091019182015260f89390931b6001600160f81b03191660278401525050607d60f81b602882015260290192915050565b90565b6001600160a01b0391909116815260200190565b6001600160a01b0389811682528816602082015260a060408201819052600090613d3d908301888a613bad565b8281036060840152613d50818789613bad565b90508281036080840152613d65818587613be1565b9b9a5050505050505050505050565b6001600160a01b03878116825286166020820152604081018590526060810184905260a060808201819052600090613daf9083018486613be1565b98975050505050505050565b6001600160a01b039384168152919092166020820152604081019190915260600190565b6001600160a01b0394851681529290931660208301526040820152606081019190915260a06080820181905260009082015260c00190565b6001600160a01b0397881681529590961660208601526040850193909352606084019190915260ff16608083015260a082015260c081019190915260e00190565b6001600160a01b03929092168252602082015260400190565b600060408252613e85604083018688613bad565b8281036020840152613e98818587613bad565b979650505050505050565b6020808252825182820181905260009190848201906040850190845b81811015613edb57835183529284019291840191600101613ebf565b50909695505050505050565b901515815260200190565b90815260200190565b9485526001600160a01b0393841660208601529190921660408401529015156060830152608082015260a00190565b92835260208301919091526001600160a01b0316604082015260600190565b93845260ff9290921660208401526040830152606082015260800190565b6001600160e01b031991909116815260200190565b6000602082526113c8602083018486613be1565b6000602082528251806020840152613faf81604085016020870161449e565b601f01601f19169190910160400192915050565b602080825260159082015274426f72696e674d6174683a20556e646572666c6f7760581b604082015260600190565b602080825260169082015275165a595b19109bde0e8809dd1bc9c81b9bdd081cd95d60521b604082015260600190565b6020808252601c908201527f426f72696e6745524332303a205472616e73666572206661696c656400000000604082015260600190565b602080825260169082015275165a595b19109bde0e88139bdd08185c1c1c9bdd995960521b604082015260600190565b6020808252601a908201527f5969656c64426f783a20557365722063616e6e6f742062652030000000000000604082015260600190565b6020808252601b908201527f5969656c64426f783a205374726174656779206d69736d617463680000000000604082015260600190565b6020808252601a908201527f5969656c64426f783a206f70657261746f72206e6f7420736574000000000000604082015260600190565b60208082526018908201527f426f72696e674d6174683a20416464204f766572666c6f770000000000000000604082015260600190565b6020808252601b908201527f5969656c64426f783a20496e76616c6964205369676e61747572650000000000604082015260600190565b602080825260149082015273165a595b19109bde0e881d1bc81b9bdd081cd95d60621b604082015260600190565b60208082526012908201527157726f6e672072657475726e2076616c756560701b604082015260600190565b60208082526017908201527f5969656c64426f783a207573657220697320636c6f6e65000000000000000000604082015260600190565b6020808252601d908201527f426f72696e6745524332303a2042616c616e63654f66206661696c6564000000604082015260600190565b6020808252818101527f426f72696e67466163746f72793a204e6f206d6173746572436f6e7472616374604082015260600190565b60208082526018908201527f5969656c64426f783a20746f735b305d206e6f74207365740000000000000000604082015260600190565b6020808252601d908201527f5969656c64426f783a20455448207472616e73666572206661696c6564000000604082015260600190565b6020808252818101527f426f72696e6745524332303a205472616e7366657246726f6d206661696c6564604082015260600190565b6020808252601e908201527f5969656c64426f783a204e6f20746f6b656e496420666f722045524332300000604082015260600190565b6020808252601590820152742cb4b2b6322137bc1d102737ba1030903a37b5b2b760591b604082015260600190565b60208082526018908201527f426f72696e674d6174683a204d756c204f766572666c6f770000000000000000604082015260600190565b6020808252601290820152710b2d2cad8c884def07440dcdee840ae8aa8960731b604082015260600190565b9182526001600160a01b0316602082015260400190565b918252602082015260400190565b6001600160601b039490941684526001600160a01b03928316602085015291166040830152606082015260800190565b6000808335601e19843603018112614470578283fd5b8301803591506001600160401b03821115614489578283fd5b60200191503681900382131561342957600080fd5b60005b838110156144b95781810151838201526020016144a1565b838111156121a15750506000910152565b6001600160a01b03811681146144df57600080fd5b50565b80151581146144df57600080fd5b6001600160e01b0319811681146144df57600080fd5b60ff811681146144df57600080fd5b6001600160601b03811681146144df57600080fdfec3d58168c5ae7397731d063d5bbf3d657854427343f4c083240f7aacaa2d0f624142434445464748494a4b4c4d4e4f505152535455565758595a6162636465666768696a6b6c6d6e6f707172737475767778797a303132333435363738392b2fa26469706673582212200c4124d7b2591443eacad033db1c3465d4d047359305f07b4170ff0abee8b69564736f6c634300060c0033",
  "devdoc": {
    "author": "BoringCrypto, Keno",
    "kind": "dev",
    "methods": {
      "batch(bytes[],bool)": {
        "params": {
          "calls": "An array of inputs for each call.",
          "revertOnFail": "If True then reverts after a failed call and stops doing further calls."
        }
      },
      "deploy(address,bytes,bool)": {
        "params": {
          "data": "Additional abi encoded calldata that is passed to the new clone via `IMasterContract.init`.",
          "masterContract": "The address of the contract to clone.",
          "useCreate2": "Creates the clone by using the CREATE2 opcode, in this case `data` will be used as salt."
        },
        "returns": {
          "cloneAddress": "Address of the created clone contract."
        }
      },
      "deposit(uint256,address,address,uint256,uint256)": {
        "params": {
          "amount": "Token amount in native representation to deposit.",
          "assetId": "The id of the asset.",
          "from": "which account to pull the tokens.",
          "share": "Token amount represented in shares to deposit. Takes precedence over `amount`.",
          "to": "which account to push the tokens."
        },
        "returns": {
          "amountOut": "The amount deposited.",
          "shareOut": "The deposited amount repesented in shares."
        }
      },
      "toAmount(uint256,uint256,bool)": {
        "details": "Helper function represent shares back into the `token` amount.",
        "params": {
          "assetId": "The id of the asset.",
          "roundUp": "If the result should be rounded up.",
          "share": "The amount of shares."
        },
        "returns": {
          "amount": "The share amount back into native representation."
        }
      },
      "toShare(uint256,uint256,bool)": {
        "details": "Helper function to represent an `amount` of `token` in shares.",
        "params": {
          "amount": "The `token` amount.",
          "assetId": "The id of the asset.",
          "roundUp": "If the result `share` should be rounded up."
        },
        "returns": {
          "share": "The token amount represented in shares."
        }
      },
      "transfer(uint256,address,address,uint256)": {
        "params": {
          "assetId": "The id of the asset.",
          "from": "which user to pull the tokens.",
          "share": "The amount of `token` in shares.",
          "to": "which user to push the tokens."
        }
      },
      "transferMultiple(uint256,address,address[],uint256[])": {
        "params": {
          "assetId": "The id of the asset.",
          "from": "which user to pull the tokens.",
          "share": "The amount of `token` in shares for each receiver in `tos`.",
          "tos": "The receivers of the tokens."
        }
      },
      "withdraw(uint256,address,address,uint256,uint256)": {
        "params": {
          "amount": "of tokens. Either one of `amount` or `share` needs to be supplied.",
          "assetId": "The id of the asset.",
          "from": "which user to pull the tokens.",
          "share": "Like above, but `share` takes precedence over `amount`.",
          "to": "which user to push the tokens."
        }
      }
    },
    "title": "YieldBox",
    "version": 1
  },
  "userdoc": {
    "kind": "user",
    "methods": {
      "batch(bytes[],bool)": {
        "notice": "Allows batched call to self (this contract)."
      },
      "deploy(address,bytes,bool)": {
        "notice": "Deploys a given master Contract as a clone. Any ETH transferred with this call is forwarded to the new clone. Emits `LogDeploy`."
      },
      "deposit(uint256,address,address,uint256,uint256)": {
        "notice": "Deposit an amount of `token` represented in either `amount` or `share`."
      },
      "masterContractOf(address)": {
        "notice": "Mapping from clone contracts to their masterContract."
      },
      "nonces(address)": {
        "notice": "user nonces for masterContract approvals"
      },
      "permitToken(address,address,address,uint256,uint256,uint8,bytes32,bytes32)": {
        "notice": "Call wrapper that performs `ERC20.permit` on `token`. Lookup `IERC20.permit`."
      },
      "safeTransferFrom(address,address,uint256,uint256,bytes)": {
        "notice": "The following safeTransfer functions are purely here to be EIP-1155 compliant. Using these in your protocol is NOT recommended as it opens up many attack vectors, such as reentrancy issues and denial of service?"
      },
      "transfer(uint256,address,address,uint256)": {
        "notice": "Transfer shares from a user account to another one."
      },
      "transferMultiple(uint256,address,address[],uint256[])": {
        "notice": "Transfer shares from a user account to multiple other ones."
      },
      "withdraw(uint256,address,address,uint256,uint256)": {
        "notice": "Withdraws an amount of `token` from a user account."
      }
    },
    "notice": "The YieldBox is a vault for tokens. The stored tokens can assigned to strategies. Yield from this will go to the token depositors. Any funds transfered directly onto the YieldBox will be lost, use the deposit function instead.",
    "version": 1
  },
  "storageLayout": {
    "storage": [
      {
        "astId": 130,
        "contract": "contracts/YieldBox.sol:YieldBox",
        "label": "masterContractOf",
        "offset": 0,
        "slot": "0",
        "type": "t_mapping(t_address,t_address)"
      },
      {
        "astId": 1628,
        "contract": "contracts/YieldBox.sol:YieldBox",
        "label": "ids",
        "offset": 0,
        "slot": "1",
        "type": "t_mapping(t_uint96,t_mapping(t_address,t_mapping(t_contract(IStrategy)3664,t_mapping(t_uint256,t_uint256))))"
      },
      {
        "astId": 1631,
        "contract": "contracts/YieldBox.sol:YieldBox",
        "label": "assets",
        "offset": 0,
        "slot": "2",
        "type": "t_array(t_struct(Asset)1546_storage)dyn_storage"
      },
      {
        "astId": 1637,
        "contract": "contracts/YieldBox.sol:YieldBox",
        "label": "shares",
        "offset": 0,
        "slot": "3",
        "type": "t_mapping(t_uint256,t_mapping(t_address,t_uint256))"
      },
      {
        "astId": 1641,
        "contract": "contracts/YieldBox.sol:YieldBox",
        "label": "totalShares",
        "offset": 0,
        "slot": "4",
        "type": "t_mapping(t_uint256,t_uint256)"
      },
      {
        "astId": 1647,
        "contract": "contracts/YieldBox.sol:YieldBox",
        "label": "isApprovedForAll",
        "offset": 0,
        "slot": "5",
        "type": "t_mapping(t_address,t_mapping(t_address,t_bool))"
      },
      {
        "astId": 3245,
        "contract": "contracts/YieldBox.sol:YieldBox",
        "label": "nonces",
        "offset": 0,
        "slot": "6",
        "type": "t_mapping(t_address,t_uint256)"
      }
    ],
    "types": {
      "t_address": {
        "encoding": "inplace",
        "label": "address",
        "numberOfBytes": "20"
      },
      "t_array(t_struct(Asset)1546_storage)dyn_storage": {
        "base": "t_struct(Asset)1546_storage",
        "encoding": "dynamic_array",
        "label": "struct Asset[]",
        "numberOfBytes": "32"
      },
      "t_bool": {
        "encoding": "inplace",
        "label": "bool",
        "numberOfBytes": "1"
      },
      "t_contract(IStrategy)3664": {
        "encoding": "inplace",
        "label": "contract IStrategy",
        "numberOfBytes": "20"
      },
      "t_mapping(t_address,t_address)": {
        "encoding": "mapping",
        "key": "t_address",
        "label": "mapping(address => address)",
        "numberOfBytes": "32",
        "value": "t_address"
      },
      "t_mapping(t_address,t_bool)": {
        "encoding": "mapping",
        "key": "t_address",
        "label": "mapping(address => bool)",
        "numberOfBytes": "32",
        "value": "t_bool"
      },
      "t_mapping(t_address,t_mapping(t_address,t_bool))": {
        "encoding": "mapping",
        "key": "t_address",
        "label": "mapping(address => mapping(address => bool))",
        "numberOfBytes": "32",
        "value": "t_mapping(t_address,t_bool)"
      },
      "t_mapping(t_address,t_mapping(t_contract(IStrategy)3664,t_mapping(t_uint256,t_uint256)))": {
        "encoding": "mapping",
        "key": "t_address",
        "label": "mapping(address => mapping(contract IStrategy => mapping(uint256 => uint256)))",
        "numberOfBytes": "32",
        "value": "t_mapping(t_contract(IStrategy)3664,t_mapping(t_uint256,t_uint256))"
      },
      "t_mapping(t_address,t_uint256)": {
        "encoding": "mapping",
        "key": "t_address",
        "label": "mapping(address => uint256)",
        "numberOfBytes": "32",
        "value": "t_uint256"
      },
      "t_mapping(t_contract(IStrategy)3664,t_mapping(t_uint256,t_uint256))": {
        "encoding": "mapping",
        "key": "t_contract(IStrategy)3664",
        "label": "mapping(contract IStrategy => mapping(uint256 => uint256))",
        "numberOfBytes": "32",
        "value": "t_mapping(t_uint256,t_uint256)"
      },
      "t_mapping(t_uint256,t_mapping(t_address,t_uint256))": {
        "encoding": "mapping",
        "key": "t_uint256",
        "label": "mapping(uint256 => mapping(address => uint256))",
        "numberOfBytes": "32",
        "value": "t_mapping(t_address,t_uint256)"
      },
      "t_mapping(t_uint256,t_uint256)": {
        "encoding": "mapping",
        "key": "t_uint256",
        "label": "mapping(uint256 => uint256)",
        "numberOfBytes": "32",
        "value": "t_uint256"
      },
      "t_mapping(t_uint96,t_mapping(t_address,t_mapping(t_contract(IStrategy)3664,t_mapping(t_uint256,t_uint256))))": {
        "encoding": "mapping",
        "key": "t_uint96",
        "label": "mapping(uint96 => mapping(address => mapping(contract IStrategy => mapping(uint256 => uint256))))",
        "numberOfBytes": "32",
        "value": "t_mapping(t_address,t_mapping(t_contract(IStrategy)3664,t_mapping(t_uint256,t_uint256)))"
      },
      "t_struct(Asset)1546_storage": {
        "encoding": "inplace",
        "label": "struct Asset",
        "members": [
          {
            "astId": 1539,
            "contract": "contracts/YieldBox.sol:YieldBox",
            "label": "standard",
            "offset": 0,
            "slot": "0",
            "type": "t_uint96"
          },
          {
            "astId": 1541,
            "contract": "contracts/YieldBox.sol:YieldBox",
            "label": "contractAddress",
            "offset": 12,
            "slot": "0",
            "type": "t_address"
          },
          {
            "astId": 1543,
            "contract": "contracts/YieldBox.sol:YieldBox",
            "label": "strategy",
            "offset": 0,
            "slot": "1",
            "type": "t_contract(IStrategy)3664"
          },
          {
            "astId": 1545,
            "contract": "contracts/YieldBox.sol:YieldBox",
            "label": "tokenId",
            "offset": 0,
            "slot": "2",
            "type": "t_uint256"
          }
        ],
        "numberOfBytes": "96"
      },
      "t_uint256": {
        "encoding": "inplace",
        "label": "uint256",
        "numberOfBytes": "32"
      },
      "t_uint96": {
        "encoding": "inplace",
        "label": "uint96",
        "numberOfBytes": "12"
      }
    }
  }
}