{
  "address": "0x05Aa229Aec102f78CE0E852A812a388F076Aa555",
  "abi": [
    {
      "inputs": [
        {
          "internalType": "contract IWrappedNative",
          "name": "wrappedNative_",
          "type": "address"
        },
        {
          "internalType": "contract YieldBoxURIBuilder",
          "name": "uriBuilder_",
          "type": "address"
        }
      ],
      "stateMutability": "nonpayable",
      "type": "constructor"
    },
    {
      "anonymous": false,
      "inputs": [
        {
          "indexed": true,
          "internalType": "address",
          "name": "_owner",
          "type": "address"
        },
        {
          "indexed": true,
          "internalType": "address",
          "name": "_operator",
          "type": "address"
        },
        {
          "indexed": false,
          "internalType": "bool",
          "name": "_approved",
          "type": "bool"
        }
      ],
      "name": "ApprovalForAll",
      "type": "event"
    },
    {
      "anonymous": false,
      "inputs": [
        {
          "indexed": true,
          "internalType": "address",
          "name": "masterContract",
          "type": "address"
        },
        {
          "indexed": false,
          "internalType": "bytes",
          "name": "data",
          "type": "bytes"
        },
        {
          "indexed": true,
          "internalType": "address",
          "name": "cloneAddress",
          "type": "address"
        }
      ],
      "name": "LogDeploy",
      "type": "event"
    },
    {
      "anonymous": false,
      "inputs": [
        {
          "indexed": true,
          "internalType": "uint256",
          "name": "tokenId",
          "type": "uint256"
        },
        {
          "indexed": true,
          "internalType": "address",
          "name": "previousOwner",
          "type": "address"
        },
        {
          "indexed": true,
          "internalType": "address",
          "name": "newOwner",
          "type": "address"
        }
      ],
      "name": "OwnershipTransferred",
      "type": "event"
    },
    {
      "anonymous": false,
      "inputs": [
        {
          "indexed": true,
          "internalType": "address",
          "name": "_operator",
          "type": "address"
        },
        {
          "indexed": true,
          "internalType": "address",
          "name": "_from",
          "type": "address"
        },
        {
          "indexed": true,
          "internalType": "address",
          "name": "_to",
          "type": "address"
        },
        {
          "indexed": false,
          "internalType": "uint256[]",
          "name": "_ids",
          "type": "uint256[]"
        },
        {
          "indexed": false,
          "internalType": "uint256[]",
          "name": "_values",
          "type": "uint256[]"
        }
      ],
      "name": "TransferBatch",
      "type": "event"
    },
    {
      "anonymous": false,
      "inputs": [
        {
          "indexed": true,
          "internalType": "address",
          "name": "_operator",
          "type": "address"
        },
        {
          "indexed": true,
          "internalType": "address",
          "name": "_from",
          "type": "address"
        },
        {
          "indexed": true,
          "internalType": "address",
          "name": "_to",
          "type": "address"
        },
        {
          "indexed": false,
          "internalType": "uint256",
          "name": "_id",
          "type": "uint256"
        },
        {
          "indexed": false,
          "internalType": "uint256",
          "name": "_value",
          "type": "uint256"
        }
      ],
      "name": "TransferSingle",
      "type": "event"
    },
    {
      "anonymous": false,
      "inputs": [
        {
          "indexed": false,
          "internalType": "string",
          "name": "_value",
          "type": "string"
        },
        {
          "indexed": true,
          "internalType": "uint256",
          "name": "_id",
          "type": "uint256"
        }
      ],
      "name": "URI",
      "type": "event"
    },
    {
      "inputs": [],
      "name": "DOMAIN_SEPARATOR",
      "outputs": [
        {
          "internalType": "bytes32",
          "name": "",
          "type": "bytes32"
        }
      ],
      "stateMutability": "view",
      "type": "function"
    },
    {
      "inputs": [
        {
          "internalType": "uint256",
          "name": "",
          "type": "uint256"
        }
      ],
      "name": "assets",
      "outputs": [
        {
          "internalType": "enum TokenType",
          "name": "tokenType",
          "type": "uint8"
        },
        {
          "internalType": "address",
          "name": "contractAddress",
          "type": "address"
        },
        {
          "internalType": "contract IStrategy",
          "name": "strategy",
          "type": "address"
        },
        {
          "internalType": "uint256",
          "name": "tokenId",
          "type": "uint256"
        }
      ],
      "stateMutability": "view",
      "type": "function"
    },
    {
      "inputs": [
        {
          "internalType": "address",
          "name": "",
          "type": "address"
        },
        {
          "internalType": "uint256",
          "name": "",
          "type": "uint256"
        }
      ],
      "name": "balanceOf",
      "outputs": [
        {
          "internalType": "uint256",
          "name": "",
          "type": "uint256"
        }
      ],
      "stateMutability": "view",
      "type": "function"
    },
    {
      "inputs": [
        {
          "internalType": "address[]",
          "name": "owners",
          "type": "address[]"
        },
        {
          "internalType": "uint256[]",
          "name": "ids",
          "type": "uint256[]"
        }
      ],
      "name": "balanceOfBatch",
      "outputs": [
        {
          "internalType": "uint256[]",
          "name": "balances",
          "type": "uint256[]"
        }
      ],
      "stateMutability": "view",
      "type": "function"
    },
    {
      "inputs": [
        {
          "internalType": "bytes[]",
          "name": "calls",
          "type": "bytes[]"
        },
        {
          "internalType": "bool",
          "name": "revertOnFail",
          "type": "bool"
        }
      ],
      "name": "batch",
      "outputs": [],
      "stateMutability": "payable",
      "type": "function"
    },
    {
      "inputs": [
        {
          "internalType": "address",
          "name": "from",
          "type": "address"
        },
        {
          "internalType": "address",
          "name": "to",
          "type": "address"
        },
        {
          "internalType": "uint256[]",
          "name": "assetIds_",
          "type": "uint256[]"
        },
        {
          "internalType": "uint256[]",
          "name": "shares_",
          "type": "uint256[]"
        }
      ],
      "name": "batchTransfer",
      "outputs": [],
      "stateMutability": "nonpayable",
      "type": "function"
    },
    {
      "inputs": [
        {
          "internalType": "uint256",
          "name": "tokenId",
          "type": "uint256"
        },
        {
          "internalType": "uint256",
          "name": "amount",
          "type": "uint256"
        }
      ],
      "name": "burn",
      "outputs": [],
      "stateMutability": "nonpayable",
      "type": "function"
    },
    {
      "inputs": [
        {
          "internalType": "uint256",
          "name": "tokenId",
          "type": "uint256"
        }
      ],
      "name": "claimOwnership",
      "outputs": [],
      "stateMutability": "nonpayable",
      "type": "function"
    },
    {
      "inputs": [
        {
          "internalType": "address",
          "name": "",
          "type": "address"
        },
        {
          "internalType": "uint256",
          "name": "",
          "type": "uint256"
        }
      ],
      "name": "clonesOf",
      "outputs": [
        {
          "internalType": "address",
          "name": "",
          "type": "address"
        }
      ],
      "stateMutability": "view",
      "type": "function"
    },
    {
      "inputs": [
        {
          "internalType": "address",
          "name": "masterContract",
          "type": "address"
        }
      ],
      "name": "clonesOfCount",
      "outputs": [
        {
          "internalType": "uint256",
          "name": "cloneCount",
          "type": "uint256"
        }
      ],
      "stateMutability": "view",
      "type": "function"
    },
    {
      "inputs": [
        {
          "internalType": "string",
          "name": "name",
          "type": "string"
        },
        {
          "internalType": "string",
          "name": "symbol",
          "type": "string"
        },
        {
          "internalType": "uint8",
          "name": "decimals",
          "type": "uint8"
        }
      ],
      "name": "createToken",
      "outputs": [],
      "stateMutability": "nonpayable",
      "type": "function"
    },
    {
      "inputs": [
        {
          "internalType": "address",
          "name": "masterContract",
          "type": "address"
        },
        {
          "internalType": "bytes",
          "name": "data",
          "type": "bytes"
        },
        {
          "internalType": "bool",
          "name": "useCreate2",
          "type": "bool"
        }
      ],
      "name": "deploy",
      "outputs": [
        {
          "internalType": "address",
          "name": "cloneAddress",
          "type": "address"
        }
      ],
      "stateMutability": "payable",
      "type": "function"
    },
    {
      "inputs": [
        {
          "internalType": "enum TokenType",
          "name": "tokenType",
          "type": "uint8"
        },
        {
          "internalType": "address",
          "name": "contractAddress",
          "type": "address"
        },
        {
          "internalType": "contract IStrategy",
          "name": "strategy",
          "type": "address"
        },
        {
          "internalType": "uint256",
          "name": "tokenId",
          "type": "uint256"
        },
        {
          "internalType": "address",
          "name": "from",
          "type": "address"
        },
        {
          "internalType": "address",
          "name": "to",
          "type": "address"
        },
        {
          "internalType": "uint256",
          "name": "amount",
          "type": "uint256"
        },
        {
          "internalType": "uint256",
          "name": "share",
          "type": "uint256"
        }
      ],
      "name": "deposit",
      "outputs": [
        {
          "internalType": "uint256",
          "name": "amountOut",
          "type": "uint256"
        },
        {
          "internalType": "uint256",
          "name": "shareOut",
          "type": "uint256"
        }
      ],
      "stateMutability": "nonpayable",
      "type": "function"
    },
    {
      "inputs": [
        {
          "internalType": "uint256",
          "name": "assetId",
          "type": "uint256"
        },
        {
          "internalType": "address",
          "name": "from",
          "type": "address"
        },
        {
          "internalType": "address",
          "name": "to",
          "type": "address"
        },
        {
          "internalType": "uint256",
          "name": "amount",
          "type": "uint256"
        },
        {
          "internalType": "uint256",
          "name": "share",
          "type": "uint256"
        }
      ],
      "name": "depositAsset",
      "outputs": [
        {
          "internalType": "uint256",
          "name": "amountOut",
          "type": "uint256"
        },
        {
          "internalType": "uint256",
          "name": "shareOut",
          "type": "uint256"
        }
      ],
      "stateMutability": "nonpayable",
      "type": "function"
    },
    {
      "inputs": [
        {
          "internalType": "contract IStrategy",
          "name": "strategy",
          "type": "address"
        },
        {
          "internalType": "address",
          "name": "to",
          "type": "address"
        }
      ],
      "name": "depositETH",
      "outputs": [
        {
          "internalType": "uint256",
          "name": "amountOut",
          "type": "uint256"
        },
        {
          "internalType": "uint256",
          "name": "shareOut",
          "type": "uint256"
        }
      ],
      "stateMutability": "payable",
      "type": "function"
    },
    {
      "inputs": [
        {
          "internalType": "uint256",
          "name": "assetId",
          "type": "uint256"
        },
        {
          "internalType": "address",
          "name": "to",
          "type": "address"
        }
      ],
      "name": "depositETHAsset",
      "outputs": [
        {
          "internalType": "uint256",
          "name": "amountOut",
          "type": "uint256"
        },
        {
          "internalType": "uint256",
          "name": "shareOut",
          "type": "uint256"
        }
      ],
      "stateMutability": "payable",
      "type": "function"
    },
    {
      "inputs": [
        {
          "internalType": "enum TokenType",
          "name": "",
          "type": "uint8"
        },
        {
          "internalType": "address",
          "name": "",
          "type": "address"
        },
        {
          "internalType": "contract IStrategy",
          "name": "",
          "type": "address"
        },
        {
          "internalType": "uint256",
          "name": "",
          "type": "uint256"
        }
      ],
      "name": "ids",
      "outputs": [
        {
          "internalType": "uint256",
          "name": "",
          "type": "uint256"
        }
      ],
      "stateMutability": "view",
      "type": "function"
    },
    {
      "inputs": [
        {
          "internalType": "address",
          "name": "",
          "type": "address"
        },
        {
          "internalType": "address",
          "name": "",
          "type": "address"
        }
      ],
      "name": "isApprovedForAll",
      "outputs": [
        {
          "internalType": "bool",
          "name": "",
          "type": "bool"
        }
      ],
      "stateMutability": "view",
      "type": "function"
    },
    {
      "inputs": [
        {
          "internalType": "address",
          "name": "",
          "type": "address"
        }
      ],
      "name": "masterContractOf",
      "outputs": [
        {
          "internalType": "address",
          "name": "",
          "type": "address"
        }
      ],
      "stateMutability": "view",
      "type": "function"
    },
    {
      "inputs": [
        {
          "internalType": "uint256",
          "name": "tokenId",
          "type": "uint256"
        },
        {
          "internalType": "address",
          "name": "to",
          "type": "address"
        },
        {
          "internalType": "uint256",
          "name": "amount",
          "type": "uint256"
        }
      ],
      "name": "mint",
      "outputs": [],
      "stateMutability": "nonpayable",
      "type": "function"
    },
    {
      "inputs": [
        {
          "internalType": "uint256",
          "name": "",
          "type": "uint256"
        }
      ],
      "name": "nativeTokens",
      "outputs": [
        {
          "internalType": "string",
          "name": "name",
          "type": "string"
        },
        {
          "internalType": "string",
          "name": "symbol",
          "type": "string"
        },
        {
          "internalType": "uint8",
          "name": "decimals",
          "type": "uint8"
        }
      ],
      "stateMutability": "view",
      "type": "function"
    },
    {
      "inputs": [
        {
          "internalType": "address",
          "name": "",
          "type": "address"
        }
      ],
      "name": "nonces",
      "outputs": [
        {
          "internalType": "uint256",
          "name": "",
          "type": "uint256"
        }
      ],
      "stateMutability": "view",
      "type": "function"
    },
    {
      "inputs": [
        {
          "internalType": "address",
          "name": "",
          "type": "address"
        },
        {
          "internalType": "address",
          "name": "",
          "type": "address"
        },
        {
          "internalType": "uint256[]",
          "name": "",
          "type": "uint256[]"
        },
        {
          "internalType": "uint256[]",
          "name": "",
          "type": "uint256[]"
        },
        {
          "internalType": "bytes",
          "name": "",
          "type": "bytes"
        }
      ],
      "name": "onERC1155BatchReceived",
      "outputs": [
        {
          "internalType": "bytes4",
          "name": "",
          "type": "bytes4"
        }
      ],
      "stateMutability": "pure",
      "type": "function"
    },
    {
      "inputs": [
        {
          "internalType": "address",
          "name": "",
          "type": "address"
        },
        {
          "internalType": "address",
          "name": "",
          "type": "address"
        },
        {
          "internalType": "uint256",
          "name": "",
          "type": "uint256"
        },
        {
          "internalType": "uint256",
          "name": "",
          "type": "uint256"
        },
        {
          "internalType": "bytes",
          "name": "",
          "type": "bytes"
        }
      ],
      "name": "onERC1155Received",
      "outputs": [
        {
          "internalType": "bytes4",
          "name": "",
          "type": "bytes4"
        }
      ],
      "stateMutability": "pure",
      "type": "function"
    },
    {
      "inputs": [
        {
          "internalType": "uint256",
          "name": "",
          "type": "uint256"
        }
      ],
      "name": "owner",
      "outputs": [
        {
          "internalType": "address",
          "name": "",
          "type": "address"
        }
      ],
      "stateMutability": "view",
      "type": "function"
    },
    {
      "inputs": [
        {
          "internalType": "uint256",
          "name": "",
          "type": "uint256"
        }
      ],
      "name": "pendingOwner",
      "outputs": [
        {
          "internalType": "address",
          "name": "",
          "type": "address"
        }
      ],
      "stateMutability": "view",
      "type": "function"
    },
    {
      "inputs": [
        {
          "internalType": "contract IERC20",
          "name": "token",
          "type": "address"
        },
        {
          "internalType": "address",
          "name": "from",
          "type": "address"
        },
        {
          "internalType": "address",
          "name": "to",
          "type": "address"
        },
        {
          "internalType": "uint256",
          "name": "amount",
          "type": "uint256"
        },
        {
          "internalType": "uint256",
          "name": "deadline",
          "type": "uint256"
        },
        {
          "internalType": "uint8",
          "name": "v",
          "type": "uint8"
        },
        {
          "internalType": "bytes32",
          "name": "r",
          "type": "bytes32"
        },
        {
          "internalType": "bytes32",
          "name": "s",
          "type": "bytes32"
        }
      ],
      "name": "permitToken",
      "outputs": [],
      "stateMutability": "nonpayable",
      "type": "function"
    },
    {
      "inputs": [
        {
          "internalType": "enum TokenType",
          "name": "tokenType",
          "type": "uint8"
        },
        {
          "internalType": "address",
          "name": "contractAddress",
          "type": "address"
        },
        {
          "internalType": "contract IStrategy",
          "name": "strategy",
          "type": "address"
        },
        {
          "internalType": "uint256",
          "name": "tokenId",
          "type": "uint256"
        }
      ],
      "name": "registerAsset",
      "outputs": [
        {
          "internalType": "uint256",
          "name": "assetId",
          "type": "uint256"
        }
      ],
      "stateMutability": "nonpayable",
      "type": "function"
    },
    {
      "inputs": [
        {
          "internalType": "address",
          "name": "from",
          "type": "address"
        },
        {
          "internalType": "address",
          "name": "to",
          "type": "address"
        },
        {
          "internalType": "uint256[]",
          "name": "ids",
          "type": "uint256[]"
        },
        {
          "internalType": "uint256[]",
          "name": "values",
          "type": "uint256[]"
        },
        {
          "internalType": "bytes",
          "name": "data",
          "type": "bytes"
        }
      ],
      "name": "safeBatchTransferFrom",
      "outputs": [],
      "stateMutability": "nonpayable",
      "type": "function"
    },
    {
      "inputs": [
        {
          "internalType": "address",
          "name": "from",
          "type": "address"
        },
        {
          "internalType": "address",
          "name": "to",
          "type": "address"
        },
        {
          "internalType": "uint256",
          "name": "id",
          "type": "uint256"
        },
        {
          "internalType": "uint256",
          "name": "value",
          "type": "uint256"
        },
        {
          "internalType": "bytes",
          "name": "data",
          "type": "bytes"
        }
      ],
      "name": "safeTransferFrom",
      "outputs": [],
      "stateMutability": "nonpayable",
      "type": "function"
    },
    {
      "inputs": [
        {
          "internalType": "address",
          "name": "operator",
          "type": "address"
        },
        {
          "internalType": "bool",
          "name": "approved",
          "type": "bool"
        }
      ],
      "name": "setApprovalForAll",
      "outputs": [],
      "stateMutability": "nonpayable",
      "type": "function"
    },
    {
      "inputs": [
        {
          "internalType": "address",
          "name": "user",
          "type": "address"
        },
        {
          "internalType": "address",
          "name": "operator",
          "type": "address"
        },
        {
          "internalType": "bool",
          "name": "approved",
          "type": "bool"
        },
        {
          "internalType": "uint8",
          "name": "v",
          "type": "uint8"
        },
        {
          "internalType": "bytes32",
          "name": "r",
          "type": "bytes32"
        },
        {
          "internalType": "bytes32",
          "name": "s",
          "type": "bytes32"
        }
      ],
      "name": "setApprovalForAllWithPermit",
      "outputs": [],
      "stateMutability": "nonpayable",
      "type": "function"
    },
    {
      "inputs": [
        {
          "internalType": "bytes4",
          "name": "interfaceID",
          "type": "bytes4"
        }
      ],
      "name": "supportsInterface",
      "outputs": [
        {
          "internalType": "bool",
          "name": "",
          "type": "bool"
        }
      ],
      "stateMutability": "pure",
      "type": "function"
    },
    {
      "inputs": [
        {
          "internalType": "uint256",
          "name": "assetId",
          "type": "uint256"
        },
        {
          "internalType": "uint256",
          "name": "share",
          "type": "uint256"
        },
        {
          "internalType": "bool",
          "name": "roundUp",
          "type": "bool"
        }
      ],
      "name": "toAmount",
      "outputs": [
        {
          "internalType": "uint256",
          "name": "amount",
          "type": "uint256"
        }
      ],
      "stateMutability": "view",
      "type": "function"
    },
    {
      "inputs": [
        {
          "internalType": "uint256",
          "name": "assetId",
          "type": "uint256"
        },
        {
          "internalType": "uint256",
          "name": "amount",
          "type": "uint256"
        },
        {
          "internalType": "bool",
          "name": "roundUp",
          "type": "bool"
        }
      ],
      "name": "toShare",
      "outputs": [
        {
          "internalType": "uint256",
          "name": "share",
          "type": "uint256"
        }
      ],
      "stateMutability": "view",
      "type": "function"
    },
    {
      "inputs": [
        {
          "internalType": "uint256",
          "name": "",
          "type": "uint256"
        }
      ],
      "name": "totalSupply",
      "outputs": [
        {
          "internalType": "uint256",
          "name": "",
          "type": "uint256"
        }
      ],
      "stateMutability": "view",
      "type": "function"
    },
    {
      "inputs": [
        {
          "internalType": "address",
          "name": "from",
          "type": "address"
        },
        {
          "internalType": "address",
          "name": "to",
          "type": "address"
        },
        {
          "internalType": "uint256",
          "name": "assetId",
          "type": "uint256"
        },
        {
          "internalType": "uint256",
          "name": "share",
          "type": "uint256"
        }
      ],
      "name": "transfer",
      "outputs": [],
      "stateMutability": "nonpayable",
      "type": "function"
    },
    {
      "inputs": [
        {
          "internalType": "uint256",
          "name": "assetId",
          "type": "uint256"
        },
        {
          "internalType": "address",
          "name": "from",
          "type": "address"
        },
        {
          "internalType": "address[]",
          "name": "tos",
          "type": "address[]"
        },
        {
          "internalType": "uint256[]",
          "name": "share",
          "type": "uint256[]"
        }
      ],
      "name": "transferMultiple",
      "outputs": [],
      "stateMutability": "nonpayable",
      "type": "function"
    },
    {
      "inputs": [
        {
          "internalType": "uint256",
          "name": "tokenId",
          "type": "uint256"
        },
        {
          "internalType": "address",
          "name": "newOwner",
          "type": "address"
        },
        {
          "internalType": "bool",
          "name": "direct",
          "type": "bool"
        },
        {
          "internalType": "bool",
          "name": "renounce",
          "type": "bool"
        }
      ],
      "name": "transferOwnership",
      "outputs": [],
      "stateMutability": "nonpayable",
      "type": "function"
    },
    {
      "inputs": [
        {
          "internalType": "uint256",
          "name": "assetId",
          "type": "uint256"
        }
      ],
      "name": "uri",
      "outputs": [
        {
          "internalType": "string",
          "name": "",
          "type": "string"
        }
      ],
      "stateMutability": "view",
      "type": "function"
    },
    {
      "inputs": [
        {
          "internalType": "uint256",
          "name": "assetId",
          "type": "uint256"
        },
        {
          "internalType": "address",
          "name": "from",
          "type": "address"
        },
        {
          "internalType": "address",
          "name": "to",
          "type": "address"
        },
        {
          "internalType": "uint256",
          "name": "amount",
          "type": "uint256"
        },
        {
          "internalType": "uint256",
          "name": "share",
          "type": "uint256"
        }
      ],
      "name": "withdraw",
      "outputs": [
        {
          "internalType": "uint256",
          "name": "amountOut",
          "type": "uint256"
        },
        {
          "internalType": "uint256",
          "name": "shareOut",
          "type": "uint256"
        }
      ],
      "stateMutability": "nonpayable",
      "type": "function"
    },
    {
      "stateMutability": "payable",
      "type": "receive"
    }
  ],
  "transactionHash": "0x81c9b9b3770f5654d94566f0039186773f92923efc709bf387c45990ed8c6d2b",
  "args": [
    "0xc02aaa39b223fe8d0a0e5c4f27ead9083c756cc2",
    "0x1275D096B9DBf2347bD2a131Fb6BDaB0B4882487"
  ],
  "solcInputHash": "3f0cc3676075e930032e41a15cd7c98a",
  "bytecode": "0x6101006040523480156200001257600080fd5b5060405162005bcf38038062005bcf8339810160408190526200003591620001f5565b4660a08190526200009981604080517f47e79534a245952e8b16893a336b85a3d9ea9fa8c573f3d803afb92a794692186020820152908101829052306060820152600090608001604051602081830303815290604052805190602001209050919050565b60809081526040805191820181526001808352600060208401819052918301829052606083018290526006805480830182559252825160039092027ff652222313e28459528d920b65115c16c04f3efc82aaedc97be59f3f377c0d3f01805493945092839160ff19909116908360028111156200011a576200011a62000234565b021790555060208201518154610100600160a81b0319166101006001600160a01b03928316021782556040808401516001840180546001600160a01b03191691841691909117905560609093015160029092019190915583811660c052815163530bca7760e11b815291519083169163a61794ee91600480830192600092919082900301818387803b158015620001b057600080fd5b505af1158015620001c5573d6000803e3d6000fd5b505050506001600160a01b031660e052506200024a565b6001600160a01b0381168114620001f257600080fd5b50565b600080604083850312156200020957600080fd5b82516200021681620001dc565b60208401519092506200022981620001dc565b809150509250929050565b634e487b7160e01b600052602160045260246000fd5b60805160a05160c05160e05161592f620002a06000396000610e2a015260008181610c4401528181610d41015281816118f501528181611c9d0152611d10015260006141c3015260006141f8015261592f6000f3fe6080604052600436106102c95760003560e01c80638eb22cdd11610179578063bc197c81116100d6578063daf210b11161008a578063f23a6e6111610064578063f23a6e6114610924578063f242432a1461096a578063fba96be81461098a57600080fd5b8063daf210b1146108a9578063e8a0aed3146108c9578063e985e9c5146108e957600080fd5b8063ce7f2714116100bb578063ce7f271414610846578063cf35bdd014610866578063d2423b511461089657600080fd5b8063bc197c81146107a0578063bd85b0391461081957600080fd5b8063a123c33e1161012d578063b061db9411610112578063b061db941461071d578063b390c0ab1461073d578063bafe4f141461075d57600080fd5b8063a123c33e146106ba578063a22cb465146106fd57600080fd5b80638fd436541161015e5780638fd436541461065a5780639a9af97a1461067a5780639f1b8f591461069a57600080fd5b80638eb22cdd1461061a5780638faa6eba1461063a57600080fd5b80633644e51511610227578063734029bf116101db5780637ecebe00116101c05780637ecebe00146105ad578063836a1040146105da5780638d2e63b8146105fa57600080fd5b8063734029bf1461057a5780637c516e941461058d57600080fd5b80634e1273f41161020c5780634e1273f41461050d5780635ba4d64e1461053a5780636cd570311461055a57600080fd5b80633644e515146104d8578063442c1599146104ed57600080fd5b80631f0ee4c31161027e5780632b800e3b116102635780632b800e3b1461042e5780632d4e1d52146104715780632eb2c2d6146104b857600080fd5b80631f0ee4c3146103c75780631f54245b146103f657600080fd5b80630411b252116102af5780630411b25214610350578063070af5e3146103725780630e89341c1461039a57600080fd5b8062fdd58e146102d557806301ffc9a71461032057600080fd5b366102d057005b600080fd5b3480156102e157600080fd5b5061030d6102f0366004614938565b600360209081526000928352604080842090915290825290205481565b6040519081526020015b60405180910390f35b34801561032c57600080fd5b5061034061033b366004614992565b6109cd565b6040519015158152602001610317565b34801561035c57600080fd5b5061037061036b3660046149b6565b610ab2565b005b6103856103803660046149fc565b610bf6565b60408051928352602083019190915201610317565b3480156103a657600080fd5b506103ba6103b5366004614a2c565b610df8565b6040516103179190614abb565b3480156103d357600080fd5b506103e76103e2366004614a2c565b610edb565b60405161031793929190614ace565b610409610404366004614b57565b611010565b60405173ffffffffffffffffffffffffffffffffffffffff9091168152602001610317565b34801561043a57600080fd5b50610409610449366004614a2c565b60096020526000908152604090205473ffffffffffffffffffffffffffffffffffffffff1681565b34801561047d57600080fd5b5061030d61048c366004614bcc565b600560209081526000948552604080862082529385528385208152918452828420909152825290205481565b3480156104c457600080fd5b506103706104d3366004614c62565b6112ca565b3480156104e457600080fd5b5061030d6114ae565b3480156104f957600080fd5b5061030d610508366004614d21565b6114bd565b34801561051957600080fd5b5061052d610528366004614d5a565b61150d565b6040516103179190614dc6565b34801561054657600080fd5b50610370610555366004614e0a565b611691565b34801561056657600080fd5b50610385610575366004614e52565b6118bc565b610385610588366004614ede565b6118e8565b34801561059957600080fd5b506103706105a8366004614f1d565b61192d565b3480156105b957600080fd5b5061030d6105c8366004614f9e565b600a6020526000908152604090205481565b3480156105e657600080fd5b506103706105f5366004614fbb565b6119e5565b34801561060657600080fd5b50610385610615366004614ff3565b611a85565b34801561062657600080fd5b5061030d610635366004614d21565b611f40565b34801561064657600080fd5b50610370610655366004615045565b611f75565b34801561066657600080fd5b50610409610675366004614938565b612350565b34801561068657600080fd5b50610385610695366004614ff3565b612395565b3480156106a657600080fd5b506103706106b53660046150b1565b6126e3565b3480156106c657600080fd5b506104096106d5366004614a2c565b60086020526000908152604090205473ffffffffffffffffffffffffffffffffffffffff1681565b34801561070957600080fd5b5061037061071836600461513d565b612a68565b34801561072957600080fd5b5061030d610738366004614bcc565b612c09565b34801561074957600080fd5b5061037061075836600461516b565b6131be565b34801561076957600080fd5b50610409610778366004614f9e565b60006020819052908152604090205473ffffffffffffffffffffffffffffffffffffffff1681565b3480156107ac57600080fd5b506107e86107bb366004614c62565b7fbc197c810000000000000000000000000000000000000000000000000000000098975050505050505050565b6040517fffffffff000000000000000000000000000000000000000000000000000000009091168152602001610317565b34801561082557600080fd5b5061030d610834366004614a2c565b60046020526000908152604090205481565b34801561085257600080fd5b50610370610861366004614a2c565b61326e565b34801561087257600080fd5b50610886610881366004614a2c565b6133b3565b60405161031794939291906151bc565b6103706108a4366004615227565b61340a565b3480156108b557600080fd5b506103706108c4366004615273565b6134f1565b3480156108d557600080fd5b506103706108e43660046152a7565b613634565b3480156108f557600080fd5b50610340610904366004614ede565b600260209081526000928352604080842090915290825290205460ff1681565b34801561093057600080fd5b506107e861093f366004615328565b7ff23a6e61000000000000000000000000000000000000000000000000000000009695505050505050565b34801561097657600080fd5b50610370610985366004615328565b6137a8565b34801561099657600080fd5b5061030d6109a5366004614f9e565b73ffffffffffffffffffffffffffffffffffffffff1660009081526001602052604090205490565b60007fffffffff0000000000000000000000000000000000000000000000000000000082167f01ffc9a7000000000000000000000000000000000000000000000000000000001480610a6057507fd9b67a26000000000000000000000000000000000000000000000000000000007fffffffff000000000000000000000000000000000000000000000000000000008316145b80610aac57507f0e89341c000000000000000000000000000000000000000000000000000000007fffffffff000000000000000000000000000000000000000000000000000000008316145b92915050565b8373ffffffffffffffffffffffffffffffffffffffff81163314801590610b0a575073ffffffffffffffffffffffffffffffffffffffff8116600090815260026020908152604080832033845290915290205460ff16155b15610be3573360009081526020819052604090205473ffffffffffffffffffffffffffffffffffffffff168015801590610b76575073ffffffffffffffffffffffffffffffffffffffff80821660009081526002602090815260408083209386168352929052205460ff165b610be1576040517f08c379a000000000000000000000000000000000000000000000000000000000815260206004820152601660248201527f5969656c64426f783a204e6f7420617070726f7665640000000000000000000060448201526064015b60405180910390fd5b505b610bef8585858561391b565b5050505050565b600080600060068581548110610c0e57610c0e615392565b6000918252602090912060039091020190506001815460ff166002811115610c3857610c3861518d565b148015610c84575080547f000000000000000000000000000000000000000000000000000000000000000073ffffffffffffffffffffffffffffffffffffffff90811661010090920416145b610cea576040517f08c379a000000000000000000000000000000000000000000000000000000000815260206004820152601260248201527f5969656c64426f783a206e6f74205745544800000000000000000000000000006044820152606401610bd8565b600085815260046020526040812054349190610d1390610d0985613a80565b8491906000613c23565b9050610d20868883613c93565b600183015473ffffffffffffffffffffffffffffffffffffffff16610dc5577f000000000000000000000000000000000000000000000000000000000000000073ffffffffffffffffffffffffffffffffffffffff1663d0e30db0836040518263ffffffff1660e01b81526004016000604051808303818588803b158015610da757600080fd5b505af1158015610dbb573d6000803e3d6000fd5b5050505050610dea565b6001830154610dea9073ffffffffffffffffffffffffffffffffffffffff1683613dd4565b9093509150505b9250929050565b6040517f0e89341c000000000000000000000000000000000000000000000000000000008152600481018290526060907f000000000000000000000000000000000000000000000000000000000000000073ffffffffffffffffffffffffffffffffffffffff1690630e89341c9060240160006040518083038186803b158015610e8157600080fd5b505afa158015610e95573d6000803e3d6000fd5b505050506040513d6000823e601f3d9081017fffffffffffffffffffffffffffffffffffffffffffffffffffffffffffffffe0168201604052610aac91908101906153f0565b600760205260009081526040902080548190610ef6906154bb565b80601f0160208091040260200160405190810160405280929190818152602001828054610f22906154bb565b8015610f6f5780601f10610f4457610100808354040283529160200191610f6f565b820191906000526020600020905b815481529060010190602001808311610f5257829003601f168201915b505050505090806001018054610f84906154bb565b80601f0160208091040260200160405190810160405280929190818152602001828054610fb0906154bb565b8015610ffd5780601f10610fd257610100808354040283529160200191610ffd565b820191906000526020600020905b815481529060010190602001808311610fe057829003601f168201915b5050506002909301549192505060ff1683565b600073ffffffffffffffffffffffffffffffffffffffff851661108f576040517f08c379a000000000000000000000000000000000000000000000000000000000815260206004820181905260248201527f426f72696e67466163746f72793a204e6f206d6173746572436f6e74726163746044820152606401610bd8565b606085901b821561111857600085856040516110ac92919061550f565b604051809103902090506040517f3d602d80600a3d3981f3363d3d373d3d3d363d7300000000000000000000000081528260148201527f5af43d82803e903d91602b57fd5bf300000000000000000000000000000000006028820152816037826000f593505050611174565b6040517f3d602d80600a3d3981f3363d3d373d3d3d363d7300000000000000000000000081528160148201527f5af43d82803e903d91602b57fd5bf3000000000000000000000000000000000060288201526037816000f09250505b73ffffffffffffffffffffffffffffffffffffffff8083166000818152602081815260408083208054958c167fffffffffffffffffffffffff000000000000000000000000000000000000000096871681179091558352600180835281842080549182018155845291909220018054909316821790925590517f4ddf47d4000000000000000000000000000000000000000000000000000000008152634ddf47d49034906112289089908990600401615568565b6000604051808303818588803b15801561124157600080fd5b505af1158015611255573d6000803e3d6000fd5b50505050508173ffffffffffffffffffffffffffffffffffffffff168673ffffffffffffffffffffffffffffffffffffffff167fd62166f3c2149208e51788b1401cc356bf5da1fc6c7886a32e18570f57d88b3b87876040516112b9929190615568565b60405180910390a350949350505050565b848314611333576040517f08c379a000000000000000000000000000000000000000000000000000000000815260206004820152601860248201527f455243313135353a204c656e677468206d69736d6174636800000000000000006044820152606401610bd8565b61133c88613ea3565b61134a888888888888613fcd565b73ffffffffffffffffffffffffffffffffffffffff87163b156114a4576040517fbc197c81000000000000000000000000000000000000000000000000000000008082529073ffffffffffffffffffffffffffffffffffffffff89169063bc197c81906113c99033908d908c908c908c908c908c908c906004016155cb565b602060405180830381600087803b1580156113e357600080fd5b505af11580156113f7573d6000803e3d6000fd5b505050506040513d601f19601f8201168201806040525081019061141b919061563c565b7fffffffff0000000000000000000000000000000000000000000000000000000016146114a4576040517f08c379a000000000000000000000000000000000000000000000000000000000815260206004820152601260248201527f57726f6e672072657475726e2076616c756500000000000000000000000000006044820152606401610bd8565b5050505050505050565b60006114b86141be565b905090565b6000838152600460205260408120546006805461150592916114fc91889081106114e9576114e9615392565b9060005260206000209060030201613a80565b8591908561421e565b949350505050565b606083828114611579576040517f08c379a000000000000000000000000000000000000000000000000000000000815260206004820152601860248201527f455243313135353a204c656e677468206d69736d6174636800000000000000006044820152606401610bd8565b8067ffffffffffffffff811115611592576115926153c1565b6040519080825280602002602001820160405280156115bb578160200160208202803683370190505b50915060005b8181101561168757600360008888848181106115df576115df615392565b90506020020160208101906115f49190614f9e565b73ffffffffffffffffffffffffffffffffffffffff1673ffffffffffffffffffffffffffffffffffffffff168152602001908152602001600020600086868481811061164257611642615392565b9050602002013581526020019081526020016000205483828151811061166a5761166a615392565b60209081029190910101528061167f81615688565b9150506115c1565b5050949350505050565b600084815260086020526040902054849073ffffffffffffffffffffffffffffffffffffffff163314611720576040517f08c379a000000000000000000000000000000000000000000000000000000000815260206004820152601c60248201527f4e54463a2063616c6c6572206973206e6f7420746865206f776e6572000000006044820152606401610bd8565b82156118675773ffffffffffffffffffffffffffffffffffffffff84161515806117475750815b6117ad576040517f08c379a000000000000000000000000000000000000000000000000000000000815260206004820152601160248201527f4e54463a207a65726f20616464726573730000000000000000000000000000006044820152606401610bd8565b60008581526008602052604080822054905173ffffffffffffffffffffffffffffffffffffffff8088169392169188917f16b85f49bf01212961345d3016c9a531894accf62eb7680f2045d79185cc0ec09190a46000858152600860209081526040808320805473ffffffffffffffffffffffffffffffffffffffff89167fffffffffffffffffffffffff000000000000000000000000000000000000000091821617909155600990925290912080549091169055610bef565b6000858152600960205260409020805473ffffffffffffffffffffffffffffffffffffffff86167fffffffffffffffffffffffff00000000000000000000000000000000000000009091161790555050505050565b6000806118d76118ce8b8b8b8b612c09565b87878787612395565b915091509850989650505050505050565b60008061192261191c60017f0000000000000000000000000000000000000000000000000000000000000000876000612c09565b84610bf6565b915091509250929050565b6040517fd505accf00000000000000000000000000000000000000000000000000000000815273ffffffffffffffffffffffffffffffffffffffff88811660048301528781166024830152604482018790526064820186905260ff8516608483015260a4820184905260c4820183905289169063d505accf9060e401600060405180830381600087803b1580156119c357600080fd5b505af11580156119d7573d6000803e3d6000fd5b505050505050505050505050565b600083815260086020526040902054839073ffffffffffffffffffffffffffffffffffffffff163314611a74576040517f08c379a000000000000000000000000000000000000000000000000000000000815260206004820152601c60248201527f4e54463a2063616c6c6572206973206e6f7420746865206f776e6572000000006044820152606401610bd8565b611a7f838584613c93565b50505050565b6000808573ffffffffffffffffffffffffffffffffffffffff81163314801590611ae0575073ffffffffffffffffffffffffffffffffffffffff8116600090815260026020908152604080832033845290915290205460ff16155b15611bb4573360009081526020819052604090205473ffffffffffffffffffffffffffffffffffffffff168015801590611b4c575073ffffffffffffffffffffffffffffffffffffffff80821660009081526002602090815260408083209386168352929052205460ff165b611bb2576040517f08c379a000000000000000000000000000000000000000000000000000000000815260206004820152601660248201527f5969656c64426f783a204e6f7420617070726f766564000000000000000000006044820152606401610bd8565b505b600060068981548110611bc957611bc9615392565b6000918252602082206003909102019150815460ff166002811115611bf057611bf061518d565b1415611bfb57600080fd5b6000611c0682613a80565b905085611c315760008a815260046020526040902054611c2a908890836001613c23565b9550611c51565b60008a815260046020526040812054611c4e91889190849061421e565b96505b611c5c898b88614269565b600182015473ffffffffffffffffffffffffffffffffffffffff16611ea2576001825460ff166002811115611c9357611c9361518d565b1415611dcf5781547f000000000000000000000000000000000000000000000000000000000000000073ffffffffffffffffffffffffffffffffffffffff908116610100909204161415611da7576040517f2e1a7d4d000000000000000000000000000000000000000000000000000000008152600481018890527f000000000000000000000000000000000000000000000000000000000000000073ffffffffffffffffffffffffffffffffffffffff1690632e1a7d4d90602401600060405180830381600087803b158015611d6957600080fd5b505af1158015611d7d573d6000803e3d6000fd5b50611da29250505073ffffffffffffffffffffffffffffffffffffffff891688613dd4565b611f30565b8154611da290610100900473ffffffffffffffffffffffffffffffffffffffff168989614324565b6002825460ff166002811115611de757611de761518d565b1415611da257815460028301546040517ff242432a00000000000000000000000000000000000000000000000000000000815230600482015273ffffffffffffffffffffffffffffffffffffffff8b811660248301526044820192909252606481018a905260a06084820152600060a4820152610100909204169063f242432a9060c401600060405180830381600087803b158015611e8557600080fd5b505af1158015611e99573d6000803e3d6000fd5b50505050611f30565b60018201546040517ef714ce0000000000000000000000000000000000000000000000000000000081526004810189905273ffffffffffffffffffffffffffffffffffffffff8a811660248301529091169062f714ce906044015b600060405180830381600087803b158015611f1757600080fd5b505af1158015611f2b573d6000803e3d6000fd5b505050505b5094989397509295505050505050565b600083815260046020526040812054600680546115059291611f6c91889081106114e9576114e9615392565b85919085613c23565b73ffffffffffffffffffffffffffffffffffffffff8516611ff2576040517f08c379a000000000000000000000000000000000000000000000000000000000815260206004820152601a60248201527f5969656c64426f783a206f70657261746f72206e6f74207365740000000000006044820152606401610bd8565b73ffffffffffffffffffffffffffffffffffffffff8681166000908152602081905260409020541615612081576040517f08c379a000000000000000000000000000000000000000000000000000000000815260206004820152601760248201527f5969656c64426f783a207573657220697320636c6f6e650000000000000000006044820152606401610bd8565b73ffffffffffffffffffffffffffffffffffffffff86166120fe576040517f08c379a000000000000000000000000000000000000000000000000000000000815260206004820152601a60248201527f5969656c64426f783a20557365722063616e6e6f7420626520300000000000006044820152606401610bd8565b73ffffffffffffffffffffffffffffffffffffffff86166000908152600a6020526040812080546121ba917ff7169c3866cb82146af82c4f7463af3a570ae6b4dcc70a39aa080c964fb285eb918a918a918a918761215b83615688565b9091555060408051602081019690965273ffffffffffffffffffffffffffffffffffffffff948516908601529290911660608401521515608083015260a082015260c0016040516020818303038152906040528051906020012061448d565b6040805160008082526020820180845284905260ff88169282019290925260608101869052608081018590529192509060019060a0016020604051602081039080840390855afa158015612212573d6000803e3d6000fd5b5050506020604051035190508773ffffffffffffffffffffffffffffffffffffffff168173ffffffffffffffffffffffffffffffffffffffff16146122b3576040517f08c379a000000000000000000000000000000000000000000000000000000000815260206004820152601b60248201527f5969656c64426f783a20496e76616c6964205369676e617475726500000000006044820152606401610bd8565b73ffffffffffffffffffffffffffffffffffffffff8881166000818152600260209081526040808320948c168084529482529182902080547fffffffffffffffffffffffffffffffffffffffffffffffffffffffffffffff00168b151590811790915591519182527f17307eab39ab6107e8899845ad3d59bd9653f200f220920489ca2b5937696c31910160405180910390a35050505050505050565b6001602052816000526040600020818154811061236c57600080fd5b60009182526020909120015473ffffffffffffffffffffffffffffffffffffffff169150829050565b6000808573ffffffffffffffffffffffffffffffffffffffff811633148015906123f0575073ffffffffffffffffffffffffffffffffffffffff8116600090815260026020908152604080832033845290915290205460ff16155b156124c4573360009081526020819052604090205473ffffffffffffffffffffffffffffffffffffffff16801580159061245c575073ffffffffffffffffffffffffffffffffffffffff80821660009081526002602090815260408083209386168352929052205460ff165b6124c2576040517f08c379a000000000000000000000000000000000000000000000000000000000815260206004820152601660248201527f5969656c64426f783a204e6f7420617070726f766564000000000000000000006044820152606401610bd8565b505b6000600689815481106124d9576124d9615392565b6000918252602082206003909102019150815460ff1660028111156125005761250061518d565b141561250b57600080fd5b600061251682613a80565b9050856125415760008a81526004602052604081205461253a918991908490613c23565b9550612561565b60008a81526004602052604090205461255e90879083600161421e565b96505b61256c888b88613c93565b6001825460ff1660028111156125845761258461518d565b14156125f7576001820154611da2908a9073ffffffffffffffffffffffffffffffffffffffff16156125d057600184015473ffffffffffffffffffffffffffffffffffffffff166125d2565b305b8454610100900473ffffffffffffffffffffffffffffffffffffffff1691908a6144fd565b6002825460ff16600281111561260f5761260f61518d565b1415611f30578154600183015473ffffffffffffffffffffffffffffffffffffffff61010090920482169163f242432a918c91161561266857600185015473ffffffffffffffffffffffffffffffffffffffff1661266a565b305b60028601546040517fffffffff0000000000000000000000000000000000000000000000000000000060e086901b16815273ffffffffffffffffffffffffffffffffffffffff93841660048201529290911660248301526044820152606481018a905260a06084820152600060a482015260c401611efd565b8473ffffffffffffffffffffffffffffffffffffffff8116331480159061273b575073ffffffffffffffffffffffffffffffffffffffff8116600090815260026020908152604080832033845290915290205460ff16155b1561280f573360009081526020819052604090205473ffffffffffffffffffffffffffffffffffffffff1680158015906127a7575073ffffffffffffffffffffffffffffffffffffffff80821660009081526002602090815260408083209386168352929052205460ff165b61280d576040517f08c379a000000000000000000000000000000000000000000000000000000000815260206004820152601660248201527f5969656c64426f783a204e6f7420617070726f766564000000000000000000006044820152606401610bd8565b505b60008585828161282157612821615392565b90506020020160208101906128369190614f9e565b73ffffffffffffffffffffffffffffffffffffffff1614156128b4576040517f08c379a000000000000000000000000000000000000000000000000000000000815260206004820152601860248201527f5969656c64426f783a20746f735b305d206e6f742073657400000000000000006044820152606401610bd8565b600084815b81811015612a175760008888838181106128d5576128d5615392565b90506020020160208101906128ea9190614f9e565b9050600087878481811061290057612900615392565b90506020020135905080600360008473ffffffffffffffffffffffffffffffffffffffff1673ffffffffffffffffffffffffffffffffffffffff16815260200190815260200160002060008e8152602001908152602001600020600082825461296991906156c1565b90915550612979905081866156c1565b94508173ffffffffffffffffffffffffffffffffffffffff168b73ffffffffffffffffffffffffffffffffffffffff163373ffffffffffffffffffffffffffffffffffffffff167fc3d58168c5ae7397731d063d5bbf3d657854427343f4c083240f7aacaa2d0f628f856040516129fa929190918252602082015260400190565b60405180910390a450508080612a0f90615688565b9150506128b9565b5073ffffffffffffffffffffffffffffffffffffffff881660009081526003602090815260408083208c845290915281208054849290612a589084906156d9565b9091555050505050505050505050565b73ffffffffffffffffffffffffffffffffffffffff8216612ae5576040517f08c379a000000000000000000000000000000000000000000000000000000000815260206004820152601a60248201527f5969656c64426f783a206f70657261746f72206e6f74207365740000000000006044820152606401610bd8565b3360009081526020819052604090205473ffffffffffffffffffffffffffffffffffffffff1615612b72576040517f08c379a000000000000000000000000000000000000000000000000000000000815260206004820152601760248201527f5969656c64426f783a207573657220697320636c6f6e650000000000000000006044820152606401610bd8565b33600081815260026020908152604080832073ffffffffffffffffffffffffffffffffffffffff87168085529083529281902080547fffffffffffffffffffffffffffffffffffffffffffffffffffffffffffffff001686151590811790915590519081529192917f17307eab39ab6107e8899845ad3d59bd9653f200f220920489ca2b5937696c31910160405180910390a35050565b600060056000866002811115612c2157612c2161518d565b6002811115612c3257612c3261518d565b81526020808201929092526040908101600090812073ffffffffffffffffffffffffffffffffffffffff80891683529084528282209087168252835281812085825290925290205490508061150557811580612ca057506001856002811115612c9d57612c9d61518d565b14155b612d06576040517f08c379a000000000000000000000000000000000000000000000000000000000815260206004820152601e60248201527f5969656c64426f783a204e6f20746f6b656e496420666f7220455243323000006044820152606401610bd8565b73ffffffffffffffffffffffffffffffffffffffff83161580612f0257508273ffffffffffffffffffffffffffffffffffffffff166330fa738c6040518163ffffffff1660e01b815260040160206040518083038186803b158015612d6a57600080fd5b505afa158015612d7e573d6000803e3d6000fd5b505050506040513d601f19601f82011682018060405250810190612da291906156f0565b6002811115612db357612db361518d565b856002811115612dc557612dc561518d565b148015612e7a57508273ffffffffffffffffffffffffffffffffffffffff1663f6b4dfb46040518163ffffffff1660e01b815260040160206040518083038186803b158015612e1357600080fd5b505afa158015612e27573d6000803e3d6000fd5b505050506040513d601f19601f82011682018060405250810190612e4b919061570d565b73ffffffffffffffffffffffffffffffffffffffff168473ffffffffffffffffffffffffffffffffffffffff16145b8015612f0257508273ffffffffffffffffffffffffffffffffffffffff166317d70f7c6040518163ffffffff1660e01b815260040160206040518083038186803b158015612ec757600080fd5b505afa158015612edb573d6000803e3d6000fd5b505050506040513d601f19601f82011682018060405250810190612eff919061572a565b82145b612f68576040517f08c379a000000000000000000000000000000000000000000000000000000000815260206004820152601b60248201527f5969656c64426f783a205374726174656779206d69736d6174636800000000006044820152606401610bd8565b6000856002811115612f7c57612f7c61518d565b1480612f9e575073ffffffffffffffffffffffffffffffffffffffff84163b15155b613004576040517f08c379a000000000000000000000000000000000000000000000000000000000815260206004820152601560248201527f5969656c64426f783a204e6f74206120746f6b656e00000000000000000000006044820152606401610bd8565b60068054905090506006604051806080016040528087600281111561302b5761302b61518d565b815273ffffffffffffffffffffffffffffffffffffffff808816602080840191909152908716604083015260609091018590528254600181810185556000948552919093208251600390940201805492939092909183917fffffffffffffffffffffffffffffffffffffffffffffffffffffffffffffff0016908360028111156130b7576130b761518d565b0217905550602082015181547fffffffffffffffffffffff0000000000000000000000000000000000000000ff1661010073ffffffffffffffffffffffffffffffffffffffff9283160217825560408301516001830180547fffffffffffffffffffffffff000000000000000000000000000000000000000016919092161790556060909101516002918201558190600590600090889081111561315d5761315d61518d565b600281111561316e5761316e61518d565b81526020808201929092526040908101600090812073ffffffffffffffffffffffffffffffffffffffff808a16835290845282822090881682528352818120868252909252902055949350505050565b6000600683815481106131d3576131d3615392565b600091825260209091206003909102015460ff1660028111156131f8576131f861518d565b1461325f576040517f08c379a000000000000000000000000000000000000000000000000000000000815260206004820152600f60248201527f4e54463a204e6f74206e617469766500000000000000000000000000000000006044820152606401610bd8565b61326a338383614269565b5050565b60008181526009602052604090205473ffffffffffffffffffffffffffffffffffffffff163381146132fc576040517f08c379a000000000000000000000000000000000000000000000000000000000815260206004820152601c60248201527f4e54463a2063616c6c657220213d2070656e64696e67206f776e6572000000006044820152606401610bd8565b60008281526008602052604080822054905173ffffffffffffffffffffffffffffffffffffffff8085169392169185917f16b85f49bf01212961345d3016c9a531894accf62eb7680f2045d79185cc0ec09190a46000918252600860209081526040808420805473ffffffffffffffffffffffffffffffffffffffff9094167fffffffffffffffffffffffff0000000000000000000000000000000000000000948516179055600990915290912080549091169055565b600681815481106133c357600080fd5b600091825260209091206003909102018054600182015460029092015460ff8216935061010090910473ffffffffffffffffffffffffffffffffffffffff90811692169084565b60005b82811015611a7f576000803086868581811061342b5761342b615392565b905060200281019061343d9190615743565b60405161344b92919061550f565b600060405180830381855af49150503d8060008114613486576040519150601f19603f3d011682016040523d82523d6000602084013e61348b565b606091505b50915091508115801561349b5750835b156134dc576134a98161466e565b6040517f08c379a0000000000000000000000000000000000000000000000000000000008152600401610bd89190614abb565b505080806134e990615688565b91505061340d565b8573ffffffffffffffffffffffffffffffffffffffff81163314801590613549575073ffffffffffffffffffffffffffffffffffffffff8116600090815260026020908152604080832033845290915290205460ff16155b1561361d573360009081526020819052604090205473ffffffffffffffffffffffffffffffffffffffff1680158015906135b5575073ffffffffffffffffffffffffffffffffffffffff80821660009081526002602090815260408083209386168352929052205460ff165b61361b576040517f08c379a000000000000000000000000000000000000000000000000000000000815260206004820152601660248201527f5969656c64426f783a204e6f7420617070726f766564000000000000000000006044820152606401610bd8565b505b61362b878787878787613fcd565b50505050505050565b6000613644600080600080612c09565b6040805160806020601f8a018190040282018101909252606081018881529293509182918990899081908501838280828437600092019190915250505090825250604080516020601f880181900481028201810190925286815291810191908790879081908401838280828437600092018290525093855250505060ff851660209283015283815260078252604090208251805191926136e99284929091019061487a565b506020828101518051613702926001850192019061487a565b506040918201516002909101805460ff9092167fffffffffffffffffffffffffffffffffffffffffffffffffffffffffffffff009092169190911790556000828152600860205281812080547fffffffffffffffffffffffff00000000000000000000000000000000000000001633908117909155915183907f16b85f49bf01212961345d3016c9a531894accf62eb7680f2045d79185cc0ec0908390a4505050505050565b6137b186613ea3565b6137bd8686868661391b565b73ffffffffffffffffffffffffffffffffffffffff85163b15613913576040517ff23a6e61000000000000000000000000000000000000000000000000000000008082529073ffffffffffffffffffffffffffffffffffffffff87169063f23a6e61906138389033908b908a908a908a908a906004016157a8565b602060405180830381600087803b15801561385257600080fd5b505af1158015613866573d6000803e3d6000fd5b505050506040513d601f19601f8201168201806040525081019061388a919061563c565b7fffffffff000000000000000000000000000000000000000000000000000000001614613913576040517f08c379a000000000000000000000000000000000000000000000000000000000815260206004820152601260248201527f57726f6e672072657475726e2076616c756500000000000000000000000000006044820152606401610bd8565b505050505050565b73ffffffffffffffffffffffffffffffffffffffff8316613998576040517f08c379a000000000000000000000000000000000000000000000000000000000815260206004820152600c60248201527f4e6f2030206164647265737300000000000000000000000000000000000000006044820152606401610bd8565b73ffffffffffffffffffffffffffffffffffffffff84166000908152600360209081526040808320858452909152812080548392906139d89084906156d9565b909155505073ffffffffffffffffffffffffffffffffffffffff8316600090815260036020908152604080832085845290915281208054839290613a1d9084906156c1565b9091555050604080518381526020810183905273ffffffffffffffffffffffffffffffffffffffff808616929087169133917fc3d58168c5ae7397731d063d5bbf3d657854427343f4c083240f7aacaa2d0f62910160405180910390a450505050565b600181015460009073ffffffffffffffffffffffffffffffffffffffff16613bb9576001825460ff166002811115613aba57613aba61518d565b1415613ae7578154610aac90610100900473ffffffffffffffffffffffffffffffffffffffff16306146cd565b6002825460ff166002811115613aff57613aff61518d565b1415613bb457815460028301546040517efdd58e000000000000000000000000000000000000000000000000000000008152306004820152602481019190915261010090910473ffffffffffffffffffffffffffffffffffffffff169062fdd58e9060440160206040518083038186803b158015613b7c57600080fd5b505afa158015613b90573d6000803e3d6000fd5b505050506040513d601f19601f82011682018060405250810190610aac919061572a565b919050565b8160010160009054906101000a900473ffffffffffffffffffffffffffffffffffffffff1673ffffffffffffffffffffffffffffffffffffffff1663ce845d1d6040518163ffffffff1660e01b815260040160206040518083038186803b158015613b7c57600080fd5b600082613c2f81615688565b9350613c4190506305f5e100856156c1565b935082613c4e85876157fa565b613c589190615837565b9050818015613c7a57508484613c6e85846157fa565b613c789190615837565b105b156115055780613c8981615688565b9695505050505050565b73ffffffffffffffffffffffffffffffffffffffff8316613d10576040517f08c379a000000000000000000000000000000000000000000000000000000000815260206004820152600c60248201527f4e6f2030206164647265737300000000000000000000000000000000000000006044820152606401610bd8565b73ffffffffffffffffffffffffffffffffffffffff8316600090815260036020908152604080832085845290915281208054839290613d509084906156c1565b909155505060008281526004602052604081208054839290613d739084906156c1565b9091555050604080518381526020810183905273ffffffffffffffffffffffffffffffffffffffff85169160009133917fc3d58168c5ae7397731d063d5bbf3d657854427343f4c083240f7aacaa2d0f6291015b60405180910390a4505050565b60008273ffffffffffffffffffffffffffffffffffffffff168260405160006040518083038185875af1925050503d8060008114613e2e576040519150601f19603f3d011682016040523d82523d6000602084013e613e33565b606091505b5050905080613e9e576040517f08c379a000000000000000000000000000000000000000000000000000000000815260206004820152601e60248201527f426f72696e67416464726573733a207472616e73666572206661696c656400006044820152606401610bd8565b505050565b8073ffffffffffffffffffffffffffffffffffffffff81163314801590613efb575073ffffffffffffffffffffffffffffffffffffffff8116600090815260026020908152604080832033845290915290205460ff16155b1561326a573360009081526020819052604090205473ffffffffffffffffffffffffffffffffffffffff168015801590613f67575073ffffffffffffffffffffffffffffffffffffffff80821660009081526002602090815260408083209386168352929052205460ff165b613e9e576040517f08c379a000000000000000000000000000000000000000000000000000000000815260206004820152601660248201527f5969656c64426f783a204e6f7420617070726f766564000000000000000000006044820152606401610bd8565b73ffffffffffffffffffffffffffffffffffffffff851661404a576040517f08c379a000000000000000000000000000000000000000000000000000000000815260206004820152600c60248201527f4e6f2030206164647265737300000000000000000000000000000000000000006044820152606401610bd8565b60005b8381101561413357600085858381811061406957614069615392565b905060200201359050600084848481811061408657614086615392565b73ffffffffffffffffffffffffffffffffffffffff8c166000908152600360209081526040808320888452825282208054939091029490940135945084939250906140d29084906156d9565b909155505073ffffffffffffffffffffffffffffffffffffffff88166000908152600360209081526040808320858452909152812080548392906141179084906156c1565b925050819055505050808061412b90615688565b91505061404d565b508473ffffffffffffffffffffffffffffffffffffffff168673ffffffffffffffffffffffffffffffffffffffff163373ffffffffffffffffffffffffffffffffffffffff167f4a39dc06d4c0dbc64b70af90fd698a233a518aa5d07e595d983b8c0526c8f7fb878787876040516141ae9493929190615872565b60405180910390a4505050505050565b6000467f000000000000000000000000000000000000000000000000000000000000000081146141f6576141f181614839565b614218565b7f00000000000000000000000000000000000000000000000000000000000000005b91505090565b60008261422a81615688565b935061423c90506305f5e100856156c1565b93508361424984876157fa565b6142539190615837565b9050818015613c7a57508483613c6e86846157fa565b73ffffffffffffffffffffffffffffffffffffffff83166000908152600360209081526040808320858452909152812080548392906142a99084906156d9565b9091555050600082815260046020526040812080548392906142cc9084906156d9565b9091555050604080518381526020810183905260009173ffffffffffffffffffffffffffffffffffffffff86169133917fc3d58168c5ae7397731d063d5bbf3d657854427343f4c083240f7aacaa2d0f629101613dc7565b6040805173ffffffffffffffffffffffffffffffffffffffff8481166024830152604480830185905283518084039091018152606490920183526020820180517bffffffffffffffffffffffffffffffffffffffffffffffffffffffff167fa9059cbb0000000000000000000000000000000000000000000000000000000017905291516000928392908716916143bb9190615899565b6000604051808303816000865af19150503d80600081146143f8576040519150601f19603f3d011682016040523d82523d6000602084013e6143fd565b606091505b509150915081801561442757508051158061442757508080602001905181019061442791906158b5565b610bef576040517f08c379a000000000000000000000000000000000000000000000000000000000815260206004820152601c60248201527f426f72696e6745524332303a205472616e73666572206661696c6564000000006044820152606401610bd8565b60006040518060400160405280600281526020017f19010000000000000000000000000000000000000000000000000000000000008152506144cd6141be565b836040516020016144e0939291906158d2565b604051602081830303815290604052805190602001209050919050565b6040805173ffffffffffffffffffffffffffffffffffffffff85811660248301528481166044830152606480830185905283518084039091018152608490920183526020820180517bffffffffffffffffffffffffffffffffffffffffffffffffffffffff167f23b872dd00000000000000000000000000000000000000000000000000000000179052915160009283929088169161459c9190615899565b6000604051808303816000865af19150503d80600081146145d9576040519150601f19603f3d011682016040523d82523d6000602084013e6145de565b606091505b509150915081801561460857508051158061460857508080602001905181019061460891906158b5565b613913576040517f08c379a000000000000000000000000000000000000000000000000000000000815260206004820181905260248201527f426f72696e6745524332303a205472616e7366657246726f6d206661696c65646044820152606401610bd8565b60606044825110156146b357505060408051808201909152601d81527f5472616e73616374696f6e2072657665727465642073696c656e746c79000000602082015290565b60048201915081806020019051810190610aac91906153f0565b6040805173ffffffffffffffffffffffffffffffffffffffff83811660248084019190915283518084039091018152604490920183526020820180517bffffffffffffffffffffffffffffffffffffffffffffffffffffffff167f70a0823100000000000000000000000000000000000000000000000000000000179052915160009283928392918716916147629190615899565b600060405180830381855afa9150503d806000811461479d576040519150601f19603f3d011682016040523d82523d6000602084013e6147a2565b606091505b50915091508180156147b657506020815110155b61481c576040517f08c379a000000000000000000000000000000000000000000000000000000000815260206004820152601d60248201527f426f72696e6745524332303a2042616c616e63654f66206661696c65640000006044820152606401610bd8565b80806020019051810190614830919061572a565b95945050505050565b604080517f47e79534a245952e8b16893a336b85a3d9ea9fa8c573f3d803afb92a7946921860208201529081018290523060608201526000906080016144e0565b828054614886906154bb565b90600052602060002090601f0160209004810192826148a857600085556148ee565b82601f106148c157805160ff19168380011785556148ee565b828001600101855582156148ee579182015b828111156148ee5782518255916020019190600101906148d3565b506148fa9291506148fe565b5090565b5b808211156148fa57600081556001016148ff565b73ffffffffffffffffffffffffffffffffffffffff8116811461493557600080fd5b50565b6000806040838503121561494b57600080fd5b823561495681614913565b946020939093013593505050565b7fffffffff000000000000000000000000000000000000000000000000000000008116811461493557600080fd5b6000602082840312156149a457600080fd5b81356149af81614964565b9392505050565b600080600080608085870312156149cc57600080fd5b84356149d781614913565b935060208501356149e781614913565b93969395505050506040820135916060013590565b60008060408385031215614a0f57600080fd5b823591506020830135614a2181614913565b809150509250929050565b600060208284031215614a3e57600080fd5b5035919050565b60005b83811015614a60578181015183820152602001614a48565b83811115611a7f5750506000910152565b60008151808452614a89816020860160208601614a45565b601f017fffffffffffffffffffffffffffffffffffffffffffffffffffffffffffffffe0169290920160200192915050565b6020815260006149af6020830184614a71565b606081526000614ae16060830186614a71565b8281036020840152614af38186614a71565b91505060ff83166040830152949350505050565b60008083601f840112614b1957600080fd5b50813567ffffffffffffffff811115614b3157600080fd5b602083019150836020828501011115610df157600080fd5b801515811461493557600080fd5b60008060008060608587031215614b6d57600080fd5b8435614b7881614913565b9350602085013567ffffffffffffffff811115614b9457600080fd5b614ba087828801614b07565b9094509250506040850135614bb481614b49565b939692955090935050565b6003811061493557600080fd5b60008060008060808587031215614be257600080fd5b8435614bed81614bbf565b93506020850135614bfd81614913565b92506040850135614c0d81614913565b9396929550929360600135925050565b60008083601f840112614c2f57600080fd5b50813567ffffffffffffffff811115614c4757600080fd5b6020830191508360208260051b8501011115610df157600080fd5b60008060008060008060008060a0898b031215614c7e57600080fd5b8835614c8981614913565b97506020890135614c9981614913565b9650604089013567ffffffffffffffff80821115614cb657600080fd5b614cc28c838d01614c1d565b909850965060608b0135915080821115614cdb57600080fd5b614ce78c838d01614c1d565b909650945060808b0135915080821115614d0057600080fd5b50614d0d8b828c01614b07565b999c989b5096995094979396929594505050565b600080600060608486031215614d3657600080fd5b83359250602084013591506040840135614d4f81614b49565b809150509250925092565b60008060008060408587031215614d7057600080fd5b843567ffffffffffffffff80821115614d8857600080fd5b614d9488838901614c1d565b90965094506020870135915080821115614dad57600080fd5b50614dba87828801614c1d565b95989497509550505050565b6020808252825182820181905260009190848201906040850190845b81811015614dfe57835183529284019291840191600101614de2565b50909695505050505050565b60008060008060808587031215614e2057600080fd5b843593506020850135614e3281614913565b92506040850135614e4281614b49565b91506060850135614bb481614b49565b600080600080600080600080610100898b031215614e6f57600080fd5b8835614e7a81614bbf565b97506020890135614e8a81614913565b96506040890135614e9a81614913565b9550606089013594506080890135614eb181614913565b935060a0890135614ec181614913565b979a969950949793969295929450505060c08201359160e0013590565b60008060408385031215614ef157600080fd5b8235614efc81614913565b91506020830135614a2181614913565b803560ff81168114613bb457600080fd5b600080600080600080600080610100898b031215614f3a57600080fd5b8835614f4581614913565b97506020890135614f5581614913565b96506040890135614f6581614913565b95506060890135945060808901359350614f8160a08a01614f0c565b925060c0890135915060e089013590509295985092959890939650565b600060208284031215614fb057600080fd5b81356149af81614913565b600080600060608486031215614fd057600080fd5b833592506020840135614fe281614913565b929592945050506040919091013590565b600080600080600060a0868803121561500b57600080fd5b85359450602086013561501d81614913565b9350604086013561502d81614913565b94979396509394606081013594506080013592915050565b60008060008060008060c0878903121561505e57600080fd5b863561506981614913565b9550602087013561507981614913565b9450604087013561508981614b49565b935061509760608801614f0c565b92506080870135915060a087013590509295509295509295565b600080600080600080608087890312156150ca57600080fd5b8635955060208701356150dc81614913565b9450604087013567ffffffffffffffff808211156150f957600080fd5b6151058a838b01614c1d565b9096509450606089013591508082111561511e57600080fd5b5061512b89828a01614c1d565b979a9699509497509295939492505050565b6000806040838503121561515057600080fd5b823561515b81614913565b91506020830135614a2181614b49565b6000806040838503121561517e57600080fd5b50508035926020909101359150565b7f4e487b7100000000000000000000000000000000000000000000000000000000600052602160045260246000fd5b60808101600386106151f7577f4e487b7100000000000000000000000000000000000000000000000000000000600052602160045260246000fd5b94815273ffffffffffffffffffffffffffffffffffffffff93841660208201529190921660408201526060015290565b60008060006040848603121561523c57600080fd5b833567ffffffffffffffff81111561525357600080fd5b61525f86828701614c1d565b9094509250506020840135614d4f81614b49565b6000806000806000806080878903121561528c57600080fd5b863561529781614913565b955060208701356150dc81614913565b6000806000806000606086880312156152bf57600080fd5b853567ffffffffffffffff808211156152d757600080fd5b6152e389838a01614b07565b909750955060208801359150808211156152fc57600080fd5b5061530988828901614b07565b909450925061531c905060408701614f0c565b90509295509295909350565b60008060008060008060a0878903121561534157600080fd5b863561534c81614913565b9550602087013561535c81614913565b94506040870135935060608701359250608087013567ffffffffffffffff81111561538657600080fd5b61512b89828a01614b07565b7f4e487b7100000000000000000000000000000000000000000000000000000000600052603260045260246000fd5b7f4e487b7100000000000000000000000000000000000000000000000000000000600052604160045260246000fd5b60006020828403121561540257600080fd5b815167ffffffffffffffff8082111561541a57600080fd5b818401915084601f83011261542e57600080fd5b815181811115615440576154406153c1565b604051601f82017fffffffffffffffffffffffffffffffffffffffffffffffffffffffffffffffe0908116603f01168101908382118183101715615486576154866153c1565b8160405282815287602084870101111561549f57600080fd5b6154b0836020830160208801614a45565b979650505050505050565b600181811c908216806154cf57607f821691505b60208210811415615509577f4e487b7100000000000000000000000000000000000000000000000000000000600052602260045260246000fd5b50919050565b8183823760009101908152919050565b8183528181602085013750600060208284010152600060207fffffffffffffffffffffffffffffffffffffffffffffffffffffffffffffffe0601f840116840101905092915050565b60208152600061150560208301848661551f565b81835260007f07ffffffffffffffffffffffffffffffffffffffffffffffffffffffffffffff8311156155ae57600080fd5b8260051b8083602087013760009401602001938452509192915050565b600073ffffffffffffffffffffffffffffffffffffffff808b168352808a1660208401525060a0604083015261560560a08301888a61557c565b828103606084015261561881878961557c565b9050828103608084015261562d81858761551f565b9b9a5050505050505050505050565b60006020828403121561564e57600080fd5b81516149af81614964565b7f4e487b7100000000000000000000000000000000000000000000000000000000600052601160045260246000fd5b60007fffffffffffffffffffffffffffffffffffffffffffffffffffffffffffffffff8214156156ba576156ba615659565b5060010190565b600082198211156156d4576156d4615659565b500190565b6000828210156156eb576156eb615659565b500390565b60006020828403121561570257600080fd5b81516149af81614bbf565b60006020828403121561571f57600080fd5b81516149af81614913565b60006020828403121561573c57600080fd5b5051919050565b60008083357fffffffffffffffffffffffffffffffffffffffffffffffffffffffffffffffe184360301811261577857600080fd5b83018035915067ffffffffffffffff82111561579357600080fd5b602001915036819003821315610df157600080fd5b600073ffffffffffffffffffffffffffffffffffffffff808916835280881660208401525085604083015284606083015260a060808301526157ee60a08301848661551f565b98975050505050505050565b6000817fffffffffffffffffffffffffffffffffffffffffffffffffffffffffffffffff048311821515161561583257615832615659565b500290565b60008261586d577f4e487b7100000000000000000000000000000000000000000000000000000000600052601260045260246000fd5b500490565b60408152600061588660408301868861557c565b82810360208401526154b081858761557c565b600082516158ab818460208701614a45565b9190910192915050565b6000602082840312156158c757600080fd5b81516149af81614b49565b600084516158e4818460208901614a45565b9190910192835250602082015260400191905056fea2646970667358221220ba2a657413602203590eeafd8b9ea24f5f07fe554c32afb903027814ac3467ff64736f6c63430008090033",
  "devdoc": {
    "author": "BoringCrypto, Keno",
    "kind": "dev",
    "methods": {
      "batch(bytes[],bool)": {
        "params": {
          "calls": "An array of inputs for each call.",
          "revertOnFail": "If True then reverts after a failed call and stops doing further calls."
        }
      },
      "burn(uint256,uint256)": {
        "params": {
          "amount": "The amount of tokens to burn.",
          "tokenId": "The token to be burned."
        }
      },
      "claimOwnership(uint256)": {
        "params": {
          "tokenId": "The `tokenId` of the token that ownership is claimed for."
        }
      },
      "clonesOfCount(address)": {
        "params": {
          "masterContract": "The address of the master contract."
        },
        "returns": {
          "cloneCount": "total number of clones for the masterContract."
        }
      },
      "createToken(string,string,uint8)": {
        "params": {
          "decimals": "The number of decimals of the token (this is just for display purposes). Should be set to 18 in normal cases.",
          "name": "The name of the token.",
          "symbol": "The symbol of the token."
        }
      },
      "deploy(address,bytes,bool)": {
        "params": {
          "data": "Additional abi encoded calldata that is passed to the new clone via `IMasterContract.init`.",
          "masterContract": "The address of the contract to clone.",
          "useCreate2": "Creates the clone by using the CREATE2 opcode, in this case `data` will be used as salt."
        },
        "returns": {
          "cloneAddress": "Address of the created clone contract."
        }
      },
      "depositAsset(uint256,address,address,uint256,uint256)": {
        "params": {
          "amount": "Token amount in native representation to deposit.",
          "assetId": "The id of the asset.",
          "from": "which account to pull the tokens.",
          "share": "Token amount represented in shares to deposit. Takes precedence over `amount`.",
          "to": "which account to push the tokens."
        },
        "returns": {
          "amountOut": "The amount deposited.",
          "shareOut": "The deposited amount repesented in shares."
        }
      },
      "mint(uint256,address,uint256)": {
        "params": {
          "amount": "The amount of tokens to mint.",
          "to": "The account to transfer the minted tokens to.",
          "tokenId": "The token to be minted."
        }
      },
      "toAmount(uint256,uint256,bool)": {
        "details": "Helper function represent shares back into the `token` amount.",
        "params": {
          "assetId": "The id of the asset.",
          "roundUp": "If the result should be rounded up.",
          "share": "The amount of shares."
        },
        "returns": {
          "amount": "The share amount back into native representation."
        }
      },
      "toShare(uint256,uint256,bool)": {
        "details": "Helper function to represent an `amount` of `token` in shares.",
        "params": {
          "amount": "The `token` amount.",
          "assetId": "The id of the asset.",
          "roundUp": "If the result `share` should be rounded up."
        },
        "returns": {
          "share": "The token amount represented in shares."
        }
      },
      "transfer(address,address,uint256,uint256)": {
        "params": {
          "assetId": "The id of the asset.",
          "from": "which user to pull the tokens.",
          "share": "The amount of `token` in shares.",
          "to": "which user to push the tokens."
        }
      },
      "transferMultiple(uint256,address,address[],uint256[])": {
        "params": {
          "assetId": "The id of the asset.",
          "from": "which user to pull the tokens.",
          "share": "The amount of `token` in shares for each receiver in `tos`.",
          "tos": "The receivers of the tokens."
        }
      },
      "transferOwnership(uint256,address,bool,bool)": {
        "params": {
          "direct": "True if `newOwner` should be set immediately. False if `newOwner` needs to use `claimOwnership`.",
          "newOwner": "Address of the new owner.",
          "renounce": "Allows the `newOwner` to be `address(0)` if `direct` and `renounce` is True. Has no effect otherwise.",
          "tokenId": "The `tokenId` of the token that ownership whose ownership will be transferred/renounced."
        }
      },
      "withdraw(uint256,address,address,uint256,uint256)": {
        "params": {
          "amount": "of tokens. Either one of `amount` or `share` needs to be supplied.",
          "assetId": "The id of the asset.",
          "from": "which user to pull the tokens.",
          "share": "Like above, but `share` takes precedence over `amount`.",
          "to": "which user to push the tokens."
        }
      }
    },
    "title": "YieldBox",
    "version": 1
  },
  "userdoc": {
    "kind": "user",
    "methods": {
      "batch(bytes[],bool)": {
        "notice": "Allows batched call to self (this contract)."
      },
      "burn(uint256,uint256)": {
        "notice": "Burns tokens. Only the holder of tokens can burn them."
      },
      "claimOwnership(uint256)": {
        "notice": "Needs to be called by `pendingOwner` to claim ownership."
      },
      "clonesOf(address,uint256)": {
        "notice": "Mapping from masterContract to an array of all clones On mainnet events can be used to get this list, but events aren't always easy to retrieve and barely work on sidechains. While this adds gas, it makes enumerating all clones much easier."
      },
      "clonesOfCount(address)": {
        "notice": "Returns the count of clones that exists for a specific masterContract"
      },
      "createToken(string,string,uint8)": {
        "notice": "Create a new native token. This will be an ERC1155 token. If later it's needed as an ERC20 token it can be wrapped into an ERC20 token. Native support for ERC1155 tokens is growing though."
      },
      "deploy(address,bytes,bool)": {
        "notice": "Deploys a given master Contract as a clone. Any ETH transferred with this call is forwarded to the new clone. Emits `LogDeploy`."
      },
      "depositAsset(uint256,address,address,uint256,uint256)": {
        "notice": "Deposit an amount of `token` represented in either `amount` or `share`."
      },
      "masterContractOf(address)": {
        "notice": "Mapping from clone contracts to their masterContract."
      },
      "mint(uint256,address,uint256)": {
        "notice": "The `owner` can mint tokens. If a fixed supply is needed, the `owner` should mint the totalSupply and renounce ownership."
      },
      "nonces(address)": {
        "notice": "user nonces for masterContract approvals"
      },
      "permitToken(address,address,address,uint256,uint256,uint8,bytes32,bytes32)": {
        "notice": "Call wrapper that performs `ERC20.permit` on `token`. Lookup `IERC20.permit`."
      },
      "transfer(address,address,uint256,uint256)": {
        "notice": "Transfer shares from a user account to another one."
      },
      "transferMultiple(uint256,address,address[],uint256[])": {
        "notice": "Transfer shares from a user account to multiple other ones."
      },
      "transferOwnership(uint256,address,bool,bool)": {
        "notice": "Transfers ownership to `newOwner`. Either directly or claimable by the new pending owner. Can only be invoked by the current `owner`."
      },
      "withdraw(uint256,address,address,uint256,uint256)": {
        "notice": "Withdraws an amount of `token` from a user account."
      }
    },
    "notice": "The YieldBox is a vault for tokens. The stored tokens can assigned to strategies. Yield from this will go to the token depositors. Any funds transfered directly onto the YieldBox will be lost, use the deposit function instead.",
    "version": 1
  },
  "storageLayout": {
    "storage": [
      {
        "astId": 131,
        "contract": "contracts/YieldBox.sol:YieldBox",
        "label": "masterContractOf",
        "offset": 0,
        "slot": "0",
        "type": "t_mapping(t_address,t_address)"
      },
      {
        "astId": 137,
        "contract": "contracts/YieldBox.sol:YieldBox",
        "label": "clonesOf",
        "offset": 0,
        "slot": "1",
        "type": "t_mapping(t_address,t_array(t_address)dyn_storage)"
      },
      {
        "astId": 1814,
        "contract": "contracts/YieldBox.sol:YieldBox",
        "label": "isApprovedForAll",
        "offset": 0,
        "slot": "2",
        "type": "t_mapping(t_address,t_mapping(t_address,t_bool))"
      },
      {
        "astId": 1821,
        "contract": "contracts/YieldBox.sol:YieldBox",
        "label": "balanceOf",
        "offset": 0,
        "slot": "3",
        "type": "t_mapping(t_address,t_mapping(t_uint256,t_uint256))"
      },
      {
        "astId": 1825,
        "contract": "contracts/YieldBox.sol:YieldBox",
        "label": "totalSupply",
        "offset": 0,
        "slot": "4",
        "type": "t_mapping(t_uint256,t_uint256)"
      },
      {
        "astId": 1662,
        "contract": "contracts/YieldBox.sol:YieldBox",
        "label": "ids",
        "offset": 0,
        "slot": "5",
        "type": "t_mapping(t_enum(TokenType)3944,t_mapping(t_address,t_mapping(t_contract(IStrategy)4020,t_mapping(t_uint256,t_uint256))))"
      },
      {
        "astId": 1666,
        "contract": "contracts/YieldBox.sol:YieldBox",
        "label": "assets",
        "offset": 0,
        "slot": "6",
        "type": "t_array(t_struct(Asset)1647_storage)dyn_storage"
      },
      {
        "astId": 2355,
        "contract": "contracts/YieldBox.sol:YieldBox",
        "label": "nativeTokens",
        "offset": 0,
        "slot": "7",
        "type": "t_mapping(t_uint256,t_struct(NativeToken)2345_storage)"
      },
      {
        "astId": 2359,
        "contract": "contracts/YieldBox.sol:YieldBox",
        "label": "owner",
        "offset": 0,
        "slot": "8",
        "type": "t_mapping(t_uint256,t_address)"
      },
      {
        "astId": 2363,
        "contract": "contracts/YieldBox.sol:YieldBox",
        "label": "pendingOwner",
        "offset": 0,
        "slot": "9",
        "type": "t_mapping(t_uint256,t_address)"
      },
      {
        "astId": 3364,
        "contract": "contracts/YieldBox.sol:YieldBox",
        "label": "nonces",
        "offset": 0,
        "slot": "10",
        "type": "t_mapping(t_address,t_uint256)"
      }
    ],
    "types": {
      "t_address": {
        "encoding": "inplace",
        "label": "address",
        "numberOfBytes": "20"
      },
      "t_array(t_address)dyn_storage": {
        "base": "t_address",
        "encoding": "dynamic_array",
        "label": "address[]",
        "numberOfBytes": "32"
      },
      "t_array(t_struct(Asset)1647_storage)dyn_storage": {
        "base": "t_struct(Asset)1647_storage",
        "encoding": "dynamic_array",
        "label": "struct Asset[]",
        "numberOfBytes": "32"
      },
      "t_bool": {
        "encoding": "inplace",
        "label": "bool",
        "numberOfBytes": "1"
      },
      "t_contract(IStrategy)4020": {
        "encoding": "inplace",
        "label": "contract IStrategy",
        "numberOfBytes": "20"
      },
      "t_enum(TokenType)3944": {
        "encoding": "inplace",
        "label": "enum TokenType",
        "numberOfBytes": "1"
      },
      "t_mapping(t_address,t_address)": {
        "encoding": "mapping",
        "key": "t_address",
        "label": "mapping(address => address)",
        "numberOfBytes": "32",
        "value": "t_address"
      },
      "t_mapping(t_address,t_array(t_address)dyn_storage)": {
        "encoding": "mapping",
        "key": "t_address",
        "label": "mapping(address => address[])",
        "numberOfBytes": "32",
        "value": "t_array(t_address)dyn_storage"
      },
      "t_mapping(t_address,t_bool)": {
        "encoding": "mapping",
        "key": "t_address",
        "label": "mapping(address => bool)",
        "numberOfBytes": "32",
        "value": "t_bool"
      },
      "t_mapping(t_address,t_mapping(t_address,t_bool))": {
        "encoding": "mapping",
        "key": "t_address",
        "label": "mapping(address => mapping(address => bool))",
        "numberOfBytes": "32",
        "value": "t_mapping(t_address,t_bool)"
      },
      "t_mapping(t_address,t_mapping(t_contract(IStrategy)4020,t_mapping(t_uint256,t_uint256)))": {
        "encoding": "mapping",
        "key": "t_address",
        "label": "mapping(address => mapping(contract IStrategy => mapping(uint256 => uint256)))",
        "numberOfBytes": "32",
        "value": "t_mapping(t_contract(IStrategy)4020,t_mapping(t_uint256,t_uint256))"
      },
      "t_mapping(t_address,t_mapping(t_uint256,t_uint256))": {
        "encoding": "mapping",
        "key": "t_address",
        "label": "mapping(address => mapping(uint256 => uint256))",
        "numberOfBytes": "32",
        "value": "t_mapping(t_uint256,t_uint256)"
      },
      "t_mapping(t_address,t_uint256)": {
        "encoding": "mapping",
        "key": "t_address",
        "label": "mapping(address => uint256)",
        "numberOfBytes": "32",
        "value": "t_uint256"
      },
      "t_mapping(t_contract(IStrategy)4020,t_mapping(t_uint256,t_uint256))": {
        "encoding": "mapping",
        "key": "t_contract(IStrategy)4020",
        "label": "mapping(contract IStrategy => mapping(uint256 => uint256))",
        "numberOfBytes": "32",
        "value": "t_mapping(t_uint256,t_uint256)"
      },
      "t_mapping(t_enum(TokenType)3944,t_mapping(t_address,t_mapping(t_contract(IStrategy)4020,t_mapping(t_uint256,t_uint256))))": {
        "encoding": "mapping",
        "key": "t_enum(TokenType)3944",
        "label": "mapping(enum TokenType => mapping(address => mapping(contract IStrategy => mapping(uint256 => uint256))))",
        "numberOfBytes": "32",
        "value": "t_mapping(t_address,t_mapping(t_contract(IStrategy)4020,t_mapping(t_uint256,t_uint256)))"
      },
      "t_mapping(t_uint256,t_address)": {
        "encoding": "mapping",
        "key": "t_uint256",
        "label": "mapping(uint256 => address)",
        "numberOfBytes": "32",
        "value": "t_address"
      },
      "t_mapping(t_uint256,t_struct(NativeToken)2345_storage)": {
        "encoding": "mapping",
        "key": "t_uint256",
        "label": "mapping(uint256 => struct NativeToken)",
        "numberOfBytes": "32",
        "value": "t_struct(NativeToken)2345_storage"
      },
      "t_mapping(t_uint256,t_uint256)": {
        "encoding": "mapping",
        "key": "t_uint256",
        "label": "mapping(uint256 => uint256)",
        "numberOfBytes": "32",
        "value": "t_uint256"
      },
      "t_string_storage": {
        "encoding": "bytes",
        "label": "string",
        "numberOfBytes": "32"
      },
      "t_struct(Asset)1647_storage": {
        "encoding": "inplace",
        "label": "struct Asset",
        "members": [
          {
            "astId": 1639,
            "contract": "contracts/YieldBox.sol:YieldBox",
            "label": "tokenType",
            "offset": 0,
            "slot": "0",
            "type": "t_enum(TokenType)3944"
          },
          {
            "astId": 1641,
            "contract": "contracts/YieldBox.sol:YieldBox",
            "label": "contractAddress",
            "offset": 1,
            "slot": "0",
            "type": "t_address"
          },
          {
            "astId": 1644,
            "contract": "contracts/YieldBox.sol:YieldBox",
            "label": "strategy",
            "offset": 0,
            "slot": "1",
            "type": "t_contract(IStrategy)4020"
          },
          {
            "astId": 1646,
            "contract": "contracts/YieldBox.sol:YieldBox",
            "label": "tokenId",
            "offset": 0,
            "slot": "2",
            "type": "t_uint256"
          }
        ],
        "numberOfBytes": "96"
      },
      "t_struct(NativeToken)2345_storage": {
        "encoding": "inplace",
        "label": "struct NativeToken",
        "members": [
          {
            "astId": 2340,
            "contract": "contracts/YieldBox.sol:YieldBox",
            "label": "name",
            "offset": 0,
            "slot": "0",
            "type": "t_string_storage"
          },
          {
            "astId": 2342,
            "contract": "contracts/YieldBox.sol:YieldBox",
            "label": "symbol",
            "offset": 0,
            "slot": "1",
            "type": "t_string_storage"
          },
          {
            "astId": 2344,
            "contract": "contracts/YieldBox.sol:YieldBox",
            "label": "decimals",
            "offset": 0,
            "slot": "2",
            "type": "t_uint8"
          }
        ],
        "numberOfBytes": "96"
      },
      "t_uint256": {
        "encoding": "inplace",
        "label": "uint256",
        "numberOfBytes": "32"
      },
      "t_uint8": {
        "encoding": "inplace",
        "label": "uint8",
        "numberOfBytes": "1"
      }
    }
  }
}