{
  "address": "0x1275D096B9DBf2347bD2a131Fb6BDaB0B4882487",
  "abi": [
    {
      "inputs": [
        {
          "internalType": "contract IERC20",
          "name": "wethToken_",
          "type": "address"
        }
      ],
      "stateMutability": "nonpayable",
      "type": "constructor"
    },
    {
      "anonymous": false,
      "inputs": [
        {
          "indexed": true,
          "internalType": "address",
          "name": "_owner",
          "type": "address"
        },
        {
          "indexed": true,
          "internalType": "address",
          "name": "_operator",
          "type": "address"
        },
        {
          "indexed": false,
          "internalType": "bool",
          "name": "_approved",
          "type": "bool"
        }
      ],
      "name": "ApprovalForAll",
      "type": "event"
    },
    {
      "anonymous": false,
      "inputs": [
        {
          "indexed": true,
          "internalType": "address",
          "name": "masterContract",
          "type": "address"
        },
        {
          "indexed": false,
          "internalType": "bytes",
          "name": "data",
          "type": "bytes"
        },
        {
          "indexed": true,
          "internalType": "address",
          "name": "cloneAddress",
          "type": "address"
        }
      ],
      "name": "LogDeploy",
      "type": "event"
    },
    {
      "anonymous": false,
      "inputs": [
        {
          "indexed": true,
          "internalType": "address",
          "name": "_operator",
          "type": "address"
        },
        {
          "indexed": true,
          "internalType": "address",
          "name": "_from",
          "type": "address"
        },
        {
          "indexed": true,
          "internalType": "address",
          "name": "_to",
          "type": "address"
        },
        {
          "indexed": false,
          "internalType": "uint256[]",
          "name": "_ids",
          "type": "uint256[]"
        },
        {
          "indexed": false,
          "internalType": "uint256[]",
          "name": "_values",
          "type": "uint256[]"
        }
      ],
      "name": "TransferBatch",
      "type": "event"
    },
    {
      "anonymous": false,
      "inputs": [
        {
          "indexed": true,
          "internalType": "address",
          "name": "_operator",
          "type": "address"
        },
        {
          "indexed": true,
          "internalType": "address",
          "name": "_from",
          "type": "address"
        },
        {
          "indexed": true,
          "internalType": "address",
          "name": "_to",
          "type": "address"
        },
        {
          "indexed": false,
          "internalType": "uint256",
          "name": "_id",
          "type": "uint256"
        },
        {
          "indexed": false,
          "internalType": "uint256",
          "name": "_value",
          "type": "uint256"
        }
      ],
      "name": "TransferSingle",
      "type": "event"
    },
    {
      "anonymous": false,
      "inputs": [
        {
          "indexed": false,
          "internalType": "string",
          "name": "_value",
          "type": "string"
        },
        {
          "indexed": true,
          "internalType": "uint256",
          "name": "_id",
          "type": "uint256"
        }
      ],
      "name": "URI",
      "type": "event"
    },
    {
      "inputs": [],
      "name": "DOMAIN_SEPARATOR",
      "outputs": [
        {
          "internalType": "bytes32",
          "name": "",
          "type": "bytes32"
        }
      ],
      "stateMutability": "view",
      "type": "function"
    },
    {
      "inputs": [
        {
          "internalType": "uint256",
          "name": "",
          "type": "uint256"
        }
      ],
      "name": "assets",
      "outputs": [
        {
          "internalType": "uint96",
          "name": "standard",
          "type": "uint96"
        },
        {
          "internalType": "address",
          "name": "contractAddress",
          "type": "address"
        },
        {
          "internalType": "contract IStrategy",
          "name": "strategy",
          "type": "address"
        },
        {
          "internalType": "uint256",
          "name": "tokenId",
          "type": "uint256"
        }
      ],
      "stateMutability": "view",
      "type": "function"
    },
    {
      "inputs": [
        {
          "internalType": "address",
          "name": "owner",
          "type": "address"
        },
        {
          "internalType": "uint256",
          "name": "assetId",
          "type": "uint256"
        }
      ],
      "name": "balanceOf",
      "outputs": [
        {
          "internalType": "uint256",
          "name": "",
          "type": "uint256"
        }
      ],
      "stateMutability": "view",
      "type": "function"
    },
    {
      "inputs": [
        {
          "internalType": "address[]",
          "name": "owners",
          "type": "address[]"
        },
        {
          "internalType": "uint256[]",
          "name": "ids_",
          "type": "uint256[]"
        }
      ],
      "name": "balanceOfBatch",
      "outputs": [
        {
          "internalType": "uint256[]",
          "name": "balances",
          "type": "uint256[]"
        }
      ],
      "stateMutability": "view",
      "type": "function"
    },
    {
      "inputs": [
        {
          "internalType": "bytes[]",
          "name": "calls",
          "type": "bytes[]"
        },
        {
          "internalType": "bool",
          "name": "revertOnFail",
          "type": "bool"
        }
      ],
      "name": "batch",
      "outputs": [],
      "stateMutability": "payable",
      "type": "function"
    },
    {
      "inputs": [
        {
          "internalType": "address",
          "name": "from",
          "type": "address"
        },
        {
          "internalType": "address",
          "name": "to",
          "type": "address"
        },
        {
          "internalType": "uint256[]",
          "name": "assetIds_",
          "type": "uint256[]"
        },
        {
          "internalType": "uint256[]",
          "name": "shares_",
          "type": "uint256[]"
        }
      ],
      "name": "batchTransfer",
      "outputs": [],
      "stateMutability": "nonpayable",
      "type": "function"
    },
    {
      "inputs": [
        {
          "internalType": "address",
          "name": "masterContract",
          "type": "address"
        },
        {
          "internalType": "bytes",
          "name": "data",
          "type": "bytes"
        },
        {
          "internalType": "bool",
          "name": "useCreate2",
          "type": "bool"
        }
      ],
      "name": "deploy",
      "outputs": [
        {
          "internalType": "address",
          "name": "cloneAddress",
          "type": "address"
        }
      ],
      "stateMutability": "payable",
      "type": "function"
    },
    {
      "inputs": [
        {
          "internalType": "uint96",
          "name": "standard",
          "type": "uint96"
        },
        {
          "internalType": "address",
          "name": "contractAddress",
          "type": "address"
        },
        {
          "internalType": "contract IStrategy",
          "name": "strategy",
          "type": "address"
        },
        {
          "internalType": "uint256",
          "name": "tokenId",
          "type": "uint256"
        },
        {
          "internalType": "address",
          "name": "from",
          "type": "address"
        },
        {
          "internalType": "address",
          "name": "to",
          "type": "address"
        },
        {
          "internalType": "uint256",
          "name": "amount",
          "type": "uint256"
        },
        {
          "internalType": "uint256",
          "name": "share",
          "type": "uint256"
        }
      ],
      "name": "deposit",
      "outputs": [
        {
          "internalType": "uint256",
          "name": "amountOut",
          "type": "uint256"
        },
        {
          "internalType": "uint256",
          "name": "shareOut",
          "type": "uint256"
        }
      ],
      "stateMutability": "nonpayable",
      "type": "function"
    },
    {
      "inputs": [
        {
          "internalType": "uint256",
          "name": "assetId",
          "type": "uint256"
        },
        {
          "internalType": "address",
          "name": "from",
          "type": "address"
        },
        {
          "internalType": "address",
          "name": "to",
          "type": "address"
        },
        {
          "internalType": "uint256",
          "name": "amount",
          "type": "uint256"
        },
        {
          "internalType": "uint256",
          "name": "share",
          "type": "uint256"
        }
      ],
      "name": "depositAsset",
      "outputs": [
        {
          "internalType": "uint256",
          "name": "amountOut",
          "type": "uint256"
        },
        {
          "internalType": "uint256",
          "name": "shareOut",
          "type": "uint256"
        }
      ],
      "stateMutability": "nonpayable",
      "type": "function"
    },
    {
      "inputs": [
        {
          "internalType": "contract IStrategy",
          "name": "strategy",
          "type": "address"
        },
        {
          "internalType": "address",
          "name": "to",
          "type": "address"
        }
      ],
      "name": "depositETH",
      "outputs": [
        {
          "internalType": "uint256",
          "name": "amountOut",
          "type": "uint256"
        },
        {
          "internalType": "uint256",
          "name": "shareOut",
          "type": "uint256"
        }
      ],
      "stateMutability": "payable",
      "type": "function"
    },
    {
      "inputs": [
        {
          "internalType": "uint256",
          "name": "assetId",
          "type": "uint256"
        },
        {
          "internalType": "address",
          "name": "to",
          "type": "address"
        }
      ],
      "name": "depositETHAsset",
      "outputs": [
        {
          "internalType": "uint256",
          "name": "amountOut",
          "type": "uint256"
        },
        {
          "internalType": "uint256",
          "name": "shareOut",
          "type": "uint256"
        }
      ],
      "stateMutability": "payable",
      "type": "function"
    },
    {
      "inputs": [
        {
          "internalType": "uint96",
          "name": "",
          "type": "uint96"
        },
        {
          "internalType": "address",
          "name": "",
          "type": "address"
        },
        {
          "internalType": "contract IStrategy",
          "name": "",
          "type": "address"
        },
        {
          "internalType": "uint256",
          "name": "",
          "type": "uint256"
        }
      ],
      "name": "ids",
      "outputs": [
        {
          "internalType": "uint256",
          "name": "",
          "type": "uint256"
        }
      ],
      "stateMutability": "view",
      "type": "function"
    },
    {
      "inputs": [
        {
          "internalType": "address",
          "name": "",
          "type": "address"
        },
        {
          "internalType": "address",
          "name": "",
          "type": "address"
        }
      ],
      "name": "isApprovedForAll",
      "outputs": [
        {
          "internalType": "bool",
          "name": "",
          "type": "bool"
        }
      ],
      "stateMutability": "view",
      "type": "function"
    },
    {
      "inputs": [
        {
          "internalType": "address",
          "name": "",
          "type": "address"
        }
      ],
      "name": "masterContractOf",
      "outputs": [
        {
          "internalType": "address",
          "name": "",
          "type": "address"
        }
      ],
      "stateMutability": "view",
      "type": "function"
    },
    {
      "inputs": [
        {
          "internalType": "address",
          "name": "",
          "type": "address"
        }
      ],
      "name": "nonces",
      "outputs": [
        {
          "internalType": "uint256",
          "name": "",
          "type": "uint256"
        }
      ],
      "stateMutability": "view",
      "type": "function"
    },
    {
      "inputs": [
        {
          "internalType": "address",
          "name": "",
          "type": "address"
        },
        {
          "internalType": "address",
          "name": "",
          "type": "address"
        },
        {
          "internalType": "uint256[]",
          "name": "",
          "type": "uint256[]"
        },
        {
          "internalType": "uint256[]",
          "name": "",
          "type": "uint256[]"
        },
        {
          "internalType": "bytes",
          "name": "",
          "type": "bytes"
        }
      ],
      "name": "onERC1155BatchReceived",
      "outputs": [
        {
          "internalType": "bytes4",
          "name": "",
          "type": "bytes4"
        }
      ],
      "stateMutability": "nonpayable",
      "type": "function"
    },
    {
      "inputs": [
        {
          "internalType": "address",
          "name": "",
          "type": "address"
        },
        {
          "internalType": "address",
          "name": "",
          "type": "address"
        },
        {
          "internalType": "uint256",
          "name": "",
          "type": "uint256"
        },
        {
          "internalType": "uint256",
          "name": "",
          "type": "uint256"
        },
        {
          "internalType": "bytes",
          "name": "",
          "type": "bytes"
        }
      ],
      "name": "onERC1155Received",
      "outputs": [
        {
          "internalType": "bytes4",
          "name": "",
          "type": "bytes4"
        }
      ],
      "stateMutability": "nonpayable",
      "type": "function"
    },
    {
      "inputs": [
        {
          "internalType": "contract IERC20",
          "name": "token",
          "type": "address"
        },
        {
          "internalType": "address",
          "name": "from",
          "type": "address"
        },
        {
          "internalType": "address",
          "name": "to",
          "type": "address"
        },
        {
          "internalType": "uint256",
          "name": "amount",
          "type": "uint256"
        },
        {
          "internalType": "uint256",
          "name": "deadline",
          "type": "uint256"
        },
        {
          "internalType": "uint8",
          "name": "v",
          "type": "uint8"
        },
        {
          "internalType": "bytes32",
          "name": "r",
          "type": "bytes32"
        },
        {
          "internalType": "bytes32",
          "name": "s",
          "type": "bytes32"
        }
      ],
      "name": "permitToken",
      "outputs": [],
      "stateMutability": "nonpayable",
      "type": "function"
    },
    {
      "inputs": [
        {
          "internalType": "uint96",
          "name": "standard",
          "type": "uint96"
        },
        {
          "internalType": "address",
          "name": "contractAddress",
          "type": "address"
        },
        {
          "internalType": "contract IStrategy",
          "name": "strategy",
          "type": "address"
        },
        {
          "internalType": "uint256",
          "name": "tokenId",
          "type": "uint256"
        }
      ],
      "name": "registerAsset",
      "outputs": [
        {
          "internalType": "uint256",
          "name": "assetId",
          "type": "uint256"
        }
      ],
      "stateMutability": "nonpayable",
      "type": "function"
    },
    {
      "inputs": [
        {
          "internalType": "address",
          "name": "from",
          "type": "address"
        },
        {
          "internalType": "address",
          "name": "to",
          "type": "address"
        },
        {
          "internalType": "uint256[]",
          "name": "assetIds_",
          "type": "uint256[]"
        },
        {
          "internalType": "uint256[]",
          "name": "shares_",
          "type": "uint256[]"
        },
        {
          "internalType": "bytes",
          "name": "data",
          "type": "bytes"
        }
      ],
      "name": "safeBatchTransferFrom",
      "outputs": [],
      "stateMutability": "nonpayable",
      "type": "function"
    },
    {
      "inputs": [
        {
          "internalType": "address",
          "name": "from",
          "type": "address"
        },
        {
          "internalType": "address",
          "name": "to",
          "type": "address"
        },
        {
          "internalType": "uint256",
          "name": "assetId",
          "type": "uint256"
        },
        {
          "internalType": "uint256",
          "name": "share",
          "type": "uint256"
        },
        {
          "internalType": "bytes",
          "name": "data",
          "type": "bytes"
        }
      ],
      "name": "safeTransferFrom",
      "outputs": [],
      "stateMutability": "nonpayable",
      "type": "function"
    },
    {
      "inputs": [
        {
          "internalType": "address",
          "name": "operator",
          "type": "address"
        },
        {
          "internalType": "bool",
          "name": "approved",
          "type": "bool"
        }
      ],
      "name": "setApprovalForAll",
      "outputs": [],
      "stateMutability": "nonpayable",
      "type": "function"
    },
    {
      "inputs": [
        {
          "internalType": "address",
          "name": "user",
          "type": "address"
        },
        {
          "internalType": "address",
          "name": "operator",
          "type": "address"
        },
        {
          "internalType": "bool",
          "name": "approved",
          "type": "bool"
        },
        {
          "internalType": "uint8",
          "name": "v",
          "type": "uint8"
        },
        {
          "internalType": "bytes32",
          "name": "r",
          "type": "bytes32"
        },
        {
          "internalType": "bytes32",
          "name": "s",
          "type": "bytes32"
        }
      ],
      "name": "setApprovalForAllWithPermit",
      "outputs": [],
      "stateMutability": "nonpayable",
      "type": "function"
    },
    {
      "inputs": [
        {
          "internalType": "uint256",
          "name": "",
          "type": "uint256"
        },
        {
          "internalType": "address",
          "name": "",
          "type": "address"
        }
      ],
      "name": "shares",
      "outputs": [
        {
          "internalType": "uint256",
          "name": "",
          "type": "uint256"
        }
      ],
      "stateMutability": "view",
      "type": "function"
    },
    {
      "inputs": [
        {
          "internalType": "bytes4",
          "name": "interfaceID",
          "type": "bytes4"
        }
      ],
      "name": "supportsInterface",
      "outputs": [
        {
          "internalType": "bool",
          "name": "",
          "type": "bool"
        }
      ],
      "stateMutability": "pure",
      "type": "function"
    },
    {
      "inputs": [
        {
          "internalType": "uint256",
          "name": "assetId",
          "type": "uint256"
        },
        {
          "internalType": "uint256",
          "name": "share",
          "type": "uint256"
        },
        {
          "internalType": "bool",
          "name": "roundUp",
          "type": "bool"
        }
      ],
      "name": "toAmount",
      "outputs": [
        {
          "internalType": "uint256",
          "name": "amount",
          "type": "uint256"
        }
      ],
      "stateMutability": "view",
      "type": "function"
    },
    {
      "inputs": [
        {
          "internalType": "uint256",
          "name": "assetId",
          "type": "uint256"
        },
        {
          "internalType": "uint256",
          "name": "amount",
          "type": "uint256"
        },
        {
          "internalType": "bool",
          "name": "roundUp",
          "type": "bool"
        }
      ],
      "name": "toShare",
      "outputs": [
        {
          "internalType": "uint256",
          "name": "share",
          "type": "uint256"
        }
      ],
      "stateMutability": "view",
      "type": "function"
    },
    {
      "inputs": [
        {
          "internalType": "uint256",
          "name": "",
          "type": "uint256"
        }
      ],
      "name": "totalShares",
      "outputs": [
        {
          "internalType": "uint256",
          "name": "",
          "type": "uint256"
        }
      ],
      "stateMutability": "view",
      "type": "function"
    },
    {
      "inputs": [
        {
          "internalType": "uint256",
          "name": "assetId",
          "type": "uint256"
        },
        {
          "internalType": "address",
          "name": "from",
          "type": "address"
        },
        {
          "internalType": "address",
          "name": "to",
          "type": "address"
        },
        {
          "internalType": "uint256",
          "name": "share",
          "type": "uint256"
        }
      ],
      "name": "transfer",
      "outputs": [],
      "stateMutability": "nonpayable",
      "type": "function"
    },
    {
      "inputs": [
        {
          "internalType": "uint256",
          "name": "assetId",
          "type": "uint256"
        },
        {
          "internalType": "address",
          "name": "from",
          "type": "address"
        },
        {
          "internalType": "address[]",
          "name": "tos",
          "type": "address[]"
        },
        {
          "internalType": "uint256[]",
          "name": "share",
          "type": "uint256[]"
        }
      ],
      "name": "transferMultiple",
      "outputs": [],
      "stateMutability": "nonpayable",
      "type": "function"
    },
    {
      "inputs": [
        {
          "internalType": "uint256",
          "name": "assetId",
          "type": "uint256"
        }
      ],
      "name": "uri",
      "outputs": [
        {
          "internalType": "string",
          "name": "",
          "type": "string"
        }
      ],
      "stateMutability": "view",
      "type": "function"
    },
    {
      "inputs": [
        {
          "internalType": "uint256",
          "name": "assetId",
          "type": "uint256"
        },
        {
          "internalType": "address",
          "name": "from",
          "type": "address"
        },
        {
          "internalType": "address",
          "name": "to",
          "type": "address"
        },
        {
          "internalType": "uint256",
          "name": "amount",
          "type": "uint256"
        },
        {
          "internalType": "uint256",
          "name": "share",
          "type": "uint256"
        }
      ],
      "name": "withdraw",
      "outputs": [
        {
          "internalType": "uint256",
          "name": "amountOut",
          "type": "uint256"
        },
        {
          "internalType": "uint256",
          "name": "shareOut",
          "type": "uint256"
        }
      ],
      "stateMutability": "nonpayable",
      "type": "function"
    },
    {
      "inputs": [
        {
          "internalType": "uint256",
          "name": "assetId",
          "type": "uint256"
        },
        {
          "internalType": "address",
          "name": "from",
          "type": "address"
        },
        {
          "internalType": "address",
          "name": "to",
          "type": "address"
        },
        {
          "internalType": "uint256",
          "name": "amount",
          "type": "uint256"
        },
        {
          "internalType": "uint256",
          "name": "share",
          "type": "uint256"
        }
      ],
      "name": "withdrawETH",
      "outputs": [
        {
          "internalType": "uint256",
          "name": "amountOut",
          "type": "uint256"
        },
        {
          "internalType": "uint256",
          "name": "shareOut",
          "type": "uint256"
        }
      ],
      "stateMutability": "nonpayable",
      "type": "function"
    }
  ],
  "transactionHash": "0xf8f09968d6ebf5c0359206c9346a95bc2338a4b771ae0ccca005feb9794ccd27",
  "args": [
    "0xc02aaa39b223fe8d0a0e5c4f27ead9083c756cc2"
  ],
  "solcInputHash": "a4acc0ad93c915ebf63f90e8e7f8fa98",
  "bytecode": "0x60e06040523480156200001157600080fd5b50604051620048d9380380620048d98339810160408190526200003491620001a8565b4660a0819052620000458162000152565b6080908152606092831b6001600160601b031990811660c05260408051928301815260008084526020840181815291840181815295840181815260028054600181018255925293517f405787fa12a823e0f2b7631cc41b3ba8828b3321ca811111fa75cd3aa3bb5ace600390920291820180549351939094166001600160601b0391821617166c010000000000000000000000006001600160a01b03938416021790925593517f405787fa12a823e0f2b7631cc41b3ba8828b3321ca811111fa75cd3aa3bb5acf820180546001600160a01b0319169190951617909355517f405787fa12a823e0f2b7631cc41b3ba8828b3321ca811111fa75cd3aa3bb5ad09092019190915550620001f7565b60007f47e79534a245952e8b16893a336b85a3d9ea9fa8c573f3d803afb92a7946921882306040516020016200018b93929190620001d8565b604051602081830303815290604052805190602001209050919050565b600060208284031215620001ba578081fd5b81516001600160a01b0381168114620001d1578182fd5b9392505050565b92835260208301919091526001600160a01b0316604082015260600190565b60805160a05160c05160601c6146996200024060003980610733528061087952806109125280610f8d52806111175280611442525080612f26525080612f5b52506146996000f3fe6080604052600436106101ed5760003560e01c80638d2e63b81161010d578063cf35bdd0116100a0578063e95d084a1161006f578063e95d084a146105aa578063e985e9c5146105ca578063f23a6e61146105ea578063f242432a1461060a578063f49580b41461062a576101ed565b8063cf35bdd014610527578063d2423b5114610557578063daf210b11461056a578063e56d03431461058a576101ed565b80639f1b8f59116100dc5780639f1b8f591461049a578063a22cb465146104ba578063bafe4f14146104da578063bc197c81146104fa576101ed565b80638d2e63b81461041a5780638eb22cdd1461043a5780638faa6eba1461045a5780639a9af97a1461047a576101ed565b806336cd52a611610185578063734029bf11610154578063734029bf146103a75780637c516e94146103ba5780637ecebe00146103da57806382481d49146103fa576101ed565b806336cd52a61461031a578063396bf2fe1461033a578063442c15991461035a5780634e1273f41461037a576101ed565b806313f2dad0116101c157806313f2dad0146102a35780631f54245b146102c35780632eb2c2d6146102e35780633644e51514610305576101ed565b8062fdd58e146101f257806301ffc9a714610228578063070af5e3146102555780630e89341c14610276575b600080fd5b3480156101fe57600080fd5b5061021261020d3660046137e9565b61064a565b60405161021f9190613fcb565b60405180910390f35b34801561023457600080fd5b506102486102433660046138ec565b610674565b60405161021f9190613fc0565b610268610263366004613a82565b6106c8565b60405161021f9291906144f5565b34801561028257600080fd5b50610296610291366004613a52565b61098d565b60405161021f9190614069565b3480156102af57600080fd5b506102126102be366004613a52565b610a1e565b6102d66102d1366004613784565b610a30565b60405161021f9190613dd5565b3480156102ef57600080fd5b506103036102fe3660046135c9565b610bec565b005b34801561031157600080fd5b50610212610cd6565b34801561032657600080fd5b50610303610335366004613aa6565b610ce5565b34801561034657600080fd5b50610268610355366004613aed565b610e7d565b34801561036657600080fd5b50610212610375366004613b83565b6112bd565b34801561038657600080fd5b5061039a610395366004613814565b611352565b60405161021f9190613f7c565b6102686103b53660046139a6565b611435565b3480156103c657600080fd5b506103036103d5366004613924565b61147b565b3480156103e657600080fd5b506102126103f53660046134c8565b6114ef565b34801561040657600080fd5b50610212610415366004613a82565b611501565b34801561042657600080fd5b50610268610435366004613aed565b61151e565b34801561044657600080fd5b50610212610455366004613b83565b611824565b34801561046657600080fd5b50610303610475366004613683565b611851565b34801561048657600080fd5b50610268610495366004613aed565b611a4a565b3480156104a657600080fd5b506103036104b5366004613b3e565b611ddf565b3480156104c657600080fd5b506103036104d5366004613757565b61202b565b3480156104e657600080fd5b506102d66104f53660046134c8565b6120f6565b34801561050657600080fd5b5061051a6105153660046135c9565b612111565b60405161021f9190614040565b34801561053357600080fd5b50610547610542366004613a52565b612125565b60405161021f9493929190614503565b61030361056536600461387c565b612174565b34801561057657600080fd5b50610303610585366004613538565b612237565b34801561059657600080fd5b506102126105a5366004613be8565b6124a7565b3480156105b657600080fd5b506102126105c5366004613be8565b612808565b3480156105d657600080fd5b506102486105e5366004613500565b612834565b3480156105f657600080fd5b5061051a6106053660046136f0565b612854565b34801561061657600080fd5b506103036106253660046136f0565b612866565b34801561063657600080fd5b50610268610645366004613c18565b612948565b60008181526003602090815260408083206001600160a01b03861684529091529020545b92915050565b60006301ffc9a760e01b6001600160e01b0319831614806106a55750636cdb3d1360e11b6001600160e01b03198316145b806106c057506303a24d0760e21b6001600160e01b03198316145b90505b919050565b6000806001600160a01b0383166106fa5760405162461bcd60e51b81526004016106f1906140cb565b60405180910390fd5b60006002858154811061070957fe5b6000918252602090912060039091020180549091506001600160601b0316158015610768575080547f00000000000000000000000000000000000000000000000000000000000000006001600160a01b03908116600160601b90920416145b6107845760405162461bcd60e51b81526004016106f1906144b2565b600085815260046020908152604080832054815160808101835285546001600160601b03811682526001600160a01b03600160601b909104811694820194909452600186015490931691830191909152600284015460608301523492916107f791906107ef90612974565b846000612a91565b60008881526003602090815260408083206001600160a01b038b1684529091529020549091506108279082612afc565b60008881526003602090815260408083206001600160a01b038b1684528252808320939093558982526004905220546108609082612afc565b60046000898152602001908152602001600020819055507f00000000000000000000000000000000000000000000000000000000000000006001600160a01b031663d0e30db0836040518263ffffffff1660e01b81526004016000604051808303818588803b1580156108d257600080fd5b505af11580156108e6573d6000803e3d6000fd5b5050505060018401546001600160a01b031615905061093b57600183015461093b906001600160a01b037f00000000000000000000000000000000000000000000000000000000000000008116911684612b1f565b856001600160a01b031660006001600160a01b0316336001600160a01b03166000805160206146048339815191528a856040516109799291906144f5565b60405180910390a490969095509350505050565b606060006002838154811061099e57fe5b6000918252602090912060039091020154600160601b90046001600160a01b03169050610a176109cd82612c15565b6109df836001600160a01b0316612cd0565b6109f1846001600160a01b0316612d17565b604051602001610a0393929190613d37565b604051602081830303815290604052612dd0565b9392505050565b60046020526000908152604090205481565b60006001600160a01b038516610a585760405162461bcd60e51b81526004016106f19061433d565b606085901b8215610aca5760008585604051610a75929190613ce4565b60405180910390209050604051733d602d80600a3d3981f3363d3d373d3d3d363d7360601b81528260148201526e5af43d82803e903d91602b57fd5bf360881b6028820152816037826000f593505050610b0f565b604051733d602d80600a3d3981f3363d3d373d3d3d363d7360601b81528160148201526e5af43d82803e903d91602b57fd5bf360881b60288201526037816000f09250505b6001600160a01b038281166000818152602081905260409081902080546001600160a01b031916938a16939093179092559051631377d1f560e21b8152634ddf47d4903490610b649089908990600401614055565b6000604051808303818588803b158015610b7d57600080fd5b505af1158015610b91573d6000803e3d6000fd5b5050505050816001600160a01b0316866001600160a01b03167fd62166f3c2149208e51788b1401cc356bf5da1fc6c7886a32e18570f57d88b3b8787604051610bdb929190614055565b60405180910390a350949350505050565b610bfa888888888888612237565b610c0c876001600160a01b0316612f1b565b15610ccc5760405163bc197c8160e01b81526001600160a01b0388169063bc197c8190610c4b9033908c908b908b908b908b908b908b90600401613de9565b602060405180830381600087803b158015610c6557600080fd5b505af1158015610c79573d6000803e3d6000fd5b505050506040513d601f19601f82011682018060405250810190610c9d9190613908565b6001600160e01b03191663bc197c8160e01b14610ccc5760405162461bcd60e51b81526004016106f1906142a3565b5050505050505050565b6000610ce0612f21565b905090565b826001600160a01b0381163314801590610d2357506001600160a01b038116600090815260056020908152604080832033845290915290205460ff16155b15610d9357336000908152602081905260409020546001600160a01b03168015801590610d7557506001600160a01b0380821660009081526005602090815260408083209386168352929052205460ff165b610d915760405162461bcd60e51b81526004016106f190614132565b505b6001600160a01b038316610db95760405162461bcd60e51b81526004016106f190614275565b60008581526003602090815260408083206001600160a01b0388168452909152902054610de69083612f81565b60008681526003602090815260408083206001600160a01b038981168552925280832093909355851681522054610e1d9083612afc565b60008681526003602090815260408083206001600160a01b0380891680865291909352928190209390935591519091861690339060008051602061460483398151915290610e6e908a9088906144f5565b60405180910390a45050505050565b600080856001600160a01b0381163314801590610ebe57506001600160a01b038116600090815260056020908152604080832033845290915290205460ff16155b15610f2e57336000908152602081905260409020546001600160a01b03168015801590610f1057506001600160a01b0380821660009081526005602090815260408083209386168352929052205460ff165b610f2c5760405162461bcd60e51b81526004016106f190614132565b505b6001600160a01b038616610f545760405162461bcd60e51b81526004016106f190614275565b600060028981548110610f6357fe5b6000918252602090912060039091020180549091506001600160601b0316158015610fc2575080547f00000000000000000000000000000000000000000000000000000000000000006001600160a01b03908116600160601b90920416145b610fde5760405162461bcd60e51b81526004016106f1906144b2565b6040805160808101825282546001600160601b03811682526001600160a01b03600160601b90910481166020830152600184015416918101919091526002820154606082015260009061103090612974565b90508561105a5760008a8152600460205260409020546110539082896001612a91565b9550611079565b60008a8152600460205260408120546110769183908990612fa4565b96505b60008a81526003602090815260408083206001600160a01b038d1684529091529020546110a69087612f81565b60008b81526003602090815260408083206001600160a01b038e1684528252808320939093558c82526004905220546110df9087612f81565b60008b81526004602052604090205560018201546001600160a01b031661120057604051632e1a7d4d60e01b81526001600160a01b037f00000000000000000000000000000000000000000000000000000000000000001690632e1a7d4d9061114c908a90600401613fcb565b600060405180830381600087803b15801561116657600080fd5b505af115801561117a573d6000803e3d6000fd5b505050506000886001600160a01b03168860405161119790613dd2565b60006040518083038185875af1925050503d80600081146111d4576040519150601f19603f3d011682016040523d82523d6000602084013e6111d9565b606091505b50509050806111fa5760405162461bcd60e51b81526004016106f1906143a9565b50611267565b6001820154604051631b08c5a960e11b81526001600160a01b03909116906336118b5290611234908a908c906004016144de565b600060405180830381600087803b15801561124e57600080fd5b505af1158015611262573d6000803e3d6000fd5b505050505b60006001600160a01b0316896001600160a01b0316336001600160a01b03166000805160206146048339815191528d8a6040516112a59291906144f5565b60405180910390a45094989397509295505050505050565b6000838152600460205260408120546002805461134a929161134391889081106112e357fe5b600091825260209182902060408051608081018252600390930290910180546001600160601b03811684526001600160a01b03600160601b9091048116948401949094526001810154909316908201526002909101546060820152612974565b8585612fa4565b949350505050565b606083806001600160401b038111801561136b57600080fd5b50604051908082528060200260200182016040528015611395578160200160208202803683370190505b50915060005b8181101561142b57600360008686848181106113b357fe5b90506020020135815260200190815260200160002060008888848181106113d657fe5b90506020020160208101906113eb91906134c8565b6001600160a01b03166001600160a01b031681526020019081526020016000205483828151811061141857fe5b602090810291909101015260010161139b565b5050949350505050565b60008061146f61146960007f00000000000000000000000000000000000000000000000000000000000000008760006124a7565b846106c8565b915091505b9250929050565b60405163d505accf60e01b81526001600160a01b0389169063d505accf906114b3908a908a908a908a908a908a908a90600401613ef0565b600060405180830381600087803b1580156114cd57600080fd5b505af11580156114e1573d6000803e3d6000fd5b505050505050505050505050565b60066020526000908152604090205481565b600360209081526000928352604080842090915290825290205481565b600080856001600160a01b038116331480159061155f57506001600160a01b038116600090815260056020908152604080832033845290915290205460ff16155b156115cf57336000908152602081905260409020546001600160a01b031680158015906115b157506001600160a01b0380821660009081526005602090815260408083209386168352929052205460ff165b6115cd5760405162461bcd60e51b81526004016106f190614132565b505b6001600160a01b0386166115f55760405162461bcd60e51b81526004016106f190614275565b60006002898154811061160457fe5b6000918252602080832060408051608081018252600390940290910180546001600160601b03811685526001600160a01b03600160601b90910481169385019390935260018101549092169083015260028101546060830152925061166890612974565b9050856116925760008a81526004602052604090205461168b9082896001612a91565b95506116b1565b60008a8152600460205260408120546116ae9183908990612fa4565b96505b60008a81526003602090815260408083206001600160a01b038d1684529091529020546116de9087612f81565b60008b81526003602090815260408083206001600160a01b038e1684528252808320939093558c82526004905220546117179087612f81565b60008b81526004602052604090205560018201546001600160a01b03166117f25781546001600160601b031661176957815461176490600160601b90046001600160a01b03168989612b1f565b6117ed565b81546001600160601b0316600214156117ed5781546002830154604051637921219560e11b8152600160601b9092046001600160a01b03169163f242432a916117ba9130918d918d90600401613eb8565b600060405180830381600087803b1580156117d457600080fd5b505af11580156117e8573d6000803e3d6000fd5b505050505b611267565b6001820154604051627b8a6760e11b81526001600160a01b039091169062f714ce90611234908a908c906004016144de565b6000838152600460205260408120546002805461134a929161184a91889081106112e357fe5b8585612a91565b6001600160a01b0385166118775760405162461bcd60e51b81526004016106f1906141d0565b6001600160a01b0386811660009081526020819052604090205416156118af5760405162461bcd60e51b81526004016106f1906142cf565b6001600160a01b0386166118d55760405162461bcd60e51b81526004016106f190614162565b6001600160a01b0386166000908152600660209081526040808320805460018101909155905161194e92611933927ff7169c3866cb82146af82c4f7463af3a570ae6b4dcc70a39aa080c964fb285eb928c928c928c92909101613fd4565b60405160208183030381529060405280519060200120612fec565b90506000600182868686604051600081526020016040526040516119759493929190614022565b6020604051602081039080840390855afa158015611997573d6000803e3d6000fd5b505050602060405103519050876001600160a01b0316816001600160a01b0316146119d45760405162461bcd60e51b81526004016106f19061423e565b6001600160a01b038881166000818152600560209081526040808320948c168084529490915290819020805460ff19168a1515179055517f17307eab39ab6107e8899845ad3d59bd9653f200f220920489ca2b5937696c3190611a38908a90613fc0565b60405180910390a35050505050505050565b600080856001600160a01b0381163314801590611a8b57506001600160a01b038116600090815260056020908152604080832033845290915290205460ff16155b15611afb57336000908152602081905260409020546001600160a01b03168015801590611add57506001600160a01b0380821660009081526005602090815260408083209386168352929052205460ff165b611af95760405162461bcd60e51b81526004016106f190614132565b505b6001600160a01b038616611b215760405162461bcd60e51b81526004016106f190614275565b600060028981548110611b3057fe5b6000918252602080832060408051608081018252600390940290910180546001600160601b03811685526001600160a01b03600160601b909104811693850193909352600181015490921690830152600281015460608301529250611b9490612974565b905080611be15781546001600160601b0316611be1578154611bc590600160601b90046001600160a01b0316612f1b565b611be15760405162461bcd60e51b81526004016106f19061444c565b85611c095760008a815260046020526040812054611c029183908a90612a91565b9550611c28565b60008a815260046020526040902054611c259082886001612fa4565b96505b60008a81526003602090815260408083206001600160a01b038c168452909152902054611c559087612afc565b60008b81526003602090815260408083206001600160a01b038d1684528252808320939093558c8252600490522054611c8e9087612afc565b60008b81526004602052604090205581546001600160601b0316611cf9576001820154611cf4908a906001600160a01b031615611cd85760018401546001600160a01b0316611cda565b305b8454600160601b90046001600160a01b031691908a613041565b611da1565b81546001600160601b031660021415611da157815460018301546001600160a01b03600160601b90920482169163f242432a918c911615611d475760018501546001600160a01b0316611d49565b305b85600201548b6040518563ffffffff1660e01b8152600401611d6e9493929190613eb8565b600060405180830381600087803b158015611d8857600080fd5b505af1158015611d9c573d6000803e3d6000fd5b505050505b876001600160a01b031660006001600160a01b0316336001600160a01b03166000805160206146048339815191528d8a6040516112a59291906144f5565b846001600160a01b0381163314801590611e1d57506001600160a01b038116600090815260056020908152604080832033845290915290205460ff16155b15611e8d57336000908152602081905260409020546001600160a01b03168015801590611e6f57506001600160a01b0380821660009081526005602090815260408083209386168352929052205460ff165b611e8b5760405162461bcd60e51b81526004016106f190614132565b505b600085858281611e9957fe5b9050602002016020810190611eae91906134c8565b6001600160a01b03161415611ed55760405162461bcd60e51b81526004016106f190614372565b600084815b81811015611fcb576000888883818110611ef057fe5b9050602002016020810190611f0591906134c8565b90506000878784818110611f1557fe5b60008f81526003602090815260408083206001600160a01b0389168452825290912054910292909201359250611f4d91905082612afc565b60008d81526003602090815260408083206001600160a01b0387168452909152902055611f7a8582612afc565b9450816001600160a01b03168b6001600160a01b0316336001600160a01b03166000805160206146048339815191528f85604051611fb99291906144f5565b60405180910390a45050600101611eda565b5060008981526003602090815260408083206001600160a01b038c168452909152902054611ff99083612f81565b6000998a52600360209081526040808c206001600160a01b03909b168c52999052979098209690965550505050505050565b6001600160a01b0382166120515760405162461bcd60e51b81526004016106f1906141d0565b336000908152602081905260409020546001600160a01b0316156120875760405162461bcd60e51b81526004016106f1906142cf565b3360008181526005602090815260408083206001600160a01b038716808552925291829020805460ff191685151517905590519091907f17307eab39ab6107e8899845ad3d59bd9653f200f220920489ca2b5937696c31906120ea908590613fc0565b60405180910390a35050565b6000602081905290815260409020546001600160a01b031681565b63bc197c8160e01b98975050505050505050565b6002818154811061213257fe5b60009182526020909120600390910201805460018201546002909201546001600160601b0382169350600160601b9091046001600160a01b0390811692169084565b60005b8281101561223157600060603086868581811061219057fe5b90506020028101906121a29190614533565b6040516121b0929190613ce4565b600060405180830381855af49150503d80600081146121eb576040519150601f19603f3d011682016040523d82523d6000602084013e6121f0565b606091505b5091509150811580156122005750835b156122275761220e81613132565b60405162461bcd60e51b81526004016106f19190614069565b5050600101612177565b50505050565b856001600160a01b038116331480159061227557506001600160a01b038116600090815260056020908152604080832033845290915290205460ff16155b156122e557336000908152602081905260409020546001600160a01b031680158015906122c757506001600160a01b0380821660009081526005602090815260408083209386168352929052205460ff165b6122e35760405162461bcd60e51b81526004016106f190614132565b505b6001600160a01b03861661230b5760405162461bcd60e51b81526004016106f190614275565b8360005b8181101561244157600087878381811061232557fe5b905060200201359050600086868481811061233c57fe5b90506020020135905061238e816003600085815260200190815260200160002060008e6001600160a01b03166001600160a01b0316815260200190815260200160002054612f8190919063ffffffff16565b6003600084815260200190815260200160002060008d6001600160a01b03166001600160a01b0316815260200190815260200160002081905550612411816003600085815260200190815260200160002060008d6001600160a01b03166001600160a01b0316815260200190815260200160002054612afc90919063ffffffff16565b60009283526003602090815260408085206001600160a01b038e168652909152909220919091555060010161230f565b50866001600160a01b0316886001600160a01b0316336001600160a01b03167f4a39dc06d4c0dbc64b70af90fd698a233a518aa5d07e595d983b8c0526c8f7fb898989896040516124959493929190613f4a565b60405180910390a45050505050505050565b6001600160601b03841660009081526001602090815260408083206001600160a01b038088168552908352818420908616845282528083208484529091529020548061134a5781158061250257506001600160601b03851615155b61251e5760405162461bcd60e51b81526004016106f190614415565b6001600160a01b03831615806126bc5750826001600160a01b0316635a3b7e426040518163ffffffff1660e01b815260040160206040518083038186803b15801561256857600080fd5b505afa15801561257c573d6000803e3d6000fd5b505050506040513d601f19601f820116820180604052508101906125a09190613bcc565b6001600160601b0316856001600160601b03161480156126415750826001600160a01b031663f6b4dfb46040518163ffffffff1660e01b815260040160206040518083038186803b1580156125f457600080fd5b505afa158015612608573d6000803e3d6000fd5b505050506040513d601f19601f8201168201806040525081019061262c91906134e4565b6001600160a01b0316846001600160a01b0316145b80156126bc5750826001600160a01b03166317d70f7c6040518163ffffffff1660e01b815260040160206040518083038186803b15801561268157600080fd5b505afa158015612695573d6000803e3d6000fd5b505050506040513d601f19601f820116820180604052508101906126b99190613a6a565b82145b6126d85760405162461bcd60e51b81526004016106f190614199565b5060028054604080516080810182526001600160601b038089168083526001600160a01b03808a1660208086018281528b8416878901818152606089018d81526001808d018e5560009d8e52995160038d027f405787fa12a823e0f2b7631cc41b3ba8828b3321ca811111fa75cd3aa3bb5ace8101805496518a16600160601b02928c166bffffffffffffffffffffffff1990971696909617909a1617909355517f405787fa12a823e0f2b7631cc41b3ba8828b3321ca811111fa75cd3aa3bb5acf88018054919096166001600160a01b031990911617909455517f405787fa12a823e0f2b7631cc41b3ba8828b3321ca811111fa75cd3aa3bb5ad09095019490945591875292825283862090865281528285209185529081528184208585529052909120819055949350505050565b600160209081526000948552604080862082529385528385208152918452828420909152825290205481565b600560209081526000928352604080842090915290825290205460ff1681565b63f23a6e6160e01b9695505050505050565b61287284878786610ce5565b612884856001600160a01b0316612f1b565b156129405760405163f23a6e6160e01b81526001600160a01b0386169063f23a6e61906128bf9033908a908990899089908990600401613e4d565b602060405180830381600087803b1580156128d957600080fd5b505af11580156128ed573d6000803e3d6000fd5b505050506040513d601f19601f820116820180604052508101906129119190613908565b6001600160e01b03191663f23a6e6160e01b146129405760405162461bcd60e51b81526004016106f1906142a3565b505050505050565b60008061296361295a8b8b8b8b6124a7565b87878787611a4a565b915091509850989650505050505050565b60408101516000906001600160a01b0316612a545781516001600160601b03166129b75760208201516129b0906001600160a01b031630613192565b90506106c3565b81516001600160601b031660021415612a4f5781602001516001600160a01b031662fdd58e3084606001516040518363ffffffff1660e01b81526004016129ff929190613f31565b60206040518083038186803b158015612a1757600080fd5b505afa158015612a2b573d6000803e3d6000fd5b505050506040513d601f19601f820116820180604052508101906129b09190613a6a565b6106c3565b81604001516001600160a01b031663ce845d1d6040518163ffffffff1660e01b815260040160206040518083038186803b158015612a1757600080fd5b6000612a9e846001612afc565b9350612aae856305f5e100612afc565b945083612abb848761327c565b81612ac257fe5b049050818015612ae357508285612ad9838761327c565b81612ae057fe5b04105b1561134a57612af3816001612afc565b95945050505050565b8181018181101561066e5760405162461bcd60e51b81526004016106f190614207565b60006060846001600160a01b031663a9059cbb60e01b8585604051602401612b48929190613f31565b60408051601f198184030181529181526020820180516001600160e01b03166001600160e01b0319909416939093179092529051612b869190613cf4565b6000604051808303816000865af19150503d8060008114612bc3576040519150601f19603f3d011682016040523d82523d6000602084013e612bc8565b606091505b5091509150818015612bf2575080511580612bf2575080806020019051810190612bf291906138d0565b612c0e5760405162461bcd60e51b81526004016106f1906140fb565b5050505050565b60408051600481526024810182526020810180516001600160e01b03166306fdde0360e01b179052905160609160009183916001600160a01b03861691612c5c9190613cf4565b600060405180830381855afa9150503d8060008114612c97576040519150601f19603f3d011682016040523d82523d6000602084013e612c9c565b606091505b509150915081612cc757604051806040016040528060038152602001623f3f3f60e81b81525061134a565b61134a816132b3565b60408051600481526024810182526020810180516001600160e01b03166395d89b4160e01b179052905160609160009183916001600160a01b03861691612c5c9190613cf4565b60408051600481526024810182526020810180516001600160e01b031663313ce56760e01b179052905160009182916060916001600160a01b03861691612d5e9190613cf4565b600060405180830381855afa9150503d8060008114612d99576040519150601f19603f3d011682016040523d82523d6000602084013e612d9e565b606091505b5091509150818015612db1575080516020145b612dbc57601261134a565b8080602001905181019061134a9190613bb0565b6060815160001415612df157506040805160208101909152600081526106c3565b606060405180606001604052806040815260200161462460409139905060006003845160020181612e1e57fe5b0460040290506060816020016001600160401b0381118015612e3f57600080fd5b506040519080825280601f01601f191660200182016040528015612e6a576020820181803683370190505b509050818152600183018586518101602084015b81831015612ed6576003830192508251603f8160121c168501518253600182019150603f81600c1c168501518253600182019150603f8160061c168501518253600182019150603f8116850151825350600101612e7e565b600389510660018114612ef05760028114612f0157612f0d565b613d3d60f01b600119830152612f0d565b603d60f81b6000198301525b509398975050505050505050565b3b151590565b6000467f00000000000000000000000000000000000000000000000000000000000000008114612f5957612f5481613411565b612f7b565b7f00000000000000000000000000000000000000000000000000000000000000005b91505090565b8082038281111561066e5760405162461bcd60e51b81526004016106f19061409c565b6000612fb1846001612afc565b9350612fc1856305f5e100612afc565b945084612fce848661327c565b81612fd557fe5b049050818015612ae357508284612ad9838861327c565b600060405180604001604052806002815260200161190160f01b815250613011612f21565b8360405160200161302493929190613d10565b604051602081830303815290604052805190602001209050919050565b60006060856001600160a01b03166323b872dd60e01b86868660405160240161306c93929190613e94565b60408051601f198184030181529181526020820180516001600160e01b03166001600160e01b03199094169390931790925290516130aa9190613cf4565b6000604051808303816000865af19150503d80600081146130e7576040519150601f19603f3d011682016040523d82523d6000602084013e6130ec565b606091505b509150915081801561311657508051158061311657508080602001905181019061311691906138d0565b6129405760405162461bcd60e51b81526004016106f1906143e0565b6060604482511015613178575060408051808201909152601d81527f5472616e73616374696f6e2072657665727465642073696c656e746c7900000060208201526106c3565b600482019150818060200190518101906106c091906139b8565b6000806060846001600160a01b03166370a0823160e01b856040516024016131ba9190613dd5565b60408051601f198184030181529181526020820180516001600160e01b03166001600160e01b03199094169390931790925290516131f89190613cf4565b600060405180830381855afa9150503d8060008114613233576040519150601f19603f3d011682016040523d82523d6000602084013e613238565b606091505b509150915081801561324c57506020815110155b6132685760405162461bcd60e51b81526004016106f190614306565b80806020019051810190612af39190613a6a565b60008115806132975750508082028282828161329457fe5b04145b61066e5760405162461bcd60e51b81526004016106f19061447b565b606060408251106132d257818060200190518101906129b091906139b8565b8151602014156133f15760005b60208160ff1610801561330e5750828160ff16815181106132fc57fe5b01602001516001600160f81b03191615155b1561331b576001016132df565b60608160ff166001600160401b038111801561333657600080fd5b506040519080825280601f01601f191660200182016040528015613361576020820181803683370190505b509050600091505b60208260ff161080156133985750838260ff168151811061338657fe5b01602001516001600160f81b03191615155b156133e857838260ff16815181106133ac57fe5b602001015160f81c60f81b818360ff16815181106133c657fe5b60200101906001600160f81b031916908160001a905350600190910190613369565b91506106c39050565b506040805180820190915260038152623f3f3f60e81b60208201526106c3565b60007f47e79534a245952e8b16893a336b85a3d9ea9fa8c573f3d803afb92a79469218823060405160200161302493929190614003565b60008083601f840112613459578182fd5b5081356001600160401b0381111561346f578182fd5b602083019150836020808302850101111561147457600080fd5b60008083601f84011261349a578182fd5b5081356001600160401b038111156134b0578182fd5b60208301915083602082850101111561147457600080fd5b6000602082840312156134d9578081fd5b8135610a17816145a3565b6000602082840312156134f5578081fd5b8151610a17816145a3565b60008060408385031215613512578081fd5b823561351d816145a3565b9150602083013561352d816145a3565b809150509250929050565b60008060008060008060808789031215613550578182fd5b863561355b816145a3565b9550602087013561356b816145a3565b945060408701356001600160401b0380821115613586578384fd5b6135928a838b01613448565b909650945060608901359150808211156135aa578384fd5b506135b789828a01613448565b979a9699509497509295939492505050565b60008060008060008060008060a0898b0312156135e4578182fd5b88356135ef816145a3565b975060208901356135ff816145a3565b965060408901356001600160401b038082111561361a578384fd5b6136268c838d01613448565b909850965060608b013591508082111561363e578384fd5b61364a8c838d01613448565b909650945060808b0135915080821115613662578384fd5b5061366f8b828c01613489565b999c989b5096995094979396929594505050565b60008060008060008060c0878903121561369b578182fd5b86356136a6816145a3565b955060208701356136b6816145a3565b945060408701356136c6816145bb565b935060608701356136d6816145df565b9598949750929560808101359460a0909101359350915050565b60008060008060008060a08789031215613708578384fd5b8635613713816145a3565b95506020870135613723816145a3565b9450604087013593506060870135925060808701356001600160401b0381111561374b578283fd5b6135b789828a01613489565b60008060408385031215613769578182fd5b8235613774816145a3565b9150602083013561352d816145bb565b60008060008060608587031215613799578182fd5b84356137a4816145a3565b935060208501356001600160401b038111156137be578283fd5b6137ca87828801613489565b90945092505060408501356137de816145bb565b939692955090935050565b600080604083850312156137fb578182fd5b8235613806816145a3565b946020939093013593505050565b60008060008060408587031215613829578182fd5b84356001600160401b038082111561383f578384fd5b61384b88838901613448565b90965094506020870135915080821115613863578384fd5b5061387087828801613448565b95989497509550505050565b600080600060408486031215613890578081fd5b83356001600160401b038111156138a5578182fd5b6138b186828701613448565b90945092505060208401356138c5816145bb565b809150509250925092565b6000602082840312156138e1578081fd5b8151610a17816145bb565b6000602082840312156138fd578081fd5b8135610a17816145c9565b600060208284031215613919578081fd5b8151610a17816145c9565b600080600080600080600080610100898b031215613940578182fd5b883561394b816145a3565b9750602089013561395b816145a3565b9650604089013561396b816145a3565b9550606089013594506080890135935060a0890135613989816145df565b979a969950949793969295929450505060c08201359160e0013590565b60008060408385031215613512578182fd5b6000602082840312156139c9578081fd5b81516001600160401b03808211156139df578283fd5b818401915084601f8301126139f2578283fd5b815181811115613a00578384fd5b604051601f8201601f191681016020018381118282101715613a20578586fd5b604052818152838201602001871015613a37578485fd5b613a48826020830160208701614577565b9695505050505050565b600060208284031215613a63578081fd5b5035919050565b600060208284031215613a7b578081fd5b5051919050565b60008060408385031215613a94578182fd5b82359150602083013561352d816145a3565b60008060008060808587031215613abb578182fd5b843593506020850135613acd816145a3565b92506040850135613add816145a3565b9396929550929360600135925050565b600080600080600060a08688031215613b04578283fd5b853594506020860135613b16816145a3565b93506040860135613b26816145a3565b94979396509394606081013594506080013592915050565b60008060008060008060808789031215613b56578384fd5b863595506020870135613b68816145a3565b945060408701356001600160401b0380821115613586578586fd5b600080600060608486031215613b97578081fd5b833592506020840135915060408401356138c5816145bb565b600060208284031215613bc1578081fd5b8151610a17816145df565b600060208284031215613bdd578081fd5b8151610a17816145ee565b60008060008060808587031215613bfd578182fd5b8435613c08816145ee565b93506020850135613acd816145a3565b600080600080600080600080610100898b031215613c34578182fd5b8835613c3f816145ee565b97506020890135613c4f816145a3565b96506040890135613c5f816145a3565b9550606089013594506080890135613c76816145a3565b935060a0890135613989816145a3565b81835260006001600160fb1b03831115613c9e578081fd5b6020830280836020870137939093016020019283525090919050565b60008284528282602086013780602084860101526020601f19601f85011685010190509392505050565b6000828483379101908152919050565b60008251613d06818460208701614577565b9190910192915050565b60008451613d22818460208901614577565b91909101928352506020820152604001919050565b693d913730b6b2911d101160b11b81528351600090613d5d81600a850160208901614577565b6d1116101139bcb6b137b6111d101160911b600a918401918201528451613d8b816018840160208901614577565b6e0111610113232b1b4b6b0b639911d1608d1b6018929091019182015260f89390931b6001600160f81b03191660278401525050607d60f81b602882015260290192915050565b90565b6001600160a01b0391909116815260200190565b6001600160a01b0389811682528816602082015260a060408201819052600090613e16908301888a613c86565b8281036060840152613e29818789613c86565b90508281036080840152613e3e818587613cba565b9b9a5050505050505050505050565b6001600160a01b03878116825286166020820152604081018590526060810184905260a060808201819052600090613e889083018486613cba565b98975050505050505050565b6001600160a01b039384168152919092166020820152604081019190915260600190565b6001600160a01b0394851681529290931660208301526040820152606081019190915260a06080820181905260009082015260c00190565b6001600160a01b0397881681529590961660208601526040850193909352606084019190915260ff16608083015260a082015260c081019190915260e00190565b6001600160a01b03929092168252602082015260400190565b600060408252613f5e604083018688613c86565b8281036020840152613f71818587613c86565b979650505050505050565b6020808252825182820181905260009190848201906040850190845b81811015613fb457835183529284019291840191600101613f98565b50909695505050505050565b901515815260200190565b90815260200190565b9485526001600160a01b0393841660208601529190921660408401529015156060830152608082015260a00190565b92835260208301919091526001600160a01b0316604082015260600190565b93845260ff9290921660208401526040830152606082015260800190565b6001600160e01b031991909116815260200190565b60006020825261134a602083018486613cba565b6000602082528251806020840152614088816040850160208701614577565b601f01601f19169190910160400192915050565b602080825260159082015274426f72696e674d6174683a20556e646572666c6f7760581b604082015260600190565b602080825260169082015275165a595b19109bde0e8809dd1bc9c81b9bdd081cd95d60521b604082015260600190565b6020808252601c908201527f426f72696e6745524332303a205472616e73666572206661696c656400000000604082015260600190565b602080825260169082015275165a595b19109bde0e88139bdd08185c1c1c9bdd995960521b604082015260600190565b6020808252601a908201527f5969656c64426f783a20557365722063616e6e6f742062652030000000000000604082015260600190565b6020808252601b908201527f5969656c64426f783a205374726174656779206d69736d617463680000000000604082015260600190565b6020808252601a908201527f5969656c64426f783a206f70657261746f72206e6f7420736574000000000000604082015260600190565b60208082526018908201527f426f72696e674d6174683a20416464204f766572666c6f770000000000000000604082015260600190565b6020808252601b908201527f5969656c64426f783a20496e76616c6964205369676e61747572650000000000604082015260600190565b602080825260149082015273165a595b19109bde0e881d1bc81b9bdd081cd95d60621b604082015260600190565b60208082526012908201527157726f6e672072657475726e2076616c756560701b604082015260600190565b60208082526017908201527f5969656c64426f783a207573657220697320636c6f6e65000000000000000000604082015260600190565b6020808252601d908201527f426f72696e6745524332303a2042616c616e63654f66206661696c6564000000604082015260600190565b6020808252818101527f426f72696e67466163746f72793a204e6f206d6173746572436f6e7472616374604082015260600190565b60208082526018908201527f5969656c64426f783a20746f735b305d206e6f74207365740000000000000000604082015260600190565b6020808252601d908201527f5969656c64426f783a20455448207472616e73666572206661696c6564000000604082015260600190565b6020808252818101527f426f72696e6745524332303a205472616e7366657246726f6d206661696c6564604082015260600190565b6020808252601e908201527f5969656c64426f783a204e6f20746f6b656e496420666f722045524332300000604082015260600190565b6020808252601590820152742cb4b2b6322137bc1d102737ba1030903a37b5b2b760591b604082015260600190565b60208082526018908201527f426f72696e674d6174683a204d756c204f766572666c6f770000000000000000604082015260600190565b6020808252601290820152710b2d2cad8c884def07440dcdee840ae8aa8960731b604082015260600190565b9182526001600160a01b0316602082015260400190565b918252602082015260400190565b6001600160601b039490941684526001600160a01b03928316602085015291166040830152606082015260800190565b6000808335601e19843603018112614549578283fd5b8301803591506001600160401b03821115614562578283fd5b60200191503681900382131561147457600080fd5b60005b8381101561459257818101518382015260200161457a565b838111156122315750506000910152565b6001600160a01b03811681146145b857600080fd5b50565b80151581146145b857600080fd5b6001600160e01b0319811681146145b857600080fd5b60ff811681146145b857600080fd5b6001600160601b03811681146145b857600080fdfec3d58168c5ae7397731d063d5bbf3d657854427343f4c083240f7aacaa2d0f624142434445464748494a4b4c4d4e4f505152535455565758595a6162636465666768696a6b6c6d6e6f707172737475767778797a303132333435363738392b2fa2646970667358221220ac908491b4ebb51da6510c8181065bd88a6c4b83017a65c686739caf8dfdde4a64736f6c634300060c0033",
  "devdoc": {
    "author": "BoringCrypto, Keno",
    "kind": "dev",
    "methods": {
      "batch(bytes[],bool)": {
        "params": {
          "calls": "An array of inputs for each call.",
          "revertOnFail": "If True then reverts after a failed call and stops doing further calls."
        }
      },
      "deploy(address,bytes,bool)": {
        "params": {
          "data": "Additional abi encoded calldata that is passed to the new clone via `IMasterContract.init`.",
          "masterContract": "The address of the contract to clone.",
          "useCreate2": "Creates the clone by using the CREATE2 opcode, in this case `data` will be used as salt."
        },
        "returns": {
          "cloneAddress": "Address of the created clone contract."
        }
      },
      "depositAsset(uint256,address,address,uint256,uint256)": {
        "params": {
          "amount": "Token amount in native representation to deposit.",
          "assetId": "The id of the asset.",
          "from": "which account to pull the tokens.",
          "share": "Token amount represented in shares to deposit. Takes precedence over `amount`.",
          "to": "which account to push the tokens."
        },
        "returns": {
          "amountOut": "The amount deposited.",
          "shareOut": "The deposited amount repesented in shares."
        }
      },
      "toAmount(uint256,uint256,bool)": {
        "details": "Helper function represent shares back into the `token` amount.",
        "params": {
          "assetId": "The id of the asset.",
          "roundUp": "If the result should be rounded up.",
          "share": "The amount of shares."
        },
        "returns": {
          "amount": "The share amount back into native representation."
        }
      },
      "toShare(uint256,uint256,bool)": {
        "details": "Helper function to represent an `amount` of `token` in shares.",
        "params": {
          "amount": "The `token` amount.",
          "assetId": "The id of the asset.",
          "roundUp": "If the result `share` should be rounded up."
        },
        "returns": {
          "share": "The token amount represented in shares."
        }
      },
      "transfer(uint256,address,address,uint256)": {
        "params": {
          "assetId": "The id of the asset.",
          "from": "which user to pull the tokens.",
          "share": "The amount of `token` in shares.",
          "to": "which user to push the tokens."
        }
      },
      "transferMultiple(uint256,address,address[],uint256[])": {
        "params": {
          "assetId": "The id of the asset.",
          "from": "which user to pull the tokens.",
          "share": "The amount of `token` in shares for each receiver in `tos`.",
          "tos": "The receivers of the tokens."
        }
      },
      "withdraw(uint256,address,address,uint256,uint256)": {
        "params": {
          "amount": "of tokens. Either one of `amount` or `share` needs to be supplied.",
          "assetId": "The id of the asset.",
          "from": "which user to pull the tokens.",
          "share": "Like above, but `share` takes precedence over `amount`.",
          "to": "which user to push the tokens."
        }
      }
    },
    "title": "YieldBox",
    "version": 1
  },
  "userdoc": {
    "kind": "user",
    "methods": {
      "batch(bytes[],bool)": {
        "notice": "Allows batched call to self (this contract)."
      },
      "deploy(address,bytes,bool)": {
        "notice": "Deploys a given master Contract as a clone. Any ETH transferred with this call is forwarded to the new clone. Emits `LogDeploy`."
      },
      "depositAsset(uint256,address,address,uint256,uint256)": {
        "notice": "Deposit an amount of `token` represented in either `amount` or `share`."
      },
      "masterContractOf(address)": {
        "notice": "Mapping from clone contracts to their masterContract."
      },
      "nonces(address)": {
        "notice": "user nonces for masterContract approvals"
      },
      "permitToken(address,address,address,uint256,uint256,uint8,bytes32,bytes32)": {
        "notice": "Call wrapper that performs `ERC20.permit` on `token`. Lookup `IERC20.permit`."
      },
      "safeTransferFrom(address,address,uint256,uint256,bytes)": {
        "notice": "The following safeTransfer functions are purely here to be EIP-1155 compliant. Using these in your protocol is NOT recommended as it opens up many attack vectors, such as reentrancy issues and denial of service?"
      },
      "transfer(uint256,address,address,uint256)": {
        "notice": "Transfer shares from a user account to another one."
      },
      "transferMultiple(uint256,address,address[],uint256[])": {
        "notice": "Transfer shares from a user account to multiple other ones."
      },
      "withdraw(uint256,address,address,uint256,uint256)": {
        "notice": "Withdraws an amount of `token` from a user account."
      }
    },
    "notice": "The YieldBox is a vault for tokens. The stored tokens can assigned to strategies. Yield from this will go to the token depositors. Any funds transfered directly onto the YieldBox will be lost, use the deposit function instead.",
    "version": 1
  },
  "storageLayout": {
    "storage": [
      {
        "astId": 130,
        "contract": "contracts/YieldBox.sol:YieldBox",
        "label": "masterContractOf",
        "offset": 0,
        "slot": "0",
        "type": "t_mapping(t_address,t_address)"
      },
      {
        "astId": 1628,
        "contract": "contracts/YieldBox.sol:YieldBox",
        "label": "ids",
        "offset": 0,
        "slot": "1",
        "type": "t_mapping(t_uint96,t_mapping(t_address,t_mapping(t_contract(IStrategy)3706,t_mapping(t_uint256,t_uint256))))"
      },
      {
        "astId": 1631,
        "contract": "contracts/YieldBox.sol:YieldBox",
        "label": "assets",
        "offset": 0,
        "slot": "2",
        "type": "t_array(t_struct(Asset)1546_storage)dyn_storage"
      },
      {
        "astId": 1637,
        "contract": "contracts/YieldBox.sol:YieldBox",
        "label": "shares",
        "offset": 0,
        "slot": "3",
        "type": "t_mapping(t_uint256,t_mapping(t_address,t_uint256))"
      },
      {
        "astId": 1641,
        "contract": "contracts/YieldBox.sol:YieldBox",
        "label": "totalShares",
        "offset": 0,
        "slot": "4",
        "type": "t_mapping(t_uint256,t_uint256)"
      },
      {
        "astId": 1647,
        "contract": "contracts/YieldBox.sol:YieldBox",
        "label": "isApprovedForAll",
        "offset": 0,
        "slot": "5",
        "type": "t_mapping(t_address,t_mapping(t_address,t_bool))"
      },
      {
        "astId": 3297,
        "contract": "contracts/YieldBox.sol:YieldBox",
        "label": "nonces",
        "offset": 0,
        "slot": "6",
        "type": "t_mapping(t_address,t_uint256)"
      }
    ],
    "types": {
      "t_address": {
        "encoding": "inplace",
        "label": "address",
        "numberOfBytes": "20"
      },
      "t_array(t_struct(Asset)1546_storage)dyn_storage": {
        "base": "t_struct(Asset)1546_storage",
        "encoding": "dynamic_array",
        "label": "struct Asset[]",
        "numberOfBytes": "32"
      },
      "t_bool": {
        "encoding": "inplace",
        "label": "bool",
        "numberOfBytes": "1"
      },
      "t_contract(IStrategy)3706": {
        "encoding": "inplace",
        "label": "contract IStrategy",
        "numberOfBytes": "20"
      },
      "t_mapping(t_address,t_address)": {
        "encoding": "mapping",
        "key": "t_address",
        "label": "mapping(address => address)",
        "numberOfBytes": "32",
        "value": "t_address"
      },
      "t_mapping(t_address,t_bool)": {
        "encoding": "mapping",
        "key": "t_address",
        "label": "mapping(address => bool)",
        "numberOfBytes": "32",
        "value": "t_bool"
      },
      "t_mapping(t_address,t_mapping(t_address,t_bool))": {
        "encoding": "mapping",
        "key": "t_address",
        "label": "mapping(address => mapping(address => bool))",
        "numberOfBytes": "32",
        "value": "t_mapping(t_address,t_bool)"
      },
      "t_mapping(t_address,t_mapping(t_contract(IStrategy)3706,t_mapping(t_uint256,t_uint256)))": {
        "encoding": "mapping",
        "key": "t_address",
        "label": "mapping(address => mapping(contract IStrategy => mapping(uint256 => uint256)))",
        "numberOfBytes": "32",
        "value": "t_mapping(t_contract(IStrategy)3706,t_mapping(t_uint256,t_uint256))"
      },
      "t_mapping(t_address,t_uint256)": {
        "encoding": "mapping",
        "key": "t_address",
        "label": "mapping(address => uint256)",
        "numberOfBytes": "32",
        "value": "t_uint256"
      },
      "t_mapping(t_contract(IStrategy)3706,t_mapping(t_uint256,t_uint256))": {
        "encoding": "mapping",
        "key": "t_contract(IStrategy)3706",
        "label": "mapping(contract IStrategy => mapping(uint256 => uint256))",
        "numberOfBytes": "32",
        "value": "t_mapping(t_uint256,t_uint256)"
      },
      "t_mapping(t_uint256,t_mapping(t_address,t_uint256))": {
        "encoding": "mapping",
        "key": "t_uint256",
        "label": "mapping(uint256 => mapping(address => uint256))",
        "numberOfBytes": "32",
        "value": "t_mapping(t_address,t_uint256)"
      },
      "t_mapping(t_uint256,t_uint256)": {
        "encoding": "mapping",
        "key": "t_uint256",
        "label": "mapping(uint256 => uint256)",
        "numberOfBytes": "32",
        "value": "t_uint256"
      },
      "t_mapping(t_uint96,t_mapping(t_address,t_mapping(t_contract(IStrategy)3706,t_mapping(t_uint256,t_uint256))))": {
        "encoding": "mapping",
        "key": "t_uint96",
        "label": "mapping(uint96 => mapping(address => mapping(contract IStrategy => mapping(uint256 => uint256))))",
        "numberOfBytes": "32",
        "value": "t_mapping(t_address,t_mapping(t_contract(IStrategy)3706,t_mapping(t_uint256,t_uint256)))"
      },
      "t_struct(Asset)1546_storage": {
        "encoding": "inplace",
        "label": "struct Asset",
        "members": [
          {
            "astId": 1539,
            "contract": "contracts/YieldBox.sol:YieldBox",
            "label": "standard",
            "offset": 0,
            "slot": "0",
            "type": "t_uint96"
          },
          {
            "astId": 1541,
            "contract": "contracts/YieldBox.sol:YieldBox",
            "label": "contractAddress",
            "offset": 12,
            "slot": "0",
            "type": "t_address"
          },
          {
            "astId": 1543,
            "contract": "contracts/YieldBox.sol:YieldBox",
            "label": "strategy",
            "offset": 0,
            "slot": "1",
            "type": "t_contract(IStrategy)3706"
          },
          {
            "astId": 1545,
            "contract": "contracts/YieldBox.sol:YieldBox",
            "label": "tokenId",
            "offset": 0,
            "slot": "2",
            "type": "t_uint256"
          }
        ],
        "numberOfBytes": "96"
      },
      "t_uint256": {
        "encoding": "inplace",
        "label": "uint256",
        "numberOfBytes": "32"
      },
      "t_uint96": {
        "encoding": "inplace",
        "label": "uint96",
        "numberOfBytes": "12"
      }
    }
  }
}